:020000040800F2
:1000000000000220E9070108CD070108CF07010819
:10001000D1070108D3070108D50701080000000037
:10002000000000000000000000000000C13A0008CD
:10003000D707010800000000413D0008A73D000867
:100040003908010839080108390801083908010888
:100050003908010839080108390801083908010878
:100060003908010839080108390801083908010868
:100070003908010839080108390801083908010858
:100080003908010839080108390801083908010848
:100090003908010839080108390801083908010838
:1000A0003908010839080108390801083908010828
:1000B0003908010839080108390801083908010818
:1000C0003908010839080108390801083908010808
:1000D00039080108390801083908010839080108F8
:1000E00039080108390801083908010839080108E8
:1000F00039080108390801083908010839080108D8
:1001000039080108390801083908010839080108C7
:10011000390801083908010839080108D907010818
:1001200039080108390801083908010839080108A7
:100130003908010839080108390801083908010897
:100140003908010839080108390801083908010887
:100150003908010839080108390801083908010877
:100160003908010839080108390801083908010867
:1001700039080108390801083908010800000000A1
:080180003908010839080108E3
:100190000348044B834202D0034B03B11847704716
:1001A0001000002010000020000000000548064B51
:1001B0001B1AD90F01EBA301491002D0034B03B165
:1001C00018477047100000201000002000000000B9
:1001D00010B5064C237843B9FFF7DAFF044B13B18F
:1001E0000448AFF300800123237010BD10000020ED
:1001F00000000000B008010808B5044B1BB1044919
:100200000448AFF30080BDE80840CFE700000000DD
:1002100014000020B008010880B58CB004AFF8606D
:10022000B9603B601346FB80FB889B00184603F0D7
:1002300075F978617B69002B13D0682003F06EF9A3
:10024000F861FB69002B08D068220021F86910F0E2
:10025000F4FAFB697A691A6305E0786903F01AFA1F
:1002600001E00023FB61FB69002B13D0FA88002317
:100270000393FB690293FB6A0193BB6A00933B689B
:10028000B968F86800F00EF8F86900F093F80123F7
:10029000BB6102E04FF0FF33BB61BB6918462037FA
:1002A000BD4680BD80B588B000AFF860B9607A60A7
:1002B0003B603B6B1A6B7B6803F18043013B9B0007
:1002C0001344BB61BB6923F00703BB61BB6903F047
:1002D0000703002B0BD04FF0500383F31188BFF3BB
:1002E0006F8FBFF34F8F7B6100BF00BFFDE7BB681F
:1002F000002B1ED00023FB6112E0BA68FB69134497
:1003000019783A6BFB69134434330A461A70BA6899
:10031000FB6913441B78002B06D0FB690133FB619A
:10032000FB690F2BE9D900E000BF3B6B002283F88B
:100330004320BB6A1F2B0BD94FF0500383F3118866
:10034000BFF36F8FBFF34F8F3B6100BF00BFFDE76F
:10035000BB6A1F2B01D91F23BB623B6BBA6ADA62EF
:100360003B6BBA6A5A643B6B0433184603F053FE86
:100370003B6B1833184603F04EFE3B6B3A6B1A6129
:10038000BB6AC3F120023B6B9A613B6B3A6B5A62CA
:100390003A68F968B86903F033FB02463B6B1A60B0
:1003A000FB6A002B02D0FB6A3A6B1A6000BF203751
:1003B000BD4680BD80B584B000AF786003F066FCB8
:1003C0003E4B1B6801333D4A13603D4B1B68002BBD
:1003D00009D13B4A7B681360384B1B68012B10D155
:1003E00001F0CCFB0DE0374B1B68002B09D1344BDF
:1003F0001B68DA6A7B68DB6A9A4202D8304A7B68FB
:100400001360314B1B6801332F4A13607B68DB6A32
:1004100001229A402D4B1B6813432C4A13607B68C2
:10042000DA6A2B4913469B0013449B000B440433A8
:100430001B68FB607B68FA689A60FB689A687B6857
:10044000DA60FB689B687A6804325A607B681A1D20
:10045000FB689A607B68DA6A13469B0013449B0032
:100460001B4A1A447B685A617B68DA6A184913464A
:100470009B0013449B000B441B68591C14481346F3
:100480009B0013449B000344196003F02FFC0D4BA9
:100490001B68002B0ED00A4B1B68DA6A7B68DB6A8C
:1004A0009A4207D20B4B4FF080521A60BFF34F8F26
:1004B000BFF36F8F00BF1037BD4680BD2003002003
:1004C0002C0000202C0300203C03002028030020E7
:1004D0003000002004ED00E080B584B000AF78600B
:1004E00003F0D4FB7B68002B03D13C4B1B68FB6003
:1004F00001E07B68FB60FB680433184603F0F2FD03
:100500000346002B15D1FB68DA6A354913469B0078
:1005100013449B000B441B68002B0AD1FB68DB6A69
:10052000012202FA03F3DA432E4B1B6813402D4AD3
:100530001360FB689B6A002B04D0FB6818331846D5
:1005400003F0D0FD284B1B680133274A1360234B6F
:100550001B68FA689A420BD1FB680433194623489A
:1005600003F065FD224B1B680133214A136006E04E
:10057000204B1B68013B1F4A136001F07DFB03F019
:10058000B5FB164B1B68FA689A4202D0F86801F076
:1005900063FB194B1B68002B1CD0104B1B68FA68BF
:1005A0009A4217D1154B1B68002B0BD04FF050030C
:1005B00083F31188BFF36F8FBFF34F8FBB6000BF12
:1005C00000BFFDE70E4B4FF080521A60BFF34F8F14
:1005D000BFF36F8F00BF1037BD4680BD2C000020D9
:1005E00030000020280300203C030020F4020020FB
:1005F00008030020200300202C03002048030020D3
:1006000004ED00E080B58AB000AF78603960002367
:100610007B627B68002B0BD14FF0500383F3118872
:10062000BFF36F8FBFF34F8F7B6100BF00BFFDE74C
:100630003B68002B0BD14FF0500383F31188BFF3BD
:100640006F8FBFF34F8F3B6100BF00BFFDE72B4BA8
:100650001B68002B0BD04FF0500383F31188BFF3BE
:100660006F8FBFF34F8FFB6000BF00BFFDE700F04F
:1006700003FC234B1B683B627B681B683A6813448E
:10068000FB617B681B683A6A9A420BD27B681B68E5
:10069000FA699A4211D2FA693B6A9A420DD901234A
:1006A0007B620AE07B681B68FA699A4203D3FA69A5
:1006B0003B6A9A4201D901237B627B68FA691A601E
:1006C0007B6A002B06D0FA693B6AD31A00211846D0
:1006D00002F024FA00F0DEFBB861BB69002B07D101
:1006E000084B4FF080521A60BFF34F8FBFF36F8FEC
:1006F0007B6A18462837BD4680BD00BF48030020EE
:100700002403002004ED00E080B584B000AF7860E1
:100710000023FB607B68002B18D0144B1B68002B58
:100720000BD04FF0500383F31188BFF36F8FBFF3EB
:100730004F8FBB6000BF00BFFDE700F09DFB0021B5
:10074000786802F0EBF900F0A5FBF860FB68002B7D
:1007500007D1074B4FF080521A60BFF34F8FBFF3A2
:100760006F8F00BF1037BD4680BD00BF480300201B
:1007700004ED00E080B584B000AF786003F086FA45
:100780007B68002B03D1084B1B68FB6001E07B6892
:10079000FB60FB68DB6ABB6003F0A8FABB68184625
:1007A0001037BD4680BD00BF2C00002080B588B04A
:1007B00000AF786003F03FFBEFF311824FF050037E
:1007C00083F31188BFF36F8FBFF34F8F3A61FB60E4
:1007D0003B69BB617B68002B03D10A4B1B68FB6143
:1007E00001E07B68FB61FB69DB6A7B61BB69BB6025
:1007F000BB6883F3118800BF7B6918462037BD466C
:1008000080BD00BF2C00002080B588B000AF7860AC
:1008100039600023BB613B681F2B0BD94FF050039D
:1008200083F31188BFF36F8FBFF34F8FBB6000BF9F
:1008300000BFFDE73B681F2B01D91F233B6003F07E
:1008400025FA7B68002B03D1554B1B68FB6101E047
:100850007B68FB61FB695B6C7B617A693B689A42F0
:1008600000F098803A687B699A420DD94C4B1B681E
:10087000FA699A420FD04A4B1B68DB6A3A689A427F
:1008800009D30123BB6106E0454B1B68FA699A4214
:1008900001D10123BB61FB69DB6A3B61FB695A6CD7
:1008A000FB69DB6A9A4202D1FB693A68DA62FB694A
:1008B0003A685A64FB699B69002B04DB3B68C3F10F
:1008C0002002FB699A61FB6959693A6913469B00EA
:1008D00013449B00334A1344994250D1FB690433BB
:1008E000184603F0FFFB0346002B09D101223B69A8
:1008F00002FA03F3DA432C4B1B6813402A4A1360B5
:10090000FB69DB6A01229A40274B1B681343264A86
:100910001360FB69DA6A234913469B0013449B006A
:100920000B4404331B68FB60FB69FA689A60FB6840
:100930009A68FB69DA60FB689B68FA6904325A605E
:10094000FB691A1DFB689A60FB69DA6A13469B0013
:1009500013449B00134A1A44FB695A61FB69DA6A23
:10096000104913469B0013449B000B441B68591C01
:100970000C4813469B0013449B0003441960BB6959
:10098000002B07D0094B4FF080521A60BFF34F8FF6
:10099000BFF36F8F03F0AAF900BF2037BD4680BDBB
:1009A0002C000020300000202803002004ED00E08F
:1009B00080B586B000AF786003F068F97B68002BE3
:1009C00003D1444B1B687B6101E07B687B617B69E1
:1009D0000433184603F086FB0346002B15D17B69D0
:1009E000DA6A3D4913469B0013449B000B441B6885
:1009F000002B0AD17B69DB6A012202FA03F3DA4396
:100A0000364B1B681340354A13607B699B6A002B89
:100A100004D07B691833184603F064FB7B69043308
:100A200019462F4803F003FB00233B6110E07A696D
:100A30003B69134464331B78DBB2012B05D17A691F
:100A40003B691344643300221A703B6901333B61F4
:100A50003B69002BEBDD03F049F9224B1B68002BAF
:100A600005D003F013F901F007F903F03FF9194B32
:100A70001B687A699A4228D11A4B1B68002B18D040
:100A8000194B1B68002B0BD04FF0500383F31188D8
:100A9000BFF36F8FBFF34F8FFB6000BF00BFFDE759
:100AA000124B4FF080521A60BFF34F8FBFF36F8F1E
:100AB0000BE00B4B1A680E4B1B689A4203D1054B97
:100AC00000221A6001E000F07DFC00BF1837BD462F
:100AD00080BD00BF2C000020300000202803002033
:100AE0000C0300202C0300204803002004ED00E04C
:100AF0002003002080B487B000AF786000237B61C2
:100B00007B683B617B68002B0BD14FF0500383F374
:100B10001188BFF36F8FBFF34F8FFB6000BF00BF23
:100B2000FDE73B695B690A4A93420AD13B699B6ACC
:100B3000084A934205D03B699B6A002B01D10123EF
:100B40007B617B6918461C37BD4680BC704700BF7F
:100B50000C030020E002002080B586B000AF786072
:100B60007B687B617B68002B0BD14FF0500383F3D4
:100B70001188BFF36F8FBFF34F8FFB6000BF00BFC3
:100B8000FDE7344B1B687A699A425FD07B69002B82
:100B90005CD003F07BF87869FFF7ACFF0346002BCD
:100BA00052D07B690433184603F09CFA7B69DB6AF8
:100BB00001229A40284B1B681343274A13607B6924
:100BC000DA6A264913469B0013449B000B44043306
:100BD0001B683B617B693A699A603B699A687B69EB
:100BE000DA603B699B687A6904325A607B691A1D36
:100BF0003B699A607B69DA6A13469B0013449B0049
:100C0000164A1A447B695A617B69DA6A13491346AA
:100C10009B0013449B000B441B68591C0F48134650
:100C20009B0013449B00034419607B69DA6A094BFB
:100C30001B68DB6A9A4207D3094B4FF080521A6057
:100C4000BFF34F8FBFF36F8F03F050F800BF18371B
:100C5000BD4680BD2C00002028030020300000206D
:100C600004ED00E080B58AB000AF786000237B62BD
:100C70007B683B627B68002B0BD14FF0500383F302
:100C80001188BFF36F8FBFF34F8F7B6100BF00BF31
:100C9000FDE703F0D0F8EFF311824FF0500383F338
:100CA0001188BFF36F8FBFF34F8F3A61FB603B69D1
:100CB000FB61386AFFF71EFF0346002B5AD0334B07
:100CC0001B68002B50D13B6ADA6A314B1B68DB6A28
:100CD0009A4204D301237B622E4B01221A603B6AA5
:100CE0000433184603F0FEF93B6ADB6A01229A409E
:100CF000294B1B681343284A13603B6ADA6A274969
:100D000013469B0013449B000B4404331B68BB61D8
:100D10003B6ABA699A60BB699A683B6ADA60BB69E8
:100D20009B683A6A04325A603B6A1A1DBB699A6032
:100D30003B6ADA6A13469B0013449B00174A1A4425
:100D40003B6A5A613B6ADA6A144913469B001344B2
:100D50009B000B441B68591C104813469B0013440E
:100D60009B000344196005E03B6A183319460C48A0
:100D700003F05DF9FB69BB60BB6883F3118800BFBA
:100D80007B6A18462837BD4680BD00BF4803002057
:100D90002C00002034030020280300203000002015
:100DA000E002002080B586B002AF204B0193002303
:100DB0000093002380221E491E48FFF72DFAF86099
:100DC000FB68012B02D101F029FFF860FB68012BC1
:100DD00016D14FF0500383F31188BFF36F8FBFF329
:100DE0004F8FBB6000BF144B4FF0FF321A60134BA4
:100DF00001221A60124B00221A6002F088FE0FE0F6
:100E0000FB68B3F1FF3F0BD14FF0500383F3118820
:100E1000BFF36F8FBFF34F8F7B6000BF00BFFDE755
:100E2000084B1B6800BF1037BD4680BD440300203F
:100E3000CC080108991A0008400300202C03002068
:100E400024030020C808010880B582B000AF4FF02D
:100E5000500383F31188BFF36F8FBFF34F8F7B6015
:100E600000BF044B00221A6002F0F4FE00BF0837F6
:100E7000BD4680BD2C03002080B400AF044B1B682E
:100E80000133034A136000BFBD4680BC704700BFFA
:100E90004803002080B588B000AF0023FB61002329
:100EA000BB61714B1B68002B0BD14FF0500383F3D8
:100EB0001188BFF36F8FBFF34F8F7B6000BF00BF00
:100EC000FDE702F0E3FE684B1B68013B664A1360D6
:100ED000654B1B68002B40F0C080644B1B68002BE7
:100EE00000F0BB808AE0624BDB68DB68FB61FB697A
:100EF0009B6A3B61FB69DB69FA69126A9A60FB696C
:100F00001B6AFA69D2695A603B695A68FB691833EF
:100F10009A4203D1FB691A6A3B695A60FB69002255
:100F20009A623B691B685A1E3B691A60FB695B69E0
:100F3000FB60FB699B68FA69D2689A60FB69DB68B1
:100F4000FA6992685A60FB685A68FB6904339A42EE
:100F500003D1FB69DA68FB685A60FB6900225A61B9
:100F6000FB681B685A1EFB681A60FB69DB6A01227A
:100F70009A40404B1B6813433E4A1360FB69DA6A90
:100F80003D4913469B0013449B000B4404331B68EC
:100F9000BB60FB69BA689A60BB689A68FB69DA60F3
:100FA000BB689B68FA6904325A60FB691A1DBB680A
:100FB0009A60FB69DA6A13469B0013449B002E4A31
:100FC0001A44FB695A61FB69DA6A2B4913469B0094
:100FD00013449B000B441B68591C274813469B0075
:100FE00013449B0003441960FB69DA6A234B1B68B6
:100FF000DB6A9A4202D3224B01221A601C4B1B6807
:10100000002B7FF470AFFB69002B01D000F034FEA1
:101010001C4B1B687B617B69002B10D000F0B2F881
:101020000346002B02D0164B01221A607B69013B5C
:101030007B617B69002BF1D1124B00221A60104BAF
:101040001B68002B09D00123BB610F4B4FF080526E
:101050001A60BFF34F8FBFF36F8F02F047FEBB697B
:1010600018462037BD4680BD4803002020030020DD
:10107000E002002028030020300000202C00002087
:10108000340300203003002004ED00E080B483B07E
:1010900000AF044B1B687B607B6818460C37BD466D
:1010A00080BC70472403002080B582B000AF02F0FE
:1010B000C2FE00237B60044B1B683B603B68184604
:1010C0000837BD4680BD00BF2403002080B400AFB8
:1010D000024B1B681846BD4680BC704720030020A9
:1010E00080B485B000AF78607B68002B03D10E4BD5
:1010F0001B68FB6001E07B68FB60FB68002B0BD189
:101100004FF0500383F31188BFF36F8FBFF34F8FFE
:10111000BB6000BF00BFFDE7FB68343318461437DF
:10112000BD4680BC704700BF2C00002080B584B055
:1011300000AF7860114B1B68002B0BD04FF05003B1
:1011400083F31188BFF36F8FBFF34F8FBB6000BF76
:1011500000BFFDE7FFF790FE02F098FD084B1A680C
:101160007B681344064A136002F0C0FDFFF792FE4D
:10117000F860FB6818461037BD4680BD4803002064
:101180003003002080B58AB000AF00237B62824B21
:101190001B68002B40F0F380804B1B6801333B62DF
:1011A0007E4A3B6A13603B6A002B21D17C4B1B6853
:1011B0001B68002B0BD04FF0500383F31188BFF353
:1011C0006F8FBFF34F8F7B6000BF00BFFDE7744B95
:1011D0001B68FB61734B1B68714A1360714AFB69A2
:1011E0001360714B1B6801336F4A136000F044FDBC
:1011F0006E4B1B683A6A9A42C0F0A680684B1B6827
:101200001B68002B04D1694B4FF0FF321A609BE042
:10121000634B1B68DB68DB68BB61BB695B687B6138
:101220003A6A7B699A4203D2604A7B6913608BE019
:10123000BB695B693B61BB699B68BA69D2689A60AC
:10124000BB69DB68BA6992685A603B695A68BB69D6
:1012500004339A4203D1BB69DA683B695A60BB69BF
:1012600000225A613B691B685A1E3B691A60BB69C0
:101270009B6A002B1ED0BB699B6AFB60BB69DB6964
:10128000BA69126A9A60BB691B6ABA69D2695A6004
:10129000FB685A68BB6918339A4203D1BB691A6A62
:1012A000FB685A60BB6900229A62FB681B685A1E81
:1012B000FB681A60BB69DB6A01229A403C4B1B68E1
:1012C00013433B4A1360BB69DA6A3A4913469B00F1
:1012D00013449B000B4404331B68BB60BB69BA68B2
:1012E0009A60BB689A68BB69DA60BB689B68BA6938
:1012F00004325A60BB691A1DBB689A60BB69DA6A1E
:1013000013469B0013449B002A4A1A44BB695A6146
:10131000BB69DA6A274913469B0013449B000B44C0
:101320001B68591C234813469B0013449B0003442D
:101330001960BB69DA6A204B1B68DB6A9A427FF648
:101340005DAF01237B6259E71B4B1B68DA6A1949C1
:1013500013469B0013449B000B441B68012B01D9CF
:1013600001237B62154B1B68002B01D10FF052F952
:10137000134B1B68002B09D001237B6206E00F4B47
:101380001B6801330D4A13600FF044F97B6A18465D
:101390002837BD4680BD00BF48030020240300203D
:1013A000D8020020DC020020380300204003002087
:1013B00028030020300000202C00002030030020F3
:1013C0003403002080B487B000AF274B1B68002B8C
:1013D00003D0264B01221A6040E0244B00221A6001
:1013E000234B1B68FB60FB68B3FA83F3FB72FB7A49
:1013F000C3F11F037B611F497A6913469B001344A5
:101400009B000B441B68002B0BD14FF0500383F360
:101410001188BFF36F8FBFF34F8F7B6000BF00BF9A
:10142000FDE77A6913469B0013449B00114A13445D
:101430003B613B695B685A683B695A603B695A6823
:101440003B6908339A4204D13B695B685A683B693F
:101450005A603B695B68DB68074A136000BF1C3752
:10146000BD4680BC704700BF480300203403002005
:1014700028030020300000202C00002080B584B01C
:1014800000AF786039607B68002B0BD14FF05003C0
:1014900083F31188BFF36F8FBFF34F8FFB6000BFE3
:1014A00000BFFDE7074B1B6818331946786802F048
:1014B000E1FD0121386801F031FB00BF1037BD4666
:1014C00080BD00BF2C00002080B588B000AFF86060
:1014D000B9607A60FB68002B0BD14FF0500383F3A7
:1014E0001188BFF36F8FBFF34F8FBB6100BF00BF89
:1014F000FDE71F4B1B68002B0BD14FF0500383F30C
:101500001188BFF36F8FBFF34F8F7B6100BF00BFA8
:10151000FDE7184B1B68BA6842F000429A61FB680D
:101520005B68FB61134B1B68FA69DA61114B1B683E
:10153000FA6992681A620F4B1A68FB699B68183245
:101540005A600C4B1B6803F11802FB699A60094B47
:101550001B68FA689A62FB681B685A1CFB681A6071
:101560000121786801F0DAFA00BF2037BD4680BD5E
:10157000480300202C00002080B586B000AFF86042
:10158000B9607A60FB68002B0BD14FF0500383F3F6
:101590001188BFF36F8FBFF34F8F3B6100BF00BF58
:1015A000FDE7FB685B687B61154B1B687A69DA6154
:1015B000134B1B687A6992681A62114B1A687B692F
:1015C0009B6818325A600E4B1B6803F118027B6946
:1015D0009A600B4B1B68FA689A62FB681B685A1C7E
:1015E000FB681A607B68002B02D04FF0FF33BB60B2
:1015F0007968B86801F092FA00BF1837BD4680BD1F
:101600002C00002080B48BB000AF78607B68DB6872
:10161000DB683B623B6A002B0BD14FF0500383F336
:101620001188BFF36F8FBFF34F8FFB6000BF00BF08
:10163000FDE73B6A9B6AFB613B6ADB693A6A126AB7
:101640009A603B6A1B6A3A6AD2695A60FB695A68B7
:101650003B6A18339A4203D13B6A1A6AFB695A60A3
:101660003B6A00229A62FB691B685A1EFB691A607A
:10167000494B1B68002B5ED13B6A5B697B613B6A0F
:101680009B683A6AD2689A603B6ADB683A6A9268F9
:101690005A607B695A683B6A04339A4203D13B6AB9
:1016A000DA687B695A603B6A00225A617B691B6871
:1016B0005A1E7B691A603B6ADB6A01229A40374BEB
:1016C0001B681343354A13603B6ADA6A3449134690
:1016D0009B0013449B000B4404331B683B613B6A33
:1016E0003A699A603B699A683B6ADA603B699B6831
:1016F0003A6A04325A603B6A1A1D3B699A603B6A37
:10170000DA6A13469B0013449B00254A1A443B6A3D
:101710005A613B6ADA6A224913469B0013449B00D4
:101720000B441B68591C1E4813469B0013449B0026
:10173000034419601BE01B4B5B68BB613B6ABA69E1
:10174000DA61BB699A683B6A1A62BB699B683A6A4C
:1017500018325A603B6A03F11802BB699A603B6A0F
:10176000104A9A620F4B1B6801330E4A13603B6AA2
:10177000DA6A0D4B1B68DB6A9A4205D901237B624A
:101780000A4B01221A6001E000237B627B6A184643
:101790002C37BD4680BC704748030020280300203A
:1017A00030000020E00200202C0000203403002044
:1017B00080B489B000AF78603960594B1B68002B4A
:1017C0000BD14FF0500383F31188BFF36F8FBFF33A
:1017D0004F8FFB6000BF00BFFDE73B6843F0004256
:1017E0007B681A607B68DB68FB61FB69002B0BD1AF
:1017F0004FF0500383F31188BFF36F8FBFF34F8F08
:10180000BB6000BF00BFFDE77B681B69BB617B68F5
:101810005B687A6892689A607B689B687A685268AD
:101820005A60BB695B687A689A4203D17B689A68A0
:10183000BB695A607B6800221A61BB691B685A1E2B
:10184000BB691A60FB695B697B61FB699B68FA692C
:10185000D2689A60FB69DB68FA6992685A607B69B2
:101860005A68FB6904339A4203D1FB69DA687B69E1
:101870005A60FB6900225A617B691B685A1E7B69AA
:101880001A60FB69DB6A01229A40264B1B681343EE
:10189000244A1360FB69DA6A234913469B00134408
:1018A0009B000B4404331B683B61FB693A699A60F7
:1018B0003B699A68FB69DA603B699B68FA690432A4
:1018C0005A60FB691A1D3B699A60FB69DA6A134624
:1018D0009B0013449B00144A1A44FB695A61FB693C
:1018E000DA6A114913469B0013449B000B441B68A2
:1018F000591C0D4813469B0013449B000344196078
:10190000FB69DA6A094B1B68DB6A9A4202D9084B09
:1019100001221A6000BF2437BD4680BC704700BF5B
:101920004803002028030020300000202C00002065
:101930003403002080B584B000AF78607B68002B52
:101940000BD14FF0500383F31188BFF36F8FBFF3B8
:101950004F8FFB6000BF00BFFDE702F097F9074B18
:101960001A687B681A60064B1A687B685A6002F036
:10197000BDF900BF1037BD4680BD00BF3803002051
:101980002403002080B483B000AF7860064B1A684F
:101990007B681A60054B1A687B685A6000BF0C3779
:1019A000BD4680BC704700BF3803002024030020E0
:1019B00080B588B000AF786039607B68002B0BD1B0
:1019C0004FF0500383F31188BFF36F8FBFF34F8F36
:1019D0003B6100BF00BFFDE73B68002B0BD14FF020
:1019E000500383F31188BFF36F8FBFF34F8FFB60FA
:1019F00000BF00BFFDE702F049F91F4B1B68BB6148
:101A00007B685B68BA69D31A7B613B681B68B3F17A
:101A1000FF3F02D10023FB6126E07B681A68174B69
:101A20001B689A420AD07B685B68BA699A4205D300
:101A30000123FB613B6800221A6015E03B681B68CC
:101A40007A699A420BD23B681A687B69D21A3B6862
:101A50001A607868FFF796FF0023FB6104E03B689B
:101A600000221A600123FB6102F040F9FB6918466D
:101A70002037BD4680BD00BF24030020380300206E
:101A800080B400AF034B01221A6000BFBD4680BC8A
:101A9000704700BF3403002080B582B000AF78608B
:101AA00000F0ACF8064B1B68012BF9D9054B4FF041
:101AB00080521A60BFF34F8FBFF36F8FF0E700BF04
:101AC0003000002004ED00E080B487B000AFF86083
:101AD000B9607A60BB68002B21DBBB68042B1EDC7D
:101AE000FB68002B03D1104B1B687B6101E0FB6896
:101AF0007B617B69002B0BD14FF0500383F311887E
:101B0000BFF36F8FBFF34F8F3B6100BF00BFFDE797
:101B10007A69BB6812339B0013447A685A6000BF2D
:101B20001C37BD4680BC70472C00002080B485B0B7
:101B300000AF786039600023FB603B68002B13DB4B
:101B40003B68042B10DC7B68002B03D10A4B1B681D
:101B5000BB6001E07B68BB60BA683B6812339B00E6
:101B600013445B68FB6001E00023FB60FB681846E0
:101B70001437BD4680BC70472C00002080B582B071
:101B800000AF00237B600CE07A6813469B0013448F
:101B90009B00124A1344184602F01EFA7B68013378
:101BA0007B607B681F2BEFD90D4802F015FA0D48BA
:101BB00002F012FA0C4802F00FFA0C4802F00CFA8C
:101BC0000B4802F009FA0B4B054A1A600A4B054A0A
:101BD0001A6000BF0837BD4680BD00BF300000203E
:101BE000B0020020C4020020E0020020F402002025
:101BF0000C030020D8020020DC02002080B582B057
:101C000000AF19E002F042F8104BDB68DB687B6044
:101C10007B680433184602F065FA0D4B1B68013BE4
:101C20000B4A13600B4B1B68013B0A4A136002F01E
:101C30005DF8786800F010F8064B1B68002BE1D1C6
:101C400000BF00BF0837BD4680BD00BFF4020020C2
:101C5000200300200803002080B582B000AF786028
:101C60007B681B6B184601F015FD786801F012FDCA
:101C700000BF0837BD4680BD80B400AF094B1B686C
:101C80001B68002B04D1084B4FF0FF321A6005E0AF
:101C9000044B1B68DB681B68034A136000BFBD462A
:101CA00080BC7047D80200204003002080B483B07D
:101CB00000AF044B1B687B607B6818460C37BD4641
:101CC00080BC70472C00002080B483B000AF0B4B69
:101CD0001B68002B02D101237B6008E0084B1B68C6
:101CE000002B02D102237B6001E000237B607B6834
:101CF00018460C37BD4680BC704700BF2C0300203F
:101D00004803002080B586B000AF78607B683B61F7
:101D100000237B617B68002B00F087803B69DA6AD7
:101D2000444B1B68DB6A9A4276D23B699B69002B65
:101D300006DB404B1B68DB6AC3F120023B699A61FA
:101D40003B6959693B69DA6A13469B0013449B005F
:101D5000394A1344994257D13B690433184602F07B
:101D6000C1F90346002B0AD13B69DB6A012202FA62
:101D700003F3DA43314B1B681340304A13602D4B99
:101D80001B68DA6A3B69DA623B69DB6A01229A40C6
:101D90002A4B1B681343294A13603B69DA6A2649B8
:101DA00013469B0013449B000B4404331B68FB60E9
:101DB0003B69FA689A60FB689A683B69DA60FB687D
:101DC0009B683A6904325A603B691A1DFB689A6045
:101DD0003B69DA6A13469B0013449B00164A1A4477
:101DE0003B695A613B69DA6A134913469B00134405
:101DF0009B000B441B68591C0F4813469B0013445F
:101E00009B000344196004E00A4B1B68DA6A3B69D3
:101E1000DA6201237B6108E03B695A6C054B1B6861
:101E2000DB6A9A4201D201237B617B69184618372D
:101E3000BD4680BD2C00002030000020280300207B
:101E400080B588B000AF78607B68BB610023FB6120
:101E50007B68002B00F08E80494B1B68BA699A4260
:101E60000BD04FF0500383F31188BFF36F8FBFF394
:101E70004F8F3B6100BF00BFFDE7BB699B6C002B30
:101E80000BD14FF0500383F31188BFF36F8FBFF373
:101E90004F8FFB6000BF00BFFDE7BB699B6C5A1E04
:101EA000BB699A64BB69DA6ABB695B6C9A4261D0B0
:101EB000BB699B6C002B5DD1BB690433184602F0F3
:101EC00011F90346002B0AD1BB69DB6A012202FA31
:101ED00003F3DA432B4B1B6813402A4A1360BB6998
:101EE0005A6CBB69DA62BB69DB6AC3F12002BB6969
:101EF0009A61BB69DB6A01229A40224B1B6813433B
:101F0000204A1360BB69DA6A1F4913469B001344D9
:101F10009B000B4404331B687B61BB697A699A6040
:101F20007B699A68BB69DA607B699B68BA6904322D
:101F30005A60BB691A1D7B699A60BB69DA6A1346ED
:101F40009B0013449B00104A1A44BB695A61BB6949
:101F5000DA6A0D4913469B0013449B000B441B682F
:101F6000591C094813469B0013449B000344196005
:101F70000123FB61FB6918462037BD4680BD00BFC9
:101F80002C000020280300203000002080B58AB0FB
:101F900000AF786039607B683B620123FB617B683E
:101FA000002B00F0A3803B6A9B6C002B0BD14FF001
:101FB000500383F31188BFF36F8FBFF34F8F3B61E3
:101FC00000BF00BFFDE73B6A5B6C3A689A4202D9EA
:101FD0003B687B6202E03B6A5B6C7B623B6ADB6A6C
:101FE0007A6A9A4200F082803B6A9B6CFA699A4254
:101FF0007CD1404B1B683A6A9A420BD14FF0500398
:1020000083F31188BFF36F8FBFF34F8FFB6000BF67
:1020100000BFFDE73B6ADB6ABB613B6A7A6ADA6252
:102020003B6A9B69002B04DB7B6AC3F120023B6A9D
:102030009A613B6A5969BA6913469B0013449B0035
:102040002D4A1344994251D13B6A0433184602F099
:1020500049F80346002B0AD13B6ADB6A012202FAE7
:1020600003F3DA43254B1B681340244A13603B6A91
:10207000DB6A01229A40214B1B6813431F4A1360FD
:102080003B6ADA6A1C4913469B0013449B000B44CD
:1020900004331B687B613B6A7A699A607B699A6842
:1020A0003B6ADA607B699B683A6A04325A603B6A31
:1020B0001A1D7B699A603B6ADA6A13469B001344D7
:1020C0009B000D4A1A443B6A5A613B6ADA6A0A4924
:1020D00013469B0013449B000B441B68591C064885
:1020E00013469B0013449B000344196000BF28372C
:1020F000BD4680BD2C0000203000002028030020B9
:1021000080B483B000AF094B1B689B697B60074BB1
:102110001B68DA6A054B1B68C2F120029A617B6872
:1021200018460C37BD4680BC704700BF2C0000200D
:1021300080B400AF074B1B68002B04D0054B1B6815
:102140009A6C01329A64034B1B681846BD4680BCEA
:10215000704700BF2C00002080B586B000AFF8604B
:10216000B9607A60FB68002B0BD04FF0500383F30B
:102170001188BFF36F8FBFF34F8F3B6100BF00BF6C
:10218000FDE701F083FD264B1B68FA68183253F80F
:102190002230002B15D1224B1A68FB68134464339C
:1021A00001221A707B68002B0BD00121786800F0A7
:1021B000B5FC1C4B4FF080521A60BFF34F8FBFF33A
:1021C0006F8F01F093FD01F061FD154B1B68FA68FC
:1021D000183253F822307B617B69002B12D0BB6828
:1021E000002B07D00E4B1B68FA681832002143F809
:1021F000221007E00A4B1B687A69511EFA681832F0
:1022000043F82210064B1A68FB681344643300221B
:102210001A7001F06BFD7B6918461837BD4680BD0A
:102220002C00002004ED00E080B586B000AFF8601F
:10223000B9607A603B60FB68002B0BD04FF0500315
:1022400083F31188BFF36F8FBFF34F8F3B6100BFE4
:1022500000BFFDE701F01AFD314B1A68FB6813441B
:1022600064331B78DBB2022B22D02D4B1B68FA683B
:10227000183253F82210BA68D2431140FA68183263
:1022800043F82210264B1A68FB681344643301227A
:102290001A703B6A002B0BD00121386A00F03EFC1B
:1022A000204B4FF080521A60BFF34F8FBFF36F8FF8
:1022B00001F01CFD01F0EAFC3B68002B07D0184B35
:1022C0001B68FA68183253F822203B681A60144BD6
:1022D0001A68FB68134464331B78DBB2022B02D00C
:1022E00000237B610EE00E4B1B68FA68183253F82E
:1022F00022107A68D2431140FA68183243F822104B
:1023000001237B61064B1A68FB6813446433002287
:102310001A7001F0EBFC7B6918461837BD4680BD8A
:102320002C00002004ED00E080B58EB000AFF86016
:10233000B9607A60FB7001237B63BB68002B0BD014
:102340004FF0500383F31188BFF36F8FBFF34F8FAC
:102350003B6200BF00BFFDE7FB68002B0BD14FF0D5
:10236000500383F31188BFF36F8FBFF34F8FFB616F
:1023700000BF00BFFDE7FB683B6301F087FC3B6CDF
:10238000002B06D03B6BBA68183253F822203B6C06
:102390001A603A6BBB68134464331B7887F82F309C
:1023A0003A6BBB681344643302221A70FB78042B27
:1023B0002ED0042B3ADC032B23D0032B36DC022B4C
:1023C00013D0022B32DC002B40D0012B2ED13B6BE3
:1023D000BA68183253F822207B6842EA03013B6B4B
:1023E000BA68183243F8221033E03B6BBA681832EF
:1023F00053F82230591C3B6BBA68183243F822104C
:1024000027E03B6BBA681832796843F8221020E065
:1024100097F82F30022B06D03B6BBA6818327968D8
:1024200043F8221015E000237B6312E04D4B1B683C
:10243000002B0DD04FF0500383F31188BFF36F8F43
:10244000BFF34F8FBB6100BF00BFFDE700BF00E0DF
:1024500000BF97F82F30012B7CD13B6B5B69BB62CF
:102460003B6B9B683A6BD2689A603B6BDB683A6B5C
:1024700092685A60BB6A5A683B6B04339A4203D134
:102480003B6BDA68BB6A5A603B6B00225A61BB6ADD
:102490001B685A1EBB6A1A603B6BDB6A01229A40BA
:1024A000314B1B681343304A13603B6BDA6A2F4988
:1024B00013469B0013449B000B4404331B687B6250
:1024C0003B6B7A6A9A607B6A9A683B6BDA607B6ADC
:1024D0009B683A6B04325A603B6B1A1D7B6A9A60A8
:1024E0003B6BDA6A13469B0013449B001F4A1A4455
:1024F0003B6B5A613B6BDA6A1C4913469B001344E1
:102500009B000B441B68591C184813469B0013443E
:102510009B00034419603B6B9B6A002B0BD04FF070
:10252000500383F31188BFF36F8FBFF34F8F7B612D
:1025300000BF00BFFDE73B6BDA6A0D4B1B68DB6A2F
:102540009A4207D90B4B4FF080521A60BFF34F8F5E
:10255000BFF36F8F01F0CAFB7B6B18463837BD465F
:1025600080BD00BF2403002028030020300000208D
:102570002C00002004ED00E080B592B000AFF860C0
:10258000B9607A60FB7001237B64FB68002B0BD180
:102590004FF0500383F31188BFF36F8FBFF34F8F5A
:1025A000BB6200BF00BFFDE7BB68002B0BD04FF044
:1025B000500383F31188BFF36F8FBFF34F8F7B629C
:1025C00000BF00BFFDE701F036FCFB683B64EFF3A2
:1025D00011824FF0500383F31188BFF36F8FBFF365
:1025E0004F8F3A62FB613B6AFB633B6D002B06D069
:1025F0003B6CBA68183253F822203B6D1A603A6C73
:10260000BB68134464331B7887F83B303A6CBB6873
:102610001344643302221A70FB78042B2ED0042B4F
:102620003ADC032B23D0032B36DC022B13D0022BF6
:1026300032DC002B40D0012B2ED13B6CBA68183213
:1026400053F822207B6842EA03013B6CBA681832D7
:1026500043F8221033E03B6CBA68183253F822304A
:10266000591C3B6CBA68183243F8221027E03B6CC7
:10267000BA681832796843F8221020E097F83B30A6
:10268000022B06D03B6CBA681832796843F82210E6
:1026900015E000237B6412E0604B1B68002B0DD01B
:1026A0004FF0500383F31188BFF36F8FBFF34F8F49
:1026B000BB6100BF00BFFDE700BF00E000BF97F8AF
:1026C0003B30012B40F09F803B6C9B6A002B0BD072
:1026D0004FF0500383F31188BFF36F8FBFF34F8F19
:1026E0007B6100BF00BFFDE74D4B1B68002B5ED137
:1026F0003B6C5B693B633B6C9B683A6CD2689A604D
:102700003B6CDB683A6C92685A603B6B5A683B6C76
:1027100004339A4203D13B6CDA683B6B5A603B6CE2
:1027200000225A613B6B1B685A1E3B6B1A603B6C64
:10273000DB6A01229A403B4B1B681343394A136002
:102740003B6CDA6A384913469B0013449B000B44E8
:1027500004331B68FB623B6CFA6A9A60FB6A9A68F6
:102760003B6CDA60FB6A9B683A6C04325A603B6CE3
:102770001A1DFB6A9A603B6CDA6A13469B0013448D
:102780009B00294A1A443B6C5A613B6CDA6A264921
:1027900013469B0013449B000B441B68591C2248A2
:1027A00013469B0013449B00034419601BE01F4B1E
:1027B0005B687B633B6C7A6BDA617B6B9A683B6C22
:1027C0001A627B6B9B683A6C18325A603B6C03F15F
:1027D00018027B6B9A603B6C144A9A62134B1B681D
:1027E0000133124A13603B6CDA6A114B1B68DB6AD7
:1027F0009A4208D97B6D002B02D07B6D01221A60B2
:102800000C4B01221A60FB6B3B613B6983F311881F
:1028100000BF7B6C18464837BD4680BD24030020AE
:10282000480300202803002030000020E0020020A0
:102830002C0000203403002080B590B000AFF86079
:10284000B9607A60FB68002B0BD14FF0500383F323
:102850001188BFF36F8FBFF34F8F7B6200BF00BF44
:10286000FDE7BB68002B0BD04FF0500383F31188BA
:10287000BFF36F8FBFF34F8F3B6200BF00BFFDE719
:1028800001F0D9FAFB68FB63EFF311824FF05003BC
:1028900083F31188BFF36F8FBFF34F8FFA61BB6172
:1028A000FB69BB63FA6BBB68134464331B7887F81E
:1028B0003730FA6BBB681344643302221A70FB6B27
:1028C000BA68183253F82230591CFB6BBA681832B8
:1028D00043F8221097F83730012B40F09F80FB6BB4
:1028E0009B6A002B0BD04FF0500383F31188BFF38A
:1028F0006F8FBFF34F8F7B6100BF00BFFDE74C4B75
:102900001B68002B5ED1FB6B5B69FB62FB6B9B68FA
:10291000FA6BD2689A60FB6BDB68FA6B92685A605C
:10292000FB6A5A68FB6B04339A4203D1FB6BDA688B
:10293000FB6A5A60FB6B00225A61FB6A1B685A1ED5
:10294000FB6A1A60FB6BDB6A01229A40394B1B68F9
:102950001343384A1360FB6BDA6A374913469B000E
:1029600013449B000B4404331B68BB62FB6BBA6AC5
:102970009A60BB6A9A68FB6BDA60BB6A9B68FA6B09
:1029800004325A60FB6B1A1DBB6A9A60FB6BDA6AF1
:1029900013469B0013449B00274A1A44FB6B5A6161
:1029A000FB6BDA6A244913469B0013449B000B44DB
:1029B0001B68591C204813469B0013449B0003448A
:1029C00019601BE01D4B5B683B63FB6B3A6BDA6184
:1029D0003B6B9A68FB6B1A623B6B9B68FA6B183215
:1029E0005A60FB6B03F118023B6B9A60FB6B134A56
:1029F0009A62124B1B680133104A1360FB6BDA6A50
:102A00000F4B1B68DB6A9A4208D97B68002B02D007
:102A10007B6801221A600B4B01221A60BB6B3B6181
:102A20003B6983F3118800BF00BF4037BD4680BDBE
:102A3000480300202803002030000020E00200208E
:102A40002C0000203403002080B586B000AF7860F1
:102A500039603B68002B0BD04FF0500383F3118893
:102A6000BFF36F8FBFF34F8FFB6000BF00BFFDE769
:102A70007B68002B03D1114B1B687B6101E07B68F5
:102A80007B6101F003F97A693B68134464331B7876
:102A9000DBB2022B08D17A693B681344643300220D
:102AA0001A7001233B6101E000233B6101F01EF934
:102AB0003B6918461837BD4680BD00BF2C0000207A
:102AC00080B586B000AFF860B9607A60FB68002B13
:102AD00003D1114B1B687B6101E0FB687B6101F056
:102AE000D5F87B69BA68183253F822303B617B69AC
:102AF000BA68183253F822207B68DB4302EA0301EC
:102B00007B69BA68183243F8221001F0EFF83B698C
:102B100018461837BD4680BD2C00002080B586B011
:102B200000AF78603960364B1B687B61354B1B68A2
:102B30000433184601F0D6FA0346002B0BD1314B73
:102B40001B68DB6A012202FA03F3DA432E4B1B688F
:102B500013402D4A13607B68B3F1FF3F24D13B68DB
:102B6000002B21D0294B5B683B61264B1B683A69DF
:102B70009A60244B1B683A699268DA60214B1A68A4
:102B80003B699B6804325A601E4B1B681A1D3B69E7
:102B90009A601C4B1B681D4A5A611C4B1B68013311
:102BA0001A4A136000BF26E07A697B681344FB6011
:102BB000144B1B68FA685A60FA687B699A4209D21A
:102BC000134B1A680F4B1B6804331946104601F06B
:102BD00051FA10E00F4B1A680A4B1B680433194670
:102BE000104601F047FA0C4B1B68FA689A4202D271
:102BF000094AFB68136000BF1837BD4680BD00BF9F
:102C0000240300202C000020280300200C030020B7
:102C1000DC020020D80200204003002080B584B0F0
:102C200002AF00237B6000F0D7FB124B1B68002B28
:102C30000BD0114B01931F23009300234FF480729C
:102C40000E490F48FDF7E8FA78607B68002B0BD13E
:102C50004FF0500383F31188BFF36F8FBFF34F8F93
:102C60003B6000BF00BFFDE77B6818460837BD46E4
:102C700080BD00BF7C03002080030020D408010831
:102C80002D30000880B588B002AFF860B9607A6076
:102C90003B60282000F042FC78617B69002B0DD05E
:102CA0007B69002283F824207B6901933B6A0093AF
:102CB0003B687A68B968F86800F005F87B691846DF
:102CC0001837BD4680BD80B586B000AFF860B960EA
:102CD0007A603B60BB68002B0BD14FF0500383F34D
:102CE0001188BFF36F8FBFF34F8F7B6100BF00BFB1
:102CF000FDE700F071FB7B6AFA681A607B6ABA68CC
:102D00009A617B6A3A68DA617B6A3A6A1A627B6A1C
:102D10000433184601F07FF97B68002B08D07B6AEA
:102D200093F8243043F00403DAB27B6A83F824205A
:102D300000BF1837BD4680BD80B58AB000AFF860CF
:102D4000B9607A603B6000237B62FB68002B0BD18B
:102D50004FF0500383F31188BFF36F8FBFF34F8F92
:102D60003B6200BF00BFFDE7194B1B68002B2AD058
:102D7000BB687B617B68BB61FB68FB61BB68052B43
:102D800018DCFEF7A1FF0346022B09D1104B18688F
:102D900007F1140100233A6B01F09EFB786212E008
:102DA0000B4B186807F114010023002201F094FB7B
:102DB000786208E0064B186807F1140100233A68AE
:102DC00001F0A8FC78627B6A18462837BD4680BDB2
:102DD0007C03002080B483B000AF0B4B1B68002B3A
:102DE0000BD14FF0500383F31188BFF36F8FBFF304
:102DF0004F8F7B6000BF00BFFDE7034B1B68184689
:102E00000C37BD4680BC70478003002080B485B07D
:102E100000AF78607B68FB607B68002B0BD14FF0C4
:102E2000500383F31188BFF36F8FBFF34F8FBB60E5
:102E300000BF00BFFDE7FB689B6918461437BD461D
:102E400080BC704780B584B000AF786039607B6823
:102E5000FB607B68002B0BD14FF0500383F311888C
:102E6000BFF36F8FBFF34F8FBB6000BF00BFFDE7A5
:102E700000F00CFF3B68002B09D0FB6893F824306E
:102E800043F00403DAB2FB6883F8242008E0FB680F
:102E900093F8243023F00403DAB2FB6883F824208B
:102EA00000F024FF00BF1037BD4680BD80B586B05E
:102EB00000AF78607B683B617B68002B0BD14FF0E3
:102EC000500383F31188BFF36F8FBFF34F8FFB6005
:102ED00000BF00BFFDE700F0D9FE3B6993F8243046
:102EE00003F00403002B02D100237B6101E00123E6
:102EF0007B6100F0FBFE7B6918461837BD4680BD3C
:102F000080B582B000AF78607868FFF7CFFF0346E6
:102F100018460837BD4680BD80B487B000AF7860E2
:102F20007B687B617B68002B0BD14FF0500383F3F0
:102F30001188BFF36F8FBFF34F8FFB6000BF00BFDF
:102F4000FDE77B695B683B613B6918461C37BD4602
:102F500080BC704780B485B000AF78607B68FB6050
:102F60007B68002B0BD14FF0500383F31188BFF324
:102F70006F8FBFF34F8FBB6000BF00BFFDE7FB68E3
:102F80001B6818461437BD4680BC704780B584B0B6
:102F900000AFF860B9607A6008E0FB689B69BA68C6
:102FA0001344BB60FB681B6AF8689847FB689A6922
:102FB000BB68D118BB687A68F86800F0DBF8034694
:102FC000002BEAD100BF00BF1037BD4680BD80B5E1
:102FD00084B000AF78603960134B1B68DB68DB6836
:102FE000FB60FB680433184601F07CF8FB6893F83B
:102FF000243003F00403002B05D03A687968F868A0
:10300000FFF7C4FF08E0FB6893F8243023F00103C6
:10301000DAB2FB6883F82420FB681B6AF8689847DB
:1030200000BF1037BD4680BD7403002080B584B05A
:1030300000AF786007F10803184600F059F8F8600F
:10304000BB681946F86800F004F800F0D5F800BF36
:10305000F0E780B584B000AF78603960FDF70CFF11
:1030600007F10803184600F065F8F860BB68002B0C
:1030700031D13B68002B0AD17A68FB689A4206D8A6
:10308000FDF708FFF9687868FFF7A1FF25E03B68C6
:10309000002B09D0134B1B681B68002B02D10123A6
:1030A0003B6001E000233B600F4B18687A68FB68C7
:1030B000D31A3A68194602F037FBFDF7EBFE0346D8
:1030C000002B0AD1094B4FF080521A60BFF34F8F8B
:1030D000BFF36F8F01E0FDF7DDFE00BF1037BD4687
:1030E00080BD00BF780300207C03002004ED00E0D9
:1030F00080B485B000AF78600D4B1B681B68002B57
:1031000001D1012200E000227B681A607B681B6805
:10311000002B05D1064B1B68DB681B68FB6001E0D8
:103120000023FB60FB6818461437BD4680BC70471F
:103130007403002080B584B000AF7860FDF7A6FF6F
:10314000F8600B4B1B68FA689A4205D200F01EF932
:103150007B6801221A6002E07B6800221A60044A40
:10316000FB681360FB6818461037BD4680BD00BF82
:103170008403002080B586B000AFF860B9607A6043
:103180003B6000237B61FB68BA685A60FB68FA68A1
:103190001A61BA687B689A4212D87A683B68D21A78
:1031A000FB689B699A4202D301237B611BE0104BB1
:1031B0001A68FB6804331946104600F05BFF12E002
:1031C0007A683B689A4206D2BA683B689A4202D350
:1031D00001237B6107E0074B1A68FB68043319463B
:1031E000104600F047FF7B6918461837BD4680BD82
:1031F000780300207403002080B588B000AFB1E0F0
:10320000BB68002BC0F2AE803B69FB61FB695B6968
:10321000002B04D0FB690433184600F063FF3B1D0C
:103220001846FFF787FFB861BB68092B5CD0092BF4
:1032300000F39580082B4DD0082B00F39080072BCE
:1032400000F38D80062B11DA052B73D0052B00F3CC
:103250008680042B48D0042B00F38180022B02DCF3
:10326000002B03DC7BE0032B34D078E0FB6993F880
:10327000243043F00103DAB2FB6983F82420FA68B2
:10328000FB699B69D118FB68BA69F869FFF772FF9F
:103290000346002B65D0FB6993F8243003F0040348
:1032A000002B09D0FA68FB699B691344BA69194677
:1032B000F869FFF76BFE08E0FB6993F8243023F010
:1032C0000103DAB2FB6983F82420FB691B6AF86901
:1032D000984746E0FB6993F8243023F00103DAB203
:1032E000FB6983F824203DE0FB6993F8243043F028
:1032F0000103DAB2FB6983F82420FA68FB699A615A
:10330000FB699B69002B0BD14FF0500383F31188AD
:10331000BFF36F8FBFF34F8F7B6100BF00BFFDE72F
:10332000FB699A69BB69D118BB69BA69F869FFF78B
:1033300021FF17E0FB6993F8243003F00203002B10
:1033400003D1F86900F0A6F90CE0FB6993F824308A
:1033500023F00103DAB2FB6983F8242002E000BF06
:1033600000E000BF084B1B6807F108010022184667
:1033700001F056FB0346002B7FF442AF00BF00BFB5
:103380002037BD4680BD00BF7C03002080B582B0E1
:1033900000AF09E00E4B1B68DB681B683B604FF019
:1033A000FF313868FFF713FE094B1B681B68002BC1
:1033B000F0D1074B1B687B60064B1B68044A136007
:1033C000044A7B68136000BF0837BD4680BD00BF5C
:1033D000740300207803002080B500AF00F056FC95
:1033E000124B1B68002B1DD1114800F0F5FD114850
:1033F00000F0F2FD104B0E4A1A60104B0D4A1A6095
:1034000000220C210A2000F029FF0346074A13601E
:10341000064B1B68002B05D0044B1B680849184657
:1034200002F0C8F800F062FC00BF80BD7C03002001
:103430004C03002060030020740300207803002068
:10344000DC08010880B586B000AF78607B683B611E
:103450007B68002B0BD14FF0500383F31188BFF32F
:103460006F8FBFF34F8FFB6000BF00BFFDE700F021
:103470000DFC3B6993F8243003F00103002B02D1CB
:1034800000237B6101E001237B6100F02FFC7B695D
:1034900018461837BD4680BD80B586B000AF78604D
:1034A0007B687B617B68002B0BD14FF0500383F36B
:1034B0001188BFF36F8FBFF34F8FFB6000BF00BF5A
:1034C000FDE700F0E3FB7B69DB693B6100F00EFC8C
:1034D0003B6918461837BD4680BD80B584B000AF43
:1034E000786039607B68FB607B68002B0BD14FF004
:1034F000500383F31188BFF36F8FBFF34F8FBB600F
:1035000000BF00BFFDE700F0C1FBFB683A68DA616D
:1035100000F0ECFB00BF1037BD4680BD80B58AB01F
:1035200000AF78600023FB61FDF7A6FC544B1B68DD
:10353000002B01D100F052F97B68002B12D0082239
:103540007B6803F00703D31A0833BB61BB69DB4315
:103550007A689A4204D87A68BB6913447B6001E0B8
:1035600000237B607B68002B71DB7B68002B6ED0B7
:10357000444B1B687A689A4269D8434B3B62424B82
:103580001B687B6204E07B6A3B627B6A1B687B6230
:103590007B6A5B687A689A4203D97B6A1B68002B56
:1035A000F1D1374B1B687A6A9A4250D03B6A1B684C
:1035B00008221344FB617B6A1A683B6A1A607B6AC3
:1035C0005A687B68D21A08235B009A4220D97A6A2B
:1035D0007B6813447B617B6903F00703002B0BD0EE
:1035E0004FF0500383F31188BFF36F8FBFF34F8FFA
:1035F0003B6100BF00BFFDE77B6A5A687B68D21A57
:103600007B695A607B6A7A685A60786900F042F98F
:103610001C4B1A687B6A5B68D31A1A4A1360194BF1
:103620001A681A4B1B689A4203D2164B1B68174A3A
:1036300013607B6A5B6843F000427B6A5A607B6A76
:1036400000221A60124B1B680133114A1360FDF708
:1036500021FCFB6903F00703002B0BD04FF0500354
:1036600083F31188BFF36F8FBFF34F8FFB6000BFF1
:1036700000BFFDE7FB6918462837BD4680BD00BF87
:10368000903F0020943F0020883F0020983F00207A
:103690009C3F002080B586B000AF78607B687B617E
:1036A0007B68002B47D008235B427A6913447B6117
:1036B0007B693B613B695B68002B0BDB4FF0500380
:1036C00083F31188BFF36F8FBFF34F8FFB6000BF91
:1036D00000BFFDE73B691B68002B0BD04FF0500388
:1036E00083F31188BFF36F8FBFF34F8FBB6000BFB1
:1036F00000BFFDE73B695B68002B1CDA3B691B6878
:10370000002B18D13B695B6823F000423B695A608B
:10371000FDF7B2FB3B695A68094B1B681344084A22
:103720001360386900F0B6F8064B1B680133054A90
:103730001360FDF7AFFB00BF1837BD4680BD00BF6B
:10374000943F0020A03F002080B400AF024B1B68D4
:103750001846BD4680BC7047943F002080B400AF3F
:10376000024B1B681846BD4680BC7047983F00203E
:1037700080B400AF00BFBD4680BC704780B584B048
:1037800000AF786039600023FB607B68002B09D0B4
:103790004FF0FF327B68B2FBF3F33A689A4201D9EB
:1037A000012300E00023002B13D17B683A6802FB61
:1037B00003F31846FFF7B2FEF860FB68002B08D051
:1037C0007B683A6802FB03F31A460021F8680DF0A3
:1037D00034F8FB6818461037BD4680BD80B485B00C
:1037E00000AF4FF47053BB60254BFB60FB6803F0E8
:1037F0000703002B0CD0FB680733FB60FB6823F04A
:103800000703FB60BA68FB68D31A1D4A1344BB6008
:10381000FB687B601B4A7B6813601A4B00225A606E
:103820007B68BA681344FB600822FB689B1AFB6044
:10383000FB6823F00703FB60FB68134A1360124B1D
:103840001B6800225A60104B1B6800221A607B68BC
:103850003B603B68FA68D21A3B685A600A4B1A68A8
:103860003B681A603B685B68084A13603B685B68AA
:10387000074A136000BF1437BD4680BC704700BFC5
:1038800088030020883F0020903F0020983F0020C0
:10389000943F002080B485B000AF7860274BFB6078
:1038A00002E0FB681B68FB60FB681B687A689A4251
:1038B000F7D8FB68BB60FB685B68BA6813447A683A
:1038C0009A4208D1FB685A687B685B681A44FB68B7
:1038D0005A60FB687B607B68BB607B685B68BA682A
:1038E0001A44FB681B689A4218D1FB681A68144B8B
:1038F0001B689A420DD07B685A68FB681B685B683E
:103900001A447B685A60FB681B681A687B681A60F7
:1039100008E00B4B1A687B681A6003E0FB681A68C2
:103920007B681A60FA687B689A4202D0FB687A6802
:103930001A6000BF1437BD4680BC7047883F002026
:10394000903F002080B586B000AF786000233B61D7
:103950000023FB604FF0FF33BB60FDF78DFA224B75
:103960001B687B617B69002B1BD015E03B69013331
:103970003B617B695B68FA689A4202D27B695B684B
:10398000FB607B695B68BA689A4202D97B695B68B5
:10399000BB607B691B687B61144B1B687A699A4228
:1039A000E4D1FDF777FA7B68FA685A607B68BA68F9
:1039B0009A607B683A69DA6000F068F90C4B1A6823
:1039C0007B681A600B4B1A687B685A610A4B1A684D
:1039D0007B689A61094B1A687B681A6100F086F966
:1039E00000BF1837BD4680BD883F0020903F0020B3
:1039F000943F00209C3F0020A03F0020983F0020E3
:103A000080B485B000AFF860B9607A60FB68043BB1
:103A1000FB60FB684FF080721A60FB68043BFB6040
:103A2000BB6823F00102FB681A60FB68043BFB6083
:103A30000C4AFB681A60FB68143BFB607A68FB6801
:103A40001A60FB68043BFB60FB686FF002021A60BF
:103A5000FB68203BFB60FB6818461437BD4680BC02
:103A6000704700BF693A000880B485B000AF0023FA
:103A70007B60124B1B68B3F1FF3F0BD04FF050033C
:103A800083F31188BFF36F8FBFF34F8FFB6000BFCD
:103A900000BFFDE74FF0500383F31188BFF36F8F32
:103AA000BFF34F8FBB6000BF00BF7B68002BFCD013
:103AB00000BF00BF1437BD4680BC70470000002027
:103AC000074B19680868B0E8F04F80F30988BFF326
:103AD0006F8F4FF0000080F311887047AFF30080C4
:103AE0002C00002000BF08480068006880F30888A8
:103AF0004FF0000080F3148862B661B6BFF34F8FB9
:103B0000BFF36F8F00DF00BF08ED00E000BF80B59E
:103B100086B000AF464B1B68464A93420BD14FF02C
:103B2000500383F31188BFF36F8FBFF34F8FFB6098
:103B300000BF00BFFDE73E4B1B683F4A93420BD1DD
:103B40004FF0500383F31188BFF36F8FBFF34F8F94
:103B50003B6100BF00BFFDE7384B7B617B691B7891
:103B6000DBB27B607B69FF221A707B691B78DBB25A
:103B7000FB70FB78DBB203F05003DAB2304B1A7003
:103B8000304B07221A6009E02E4B1B68013B2D4A7F
:103B90001360FB78DBB25B00DBB2FB70FB78DBB25F
:103BA00003F08003802BEFD0264B1B68032B0BD038
:103BB0004FF0500383F31188BFF36F8FBFF34F8F24
:103BC000BB6000BF00BFFDE71E4B1B681B021D4A08
:103BD00013601C4B1B6803F4E0631A4A13607B6894
:103BE000DAB27B691A70184B1B68174A43F47003EA
:103BF0001360154B1B68144A43F07043136000F0C8
:103C0000F5F8124B00221A6000F00AF9104B1B68FD
:103C10000F4A43F040431360FFF765FFFDF7D2FB07
:103C2000FFF722FF002318461837BD4680BD00BFAE
:103C300000ED00E071C20F4170C20F4100E400E0EE
:103C4000A43F0020A83F002020ED00E0000000205D
:103C500034EF00E080B483B000AF0B4B1B68B3F5CA
:103C60007A7F0BD04FF0500383F31188BFF36F8F2F
:103C7000BFF34F8F7B6000BF00BFFDE700BF0C3775
:103C8000BD4680BC704700BF0000002080B483B0F8
:103C900000AF4FF0500383F31188BFF36F8FBFF372
:103CA0004F8F7B6000BF0F4B1B6801330D4A1360C1
:103CB0000C4B1B68012B10D10B4B1B68DBB2002B8C
:103CC0000BD04FF0500383F31188BFF36F8FBFF316
:103CD0004F8F3B6000BF00BFFDE700BF0C37BD4604
:103CE00080BC70470000002004ED00E080B483B089
:103CF00000AF124B1B68002B0BD14FF0500383F326
:103D00001188BFF36F8FBFF34F8F7B6000BF00BF81
:103D1000FDE70A4B1B68013B084A1360074B1B6811
:103D2000002B05D100233B603B6883F3118800BF63
:103D300000BF0C37BD4680BC704700BF00000020AC
:103D4000EFF30980BFF36F8F154B1A681EF0100F49
:103D500008BF20ED108A20E9F04F106009B44FF041
:103D6000500080F31188BFF34F8FBFF36F8FFDF7C3
:103D700029FB4FF0000080F3118809BC196808681E
:103D8000B0E8F04F1EF0100F08BFB0EC108A80F3BF
:103D90000988BFF36F8F7047AFF30080AFF30080E7
:103DA0002C00002000BF80B582B000AF4FF0500360
:103DB00083F31188BFF36F8FBFF34F8F7B6000BF1A
:103DC000FDF7E0F90346002B03D0074B4FF080527C
:103DD0001A6000233B603B6883F3118800BF00BF7B
:103DE0000837BD4680BD00BF04ED00E080B400AFE1
:103DF000074B00221A60074B00221A60064B074A45
:103E00001A60034B07221A6000BFBD4680BC704792
:103E100010E000E018E000E014E000E03F90020055
:103E2000DFF80C00016841F4700101607047000088
:103E300088ED00E000BF80B485B000AFEFF30583EC
:103E4000FB60FB680F2B15D9174AFB6813441B78DE
:103E5000FB72164B1B78FA7A9A420BD24FF0500342
:103E600083F31188BFF36F8FBFF34F8F7B6000BF69
:103E700000BFFDE70E4B1B6803F4E0620D4B1B68AF
:103E80009A420BD94FF0500383F31188BFF36F8F21
:103E9000BFF34F8F3B6000BF00BFFDE700BF14378B
:103EA000BD4680BC704700BFF0E300E0A43F0020A7
:103EB0000CED00E0A83F002080B400AF054BD3F824
:103EC0008830044A43F47003C2F8883000BFBD460E
:103ED00080BC704700ED00E080B487B000AF0023E5
:103EE0003B6100237B610223FB600023BB60022354
:103EF0007B60344B9B6803F00C033B613B69082BF0
:103F000011D03B69082B44D83B69002B03D03B6997
:103F1000042B04D03DE02C4B2C4A1A603DE02A4B88
:103F20002B4A1A6039E0274B5B689B0D03F00103B5
:103F3000BB60244B5B6803F03F037B60BB68002BD6
:103F40000CD0234A7B68B2FBF3F31E4A52689209F5
:103F5000C2F3080202FB03F37B610BE01B4A7B68A0
:103F6000B2FBF3F3174A52689209C2F3080202FB4C
:103F700003F37B61134B5B681B0C03F003030133FA
:103F80005B00FB607A69FB68B2FBF3F30E4A1360D7
:103F900003E00D4B0D4A1A6000BF0A4B9B681B09DA
:103FA00003F00F030B4AD35C3B61074B1A683B6974
:103FB00022FA03F3044A136000BF1C37BD4680BCDD
:103FC000704700BF00380240040000200024F400C5
:103FD00000127A00E408010880B483B000AF786072
:103FE0007B6803F108027B685A607B684FF0FF3200
:103FF0009A607B6803F108027B68DA607B6803F1F2
:1040000008027B681A617B6800221A6000BF0C37C7
:10401000BD4680BC704780B483B000AF78607B68D9
:1040200000221A6100BF0C37BD4680BC704780B4C7
:1040300085B000AF786039607B685B68FB603B6887
:10404000FA685A60FB689A683B689A60FB689B68EC
:104050003A685A60FB683A689A603B687A681A6105
:104060007B681B685A1C7B681A6000BF1437BD460A
:1040700080BC704780B485B000AF786039603B6821
:104080001B68BB60BB68B3F1FF3F03D17B681B6952
:10409000FB600CE07B680833FB6002E0FB685B6858
:1040A000FB60FB685B681B68BA689A42F6D2FB68E3
:1040B0005A683B685A603B685B683A689A603B683C
:1040C000FA689A60FB683A685A603B687A681A61D5
:1040D0007B681B685A1C7B681A6000BF1437BD469A
:1040E00080BC704780B485B000AF78607B681B6986
:1040F000FB607B685B687A6892689A607B689B6803
:104100007A6852685A60FB685B687A689A4203D1A1
:104110007B689A68FB685A607B6800221A61FB68BA
:104120001B685A1EFB681A60FB681B681846143728
:10413000BD4680BC7047000080B586B000AF786097
:10414000396001237B617B683B613B69002B0BD1AC
:104150004FF0500383F31188BFF36F8FBFF34F8F7E
:10416000FB6000BF00BFFDE73B69002B5DD03B69F2
:10417000DB6B002B59D03B691A6C3B69DB6B002170
:10418000A3FB0223002B00D001210B46002B4CD1B6
:10419000FFF77CFD3B691A683B69DB6B3969096C89
:1041A00001FB03F31A443B699A603B6900229A635E
:1041B0003B691A683B695A603B691A683B69DB6B6B
:1041C000013B3969096C01FB03F31A443B69DA606E
:1041D0003B69FF2283F844203B69FF2283F8452096
:1041E0003B68002B14D13B691B69002B1AD03B693B
:1041F00010331846FDF706FA0346002B12D0164B73
:104200004FF080521A60BFF34F8FBFF36F8F09E0FA
:104210003B6910331846FFF7DFFE3B69243318462D
:10422000FFF7DAFEFFF762FD01E000237B617B69A7
:10423000002B0BD14FF0500383F31188BFF36F8F26
:10424000BFF34F8FBB6000BF00BFFDE77B6918461F
:104250001837BD4680BD00BF04ED00E080B58AB0D0
:1042600002AFF860B9601346FB710023FB61FB6885
:10427000002B2ED00021BA68FB68A3FB0223002B81
:1042800000D001210B46002B23D1FB68BA6802FB4A
:1042900003F313F14D0F1CD8FB68BA6802FB03F35C
:1042A000BB61BB694C331846FFF738F9F861FB690D
:1042B000002B1DD0FB697B617B694C337B61FA79F4
:1042C000FB69009313467A69B968F86800F015F83D
:1042D0000EE0FB69002B0BD14FF0500383F31188E4
:1042E000BFF36F8FBFF34F8F3B6100BF00BFFDE790
:1042F000FB6918462037BD4680BD80B584B000AF4D
:10430000F860B9607A60FB70BB68002B03D1BB69B1
:10431000BA691A6002E0BB697A681A60BB69FA6818
:10432000DA63BB69BA681A640121B869FFF704FF50
:10433000BB6900229A6400BF1037BD4680BD80B5BE
:1043400082B000AF78607B68002B0ED07B680022C3
:104350009A607B6800221A607B680022DA60002382
:1043600000220021786800F0B7F800BF0837BD468A
:1043700080BD80B586B000AF0346FB7101237B6131
:1043800000233B61FB791A4639697869FFF766FFBC
:10439000F860F868FFF7D3FFFB6818461837BD468A
:1043A00080BD90B587B000AF78607B683B613B69AA
:1043B000002B0BD14FF0500383F31188BFF36F8FA5
:1043C000BFF34F8FFB6000BF00BFFDE73B699C68F8
:1043D000FDF76CFC03469C4211D13B69DB685A1E19
:1043E0003B69DA603B69DB68002B05D100230022C2
:1043F0000021386900F070F801237B6101E000239F
:104400007B617B6918461C37BD4690BD90B587B06F
:1044100000AF786039607B683B613B69002B0BD152
:104420004FF0500383F31188BFF36F8FBFF34F8FAB
:10443000FB6000BF00BFFDE73B699C68FDF736FCF1
:1044400003469C4207D13B69DB685A1C3B69DA6032
:1044500001237B610CE03968386900F0C3FB7861A7
:104460007B69002B04D03B69DB685A1C3B69DA602E
:104470007B6918461C37BD4690BD80B584B000AF3F
:10448000786039600023FB607B68002B10D03A68AD
:104490007B689A420CD8022200217868FFF7DEFE82
:1044A000F860FB68002B12D0FB683A689A630EE054
:1044B000FB68002B0BD14FF0500383F31188BFF33F
:1044C0006F8FBFF34F8FBB6000BF00BFFDE7FB687E
:1044D00018461037BD4680BD80B58EB000AFF8607D
:1044E000B9607A603B6000237B63FB683B633B6B96
:1044F000002B0BD14FF0500383F31188BFF36F8F64
:10450000BFF34F8F7B6200BF00BFFDE7BB68002B8E
:1045100003D13B6B1B6C002B01D1012300E0002376
:10452000002B0BD14FF0500383F31188BFF36F8F33
:10453000BFF34F8F3B6200BF00BFFDE73B68022B1C
:1045400003D13B6BDB6B012B01D1012300E0002386
:10455000002B0BD14FF0500383F31188BFF36F8F03
:10456000BFF34F8FFB6100BF00BFFDE7FDF7ACFB62
:104570000346002B02D17B68002B01D1012300E010
:104580000023002B0BD14FF0500383F31188BFF3AE
:104590006F8FBFF34F8FBB6100BF00BFFDE7FFF719
:1045A00075FB3B6B9A6B3B6BDB6B9A4202D33B68B0
:1045B000022B45D13B6B9B6BFB623A68B968386B49
:1045C00000F091FEB8623B6B9B6C002B14D03B68F3
:1045D000022B02D1FB6A002B2ED1386B01F051F96E
:1045E0000346002B28D04A4B4FF080521A60BFF38D
:1045F0004F8FBFF36F8F1FE03B6B5B6A002B10D0B8
:104600003B6B24331846FCF7FDFF0346002B13D009
:104610003F4B4FF080521A60BFF34F8FBFF36F8F45
:104620000AE0BB6A002B07D0394B4FF080521A606A
:10463000BFF34F8FBFF36F8FFFF758FB012363E08A
:104640007B68002B03D1FFF751FB00235CE07B6B01
:10465000002B06D107F110031846FDF793F901234B
:104660007B63FFF743FBFCF707FCFFF70FFB3B6B9C
:1046700093F844305BB2B3F1FF3F03D13B6B0022B0
:1046800083F844203B6B93F845305BB2B3F1FF3FB6
:1046900003D13B6B002283F84520FFF727FB3A1D2F
:1046A00007F1100311461846FDF782F90346002B67
:1046B00024D1386B00F040FF0346002B18D03B6B31
:1046C00010337A6811461846FCF7D8FE386B00F0B4
:1046D0009AFEFCF7DFFB0346002B7FF460AF0C4B28
:1046E0004FF080521A60BFF34F8FBFF36F8F56E7C2
:1046F000386B00F088FEFCF7CDFB50E7386B00F01C
:1047000082FEFCF7C7FB002318463837BD4680BD44
:1047100004ED00E080B592B000AFF860B9607A6057
:104720003B60FB683B643B6C002B0BD14FF05003AC
:1047300083F31188BFF36F8FBFF34F8FFB6200BF0E
:1047400000BFFDE7BB68002B03D13B6C1B6C002B4B
:1047500001D1012300E00023002B0BD14FF05003C7
:1047600083F31188BFF36F8FBFF34F8FBB6200BF1E
:1047700000BFFDE73B68022B03D13B6CDB6B012BD9
:1047800001D1012300E00023002B0BD14FF0500397
:1047900083F31188BFF36F8FBFF34F8F7B6200BF2E
:1047A00000BFFDE7FFF747FBEFF311824FF0500327
:1047B00083F31188BFF36F8FBFF34F8F3A62FB61B2
:1047C0003B6AFB633B6C9A6B3B6CDB6B9A4202D39C
:1047D0003B68022B5ED13B6C93F8453087F83B3049
:1047E0003B6C9B6B7B633A68B968386C00F07BFD6F
:1047F00097F93B30B3F1FF3F29D13B6C9B6C002B09
:1048000012D03B68022B02D17B6B002B3FD1386C5E
:1048100001F037F80346002B39D07B68002B36D0E7
:104820007B6801221A6032E03B6C5B6A002B2ED061
:104830003B6C24331846FCF7E5FE0346002B26D0DC
:104840007B68002B23D07B6801221A601FE0FCF7F5
:104850003DFC386397F93B303A6B9A4217D997F988
:104860003B307F2B0BD14FF0500383F31188BFF304
:104870006F8FBFF34F8FBB6100BF00BFFDE797F89D
:104880003B300133DBB25AB23B6C83F84520012345
:104890007B6401E000237B64FB6B7B617B6983F3BA
:1048A000118800BF7B6C18464837BD4680BD80B577
:1048B00090B000AF786039607B68BB63BB6B002B46
:1048C0000BD14FF0500383F31188BFF36F8FBFF309
:1048D0004F8F7B6200BF00BFFDE7BB6B1B6C002BE3
:1048E0000BD04FF0500383F31188BFF36F8FBFF3EA
:1048F0004F8F3B6200BF00BFFDE7BB6B1B68002B07
:1049000003D1BB6B9B68002B01D1012300E0002386
:10491000002B0BD14FF0500383F31188BFF36F8F3F
:10492000BFF34F8FFB6100BF00BFFDE7FFF783FAC6
:10493000EFF311824FF0500383F31188BFF36F8FB1
:10494000BFF34F8FBA617B61BB697B63BB6B9B6BB2
:104950003B63BB6BDB6B3A6B9A4254D2BB6B93F8F5
:10496000453087F82F303B6B5A1CBB6B9A6397F925
:104970002F30B3F1FF3F23D1BB6B9B6C002B0CD0CE
:10498000B86B00F07EFF0346002B39D03B68002B4C
:1049900036D03B6801221A6032E0BB6B5B6A002BA9
:1049A0002ED0BB6B24331846FCF72CFE0346002B9D
:1049B00026D03B68002B23D03B6801221A601FE001
:1049C000FCF784FBB86297F92F30BA6A9A4217D97C
:1049D00097F92F307F2B0BD14FF0500383F31188C1
:1049E000BFF36F8FBFF34F8F3B6100BF00BFFDE789
:1049F00097F82F300133DBB25AB2BB6B83F84520F6
:104A00000123FB6301E00023FB637B6BFB60FB681E
:104A100083F3118800BFFB6B18464037BD4680BD4D
:104A200080B58CB000AFF860B9607A600023FB629B
:104A3000FB68BB62BB6A002B0BD14FF0500383F3C2
:104A40001188BFF36F8FBFF34F8F3B6200BF00BF72
:104A5000FDE7BB68002B03D1BB6A1B6C002B01D1A7
:104A6000012300E00023002B0BD14FF0500383F310
:104A70001188BFF36F8FBFF34F8FFB6100BF00BF83
:104A8000FDE7FDF721F90346002B02D17B68002BDF
:104A900001D1012300E00023002B0BD14FF0500384
:104AA00083F31188BFF36F8FBFF34F8FBB6100BFDC
:104AB00000BFFDE7FFF7EAF8BB6A9B6B7B627B6A8E
:104AC000002B1FD0B968B86A00F077FC7B6A5A1EC9
:104AD000BB6A9A63BB6A1B69002B0FD0BB6A103399
:104AE0001846FCF78FFD0346002B07D03C4B4FF0D8
:104AF00080521A60BFF34F8FBFF36F8FFFF7F6F846
:104B0000012369E07B68002B03D1FFF7EFF8002356
:104B100062E0FB6A002B06D107F110031846FCF790
:104B200031FF0123FB62FFF7E1F8FCF7A5F9FFF77E
:104B3000ADF8BB6A93F844305BB2B3F1FF3F03D1E9
:104B4000BB6A002283F84420BB6A93F845305BB20D
:104B5000B3F1FF3F03D1BB6A002283F84520FFF782
:104B6000C5F83A1D07F1100311461846FCF720FF5F
:104B70000346002B23D1B86A00F0A4FC0346002BA7
:104B800017D0BB6A24337A6811461846FCF776FCC6
:104B9000B86A00F038FCFCF77DF90346002B89D198
:104BA0000F4B4FF080521A60BFF34F8FBFF36F8FE0
:104BB00080E7B86A00F027FCFCF76CF97AE7B86A7E
:104BC00000F021FCFCF766F9B86A00F07BFC0346B4
:104BD000002B3FF46FAF002318463037BD4680BD31
:104BE00004ED00E080B58CB000AF78603960002340
:104BF000FB627B687B620023BB627B6A002B0BD16C
:104C00004FF0500383F31188BFF36F8FBFF34F8FC3
:104C1000BB6100BF00BFFDE77B6A1B6C002B0BD0A4
:104C20004FF0500383F31188BFF36F8FBFF34F8FA3
:104C30007B6100BF00BFFDE7FDF746F80346002B90
:104C400002D13B68002B01D1012300E00023002B9F
:104C50000BD14FF0500383F31188BFF36F8FBFF375
:104C60004F8F3B6100BF00BFFDE7FFF70FF87B6A86
:104C70009B6B3B623B6A002B24D03B6A5A1E7B6ACB
:104C80009A637B6A1B68002B04D1FDF751FA024638
:104C90007B6A9A607B6A1B69002B0FD07B6A10339A
:104CA0001846FCF7AFFC0346002B07D04C4B4FF0E7
:104CB00080521A60BFF34F8FBFF36F8FFFF716F864
:104CC000012389E03B68002B03D1FFF70FF8002395
:104CD00082E0FB6A002B06D107F108031846FCF7B7
:104CE00051FE0123FB62FFF701F8FCF7C5F8FEF760
:104CF000CDFF7B6A93F844305BB2B3F1FF3F03D141
:104D00007B6A002283F844207B6A93F845305BB2CB
:104D1000B3F1FF3F03D17B6A002283F84520FEF701
:104D2000E5FF3A4607F1080311461846FCF740FE36
:104D30000346002B32D1786A00F0C4FB0346002BF7
:104D400026D07B6A1B68002B09D1FEF79FFF7B6A88
:104D50009B681846FCF7D6FFB862FEF7C7FF7B6A70
:104D600024333A6811461846FCF788FB786A00F04D
:104D70004AFBFCF78FF80346002B7FF476AF184B05
:104D80004FF080521A60BFF34F8FBFF36F8F6CE705
:104D9000786A00F038FBFCF77DF866E7786A00F087
:104DA00032FBFCF777F8786A00F08CFB0346002BA7
:104DB0003FF45BAFBB6A002B0DD0FEF767FF786A4C
:104DC00000F07AFAF8617B6A9B68F9691846FDF78A
:104DD000DDF8FEF78BFF002318463037BD4680BD57
:104DE00004ED00E080B58EB000AFF860B9607A6085
:104DF00000237B63FB683B633B6B002B0BD14FF0C5
:104E0000500383F31188BFF36F8FBFF34F8F7B6223
:104E100000BF00BFFDE7BB68002B03D13B6B1B6CE1
:104E2000002B01D1012300E00023002B0BD14FF018
:104E3000500383F31188BFF36F8FBFF34F8F3B6233
:104E400000BF00BFFDE7FCF73FFF0346002B02D188
:104E50007B68002B01D1012300E00023002B0BD144
:104E60004FF0500383F31188BFF36F8FBFF34F8F61
:104E7000FB6100BF00BFFDE7FEF708FF3B6B9B6BCC
:104E8000FB62FB6A002B21D03B6BDB68BB62B9681D
:104E9000386B00F092FA3B6BBA6ADA603B6B5B6A84
:104EA000002B0FD03B6B24331846FCF7ABFB0346BB
:104EB000002B07D03C4B4FF080521A60BFF34F8F4E
:104EC000BFF36F8FFEF712FF012369E07B68002BB1
:104ED00003D1FEF70BFF002362E07B6B002B06D1B2
:104EE00007F114031846FCF74DFD01237B63FEF721
:104EF000FDFEFBF7C1FFFEF7C9FE3B6B93F84430A4
:104F00005BB2B3F1FF3F03D13B6B002283F8442037
:104F10003B6B93F845305BB2B3F1FF3F03D13B6B82
:104F2000002283F84520FEF7E1FE3A1D07F1140345
:104F300011461846FCF73CFD0346002B23D1386B85
:104F400000F0C0FA0346002B17D03B6B24337A687D
:104F500011461846FCF792FA386B00F054FAFBF74A
:104F600099FF0346002B87D10F4B4FF080521A60F8
:104F7000BFF34F8FBFF36F8F7EE7386B00F043FABC
:104F8000FBF788FF78E7386B00F03DFAFBF782FF0C
:104F9000386B00F097FA0346002B3FF46DAF002307
:104FA00018463837BD4680BD04ED00E080B590B0AE
:104FB00000AFF860B9607A60FB68BB63BB6B002B25
:104FC0000BD14FF0500383F31188BFF36F8FBFF302
:104FD0004F8F7B6200BF00BFFDE7BB68002B03D192
:104FE000BB6B1B6C002B01D1012300E00023002BC5
:104FF0000BD14FF0500383F31188BFF36F8FBFF3D2
:105000004F8F3B6200BF00BFFDE7FEF714FFEFF3D9
:1050100011824FF0500383F31188BFF36F8FBFF3FA
:105020004F8FFA61BB61FB697B63BB6B9B6B3B631F
:105030003B6B002B47D0BB6B93F8443087F82F3085
:10504000B968B86B00F0B9F93B6B5A1EBB6B9A6339
:1050500097F92F30B3F1FF3F12D1BB6B1B69002BC7
:105060002ED0BB6B10331846FCF7CCFA0346002B4E
:1050700026D07B68002B23D07B6801221A601FE0BA
:10508000FCF724F8B86297F92F30BA6A9A4217D918
:1050900097F92F307F2B0BD14FF0500383F31188FA
:1050A000BFF36F8FBFF34F8F7B6100BF00BFFDE782
:1050B00097F82F300133DBB25AB2BB6B83F8442030
:1050C0000123FB6301E00023FB637B6B3B613B69D6
:1050D00083F3118800BFFB6B18464037BD4680BD87
:1050E00080B58CB000AF786039607B68BB62BB6A0A
:1050F000002B0BD14FF0500383F31188BFF36F8F58
:10510000BFF34F8FFB6100BF00BFFDE73B68002B83
:1051100003D1BB6A1B6C002B01D1012300E00023EB
:10512000002B0BD14FF0500383F31188BFF36F8F27
:10513000BFF34F8FBB6100BF00BFFDE7BB6A1B6CB5
:10514000002B0BD14FF0500383F31188BFF36F8F07
:10515000BFF34F8F7B6100BF00BFFDE7FEF76BFE23
:10516000EFF311824FF0500383F31188BFF36F8F79
:10517000BFF34F8F3A61FB603B697B62BB6A9B6BFD
:10518000002B0CD0BB6ADB683B623968B86A00F060
:1051900014F9BB6A3A6ADA600123FB6201E000237A
:1051A000FB627B6ABB60BB6883F3118800BFFB6A4C
:1051B00018463037BD4680BD80B584B000AF7860FA
:1051C0007B68002B0BD14FF0500383F31188BFF3A2
:1051D0006F8FBFF34F8FBB6000BF00BFFDE7FEF7CF
:1051E00055FD7B689B6BFB60FEF780FDFB681846F6
:1051F0001037BD4680BD80B586B000AF78607B6853
:105200007B617B69002B0BD14FF0500383F3118836
:10521000BFF36F8FBFF34F8FFB6000BF00BFFDE791
:10522000FEF734FD7B69DA6B7B699B6BD31A3B61BC
:10523000FEF75CFD3B6918461837BD4680BD80B45B
:1052400087B000AF78607B687B617B69002B0BD1F6
:105250004FF0500383F31188BFF36F8FBFF34F8F6D
:10526000FB6000BF00BFFDE77B699B6B3B613B6957
:1052700018461C37BD4680BC704780B584B000AF6F
:1052800078607B68FB60FB68002B0BD14FF050030C
:1052900083F31188BFF36F8FBFF34F8FBB6000BFE5
:1052A00000BFFDE7F86800F007FAF868FEF7F2F9CA
:1052B00000BF1037BD4680BD80B485B000AF7860B8
:1052C0007B685B6A002B06D07B681B6B1B68C3F195
:1052D0002003FB6001E00023FB60FB6818461437E5
:1052E000BD4680BC704780B586B000AFF860B9603D
:1052F0007A6000237B61FB689B6B3B61FB681B6CE6
:10530000002B0DD1FB681B68002B4DD1FB689B68FF
:105310001846FCF795FD7861FB6800229A6043E02F
:105320007B68002B19D1FB685868FB681B6C1A4618
:10533000B9680BF0AFFAFB685A68FB681B6C1A443B
:10534000FB685A60FB685A68FB689B689A422BD3DB
:10535000FB681A68FB685A6026E0FB68D868FB683F
:105360001B6C1A46B9680BF095FAFB68DA68FB68A3
:105370001B6C5B421A44FB68DA60FB68DA68FB6806
:105380001B689A4207D2FB689A68FB681B6C5B42F9
:105390001A44FB68DA607B68022B05D13B69002B5D
:1053A00002D03B69013B3B613B695A1CFB689A6335
:1053B0007B6918461837BD4680BD80B582B000AF06
:1053C000786039607B681B6C002B18D07B68DA68CA
:1053D0007B681B6C1A447B68DA607B68DA687B68E0
:1053E0009B689A4203D37B681A687B68DA607B68A3
:1053F000D9687B681B6C1A4638680BF04BFA00BF03
:105400000837BD4680BD80B584B000AF7860FEF738
:105410003DFC7B6893F84530FB731EE07B689B6C1A
:10542000002B08D0786800F02CFA0346002B10D02F
:10543000FCF726FB0DE07B685B6A002B12D07B68D3
:1054400024331846FCF7DEF80346002B01D0FCF7A6
:1054500017FBFB7B013BDBB2FB7397F90F30002B93
:10546000DCDC00E000BF7B68FF2283F84520FEF70C
:105470003DFCFEF70BFC7B6893F84430BB7311E0F6
:105480007B681B69002B12D07B6810331846FCF731
:10549000B9F80346002B01D0FCF7F2FABB7B013BC5
:1054A000DBB2BB7397F90E30002BE9DC00E000BFE4
:1054B0007B68FF2283F84420FEF718FC00BF1037FA
:1054C000BD4680BD80B584B000AF7860FEF7DEFBDE
:1054D0007B689B6B002B02D10123FB6001E0002362
:1054E000FB60FEF703FCFB6818461037BD4680BD25
:1054F00080B487B000AF78607B683B613B69002B6C
:105500000BD14FF0500383F31188BFF36F8FBFF3BC
:105510004F8FFB6000BF00BFFDE73B699B6B002B1B
:1055200002D101237B6101E000237B617B69184686
:105530001C37BD4680BC704780B584B000AF786032
:10554000FEF7A4FB7B689A6B7B68DB6B9A4202D107
:105550000123FB6001E00023FB60FEF7C7FBFB6853
:1055600018461037BD4680BD80B487B000AF786064
:105570007B683B613B69002B0BD14FF0500383F3F9
:105580001188BFF36F8FBFF34F8FFB6000BF00BF69
:10559000FDE73B699A6B3B69DB6B9A4202D10123C1
:1055A0007B6101E000237B617B6918461C37BD46A7
:1055B00080BC704780B487B000AF7860396000234A
:1055C0003B617B68002B0BD14FF0500383F31188B4
:1055D000BFF36F8FBFF34F8FFB6000BF00BFFDE7CE
:1055E0003B68002B24D000237B611EE0174A7B69B7
:1055F000DB0013445B687A689A4205D17B69DB0063
:10560000124A13443B6113E03B69002B0AD10F4A55
:105610007B6952F83330002B04D17B69DB000B4AE5
:1056200013443B617B6901337B617B69072BDDD9C7
:105630003B69002B05D03B693A681A603B697A6880
:105640005A6000BF1C37BD4680BC7047AC3F00208D
:1056500080B487B000AF786000233B617B68002B8B
:105660000BD14FF0500383F31188BFF36F8FBFF35B
:105670004F8FFB6000BF00BFFDE700237B6110E0A0
:105680000C4A7B69DB0013445B687A689A4205D157
:10569000084A7B6952F833303B6105E07B6901338E
:1056A0007B617B69072BEBD93B6918461C37BD46EC
:1056B00080BC7047AC3F002080B485B000AF7860FC
:1056C0007B68002B0BD14FF0500383F31188BFF39D
:1056D0006F8FBFF34F8FBB6000BF00BFFDE700239C
:1056E000FB6016E00F4AFB68DB0013445B687A68D6
:1056F0009A420BD10B4AFB68002142F83310094A49
:10570000FB68DB00134400225A6006E0FB680133AB
:10571000FB60FB68072BE5D900BF00BF1437BD460F
:1057200080BC7047AC3F002080B586B000AFF86009
:10573000B9607A60FB687B61FEF7A8FA7B6993F831
:1057400044305BB2B3F1FF3F03D17B69002283F8A1
:1057500044207B6993F845305BB2B3F1FF3F03D13E
:105760007B69002283F84520FEF7C0FA7B699B6BBA
:10577000002B06D17B6924337A68B9681846FBF799
:10578000FBFE7869FFF73FFE00BF1837BD4680BDBE
:1057900080B584B000AF7860002204217868FEF7FD
:1057A0005DFDF860FB6818461037BD4680BD80B5CA
:1057B00084B000AF78603960FEF768FA7B689B6C54
:1057C000002B02D00023FB600BE07B689B6B002B5F
:1057D00002D00023FB6004E07B683A689A640123EE
:1057E000FB60FEF783FAFB6818461037BD4680BDA4
:1057F00080B584B000AF786039607B68BB60BB68FF
:105800009B6C3A689A4202D00023FB600FE0BB68B1
:105810009B6B002B02D00023FB6008E0FEF736FAFA
:10582000BB6800229A64FEF761FA0123FB60FB6803
:1058300018461037BD4680BD80B584B000AF786093
:1058400039600023FB6007F10C033A681946786859
:10585000FFF7E6F8FB6818461037BD4680BD80B5F7
:1058600084B000AF78600023FB6007F10C030022D6
:1058700019467868FFF79AFBFB6818461037BD4653
:1058800080BD80B58AB000AF78607B689B6C3B625E
:1058900000237B623B6A002B0BD14FF0500383F354
:1058A0001188BFF36F8FBFF34F8F7B6100BF00BFC5
:1058B000FDE73B6A9A6B3B6ADB6B9A420BD34FF076
:1058C000500383F31188BFF36F8FBFF34F8F3B619A
:1058D00000BF00BFFDE73B6A9A6B3B6ADB6B9A42F5
:1058E0003DD23B6A93F84530FB773B1D00221946B9
:1058F000386AFFF7F8FC786297F91F30B3F1FF3F81
:105900000ED13B6A5B6A002B29D03B6A24331846D0
:10591000FBF778FE0346002B21D001237B621EE0BB
:10592000FBF7D4FBB86197F91F30BA699A4216D9D0
:1059300097F91F307F2B0BD14FF0500383F3118861
:10594000BFF36F8FBFF34F8FFB6000BF00BFFDE75A
:10595000FB7F0133DBB25AB23B6A83F845207B6A96
:1059600018462837BD4680BD80B500AF0E4B1B687A
:105970000D4A43F4007313600B4B1B680A4A43F44F
:1059800080631360084B1B68074A43F480731360FD
:10599000032000F0A1FB0F2000F042F800F034F8E3
:1059A0000023184680BD00BF003C024080B500AF18
:1059B000114B124A1A62104B00221A620E4B104A07
:1059C0005A620D4B00225A620B4B0E4A1A610A4B67
:1059D00000221A61084BC1225A61074B00225A610A
:1059E000054B01229A61044B00229A6100F012F8E3
:1059F0000023184680BD00BF00380240FFC9FEF6F4
:105A000033797704FF11602280B400AF00BFBD4638
:105A100080BC704780B400AF00BFBD4680BC7047FB
:105A200080B582B000AF7860124B1A68124B1B78B9
:105A300019464FF47A73B3FBF1F3B2FBF3F3184654
:105A400000F091FB0346002B01D001230EE07B68A0
:105A50000F2B0AD8002279684FF0FF3000F047FB87
:105A6000064A7B681360002300E0012318460837CC
:105A7000BD4680BD040000200C000020080000206E
:105A800080B400AF054B1B781A46054B1B681344C6
:105A9000034A136000BFBD4680BC70470C00002065
:105AA000EC3F002080B400AF024B1B681846BD4697
:105AB00080BC7047EC3F002080B400AF024B1B68F5
:105AC0001846BD4680BC70470800002080B584B0F1
:105AD00000AF0346FB710023FB730E4B1B78FA7972
