:020000040800F2
:100000000000022071660108496501084B6501087E
:100010004D6501084F6501085165010800000000A9
:10002000000000000000000000000000C1660108A0
:100030005365010800000000C1660108556501080C
:10004000C1660108C1660108C1660108C1660108F0
:10005000C1660108C1660108C1660108C1660108E0
:10006000C1660108C1660108C1660108C1660108D0
:10007000C1660108C1660108C1660108C1660108C0
:10008000C1660108C1660108C16601086D65010805
:100090007D6501088D6501089D650108C16601083F
:1000A000C1660108C1660108C1660108C166010890
:1000B000C1660108C1660108C1660108C166010880
:1000C000C1660108C1660108C1660108C166010870
:1000D000C1660108C1660108C1660108C166010860
:1000E000C1660108C1660108C1660108C166010850
:1000F000C1660108C1660108C1660108C166010840
:10010000C1660108C1660108C1660108C16601082F
:10011000C1660108C1660108C16601085D65010884
:10012000C1660108C1660108C1660108C16601080F
:10013000C1660108C1660108C1660108C1660108FF
:10014000C1660108C1660108C1660108C1660108EF
:10015000C1660108C1660108C1660108C1660108DF
:10016000C1660108C1660108C1660108C1660108CF
:10017000C1660108C1660108C166010800000000EF
:08018000C1660108C166010817
:100190000348044B834202D0034B03B11847704716
:1001A0004804002048040020000000000548064BD9
:1001B0001B1AD90F01EBA301491002D0034B03B165
:1001C0001847704748040020480400200000000041
:1001D00010B5064C237843B9FFF7DAFF044B13B18F
:1001E0000448AFF300800123237010BD48040020B1
:1001F000000000009876010808B5044B1BB10449C3
:100200000448AFF30080BDE80840CFE700000000DD
:100210004C0400209876010880B400AF054BD3F859
:100220008830044A43F47003C2F8883000BFBD46EA
:1002300080BC704700ED00E080B487B000AF0023C1
:100240003B6100237B610223FB600023BB60022330
:100250007B60344B9B6803F00C033B613B69082BCC
:1002600011D03B69082B44D83B69002B03D03B6974
:10027000042B04D03DE02C4B2C4A1A603DE02A4B65
:100280002B4A1A6039E0274B5B689B0D03F0010392
:10029000BB60244B5B6803F03F037B60BB68002BB3
:1002A0000CD0234A7B68B2FBF3F31E4A52689209D2
:1002B000C2F3080202FB03F37B610BE01B4A7B687D
:1002C000B2FBF3F3174A52689209C2F3080202FB29
:1002D00003F37B61134B5B681B0C03F003030133D7
:1002E0005B00FB607A69FB68B2FBF3F30E4A1360B4
:1002F00003E00D4B0D4A1A6000BF0A4B9B681B09B7
:1003000003F00F030B4AD35C3B61074B1A683B6950
:1003100022FA03F3044A136000BF1C37BD4680BCB9
:10032000704700BF00380240000000200024F400A5
:1003300000127A00B076010880B500AF0E4B1B6842
:100340000D4A43F4007313600B4B1B680A4A43F4D5
:1003500080631360084B1B68074A43F48073136083
:10036000032001F071FC0F2000F042F800F034F897
:100370000023184680BD00BF003C024080B500AF9E
:10038000114B124A1A62104B00221A620E4B104A8D
:100390005A620D4B00225A620B4B0E4A1A610A4BED
:1003A00000221A61084BC1225A61074B00225A6190
:1003B000054B01229A61044B00229A6100F012F869
:1003C0000023184680BD00BF00380240FFC9FEF67A
:1003D00033797704FF11602280B400AF00BFBD46BF
:1003E00080BC704780B400AF00BFBD4680BC704782
:1003F00080B582B000AF7860124B1A68124B1B7840
:1004000019464FF47A73B3FBF1F3B2FBF3F31846DA
:1004100001F061FC0346002B01D001230EE07B6854
:100420000F2B0AD8002279684FF0FF3001F017FC3B
:10043000064A7B681360002300E001231846083752
:10044000BD4680BD00000020080000200400002000
:1004500080B400AF054B1B781A46054B1B6813444C
:10046000034A136000BFBD4680BC704708000020EF
:100470006404002080B400AF024B1B681846BD46E0
:1004800080BC70476404002080B400AF024B1B683E
:100490001846BD4680BC70470400002080B584B07B
:1004A00000AF0346FB710023FB730E4B1B78FA79F8
:1004B0009A4212D00B4B1B78BB730A4AFB7913701C
:1004C000094B1B681846FFF793FF0346FB73FB7B42
:1004D000002B02D0034ABB7B1370FB7B18461037FE
:1004E000BD4680BD080000200400002080B400AF9D
:1004F000024B1B781846BD4680BC704708000020A0
:1005000080B584B000AF7860FFF7B4FFB8607B6857
:10051000FB60FB68B3F1FF3F05D00A4B1B781A461E
:10052000FB681344FB6000BFFFF7A4FF0246BB68F3
:10053000D31AFA689A42F7D800BF00BF1037BD46F9
:1005400080BD00BF0800002080B400AF044B1B68D2
:10055000034A23F00203136000BFBD4680BC70470E
:1005600010E000E080B400AF044B1B68034A43F086
:100570000203136000BFBD4680BC704710E000E07E
:1005800080B400AF024B1846BD4680BC704700BF28
:100590000002080180B400AF034B1B681B0C184617
:1005A000BD4680BC704700BF002004E080B400AFAF
:1005B000034B1B68C3F30B031846BD4680BC704752
:1005C000002004E080B400AF044B5B68034A43F0B2
:1005D0000103536000BFBD4680BC7047002004E0AB
:1005E00080B400AF044B5B68034A23F001035360FF
:1005F00000BFBD4680BC7047002004E080B400AF5F
:10060000044B5B68034A43F00203536000BFBD46DE
:1006100080BC7047002004E080B400AF044B5B68EE
:10062000034A23F00203536000BFBD4680BC7047FD
:10063000002004E080B400AF044B5B68034A43F041
:100640000403536000BFBD4680BC7047002004E037
:1006500080B400AF044B5B68034A23F0040353608B
:1006600000BFBD4680BC7047002004E080B400AFEE
:10067000034B01221A6000BFBD4680BC704700BF1B
:100680000004274280B400AF034B00221A6000BF71
:10069000BD4680BC704700BF0004274280B400AF55
:1006A000024B1B681846BD4680BC7047107AFF1F7E
:1006B00080B400AF024B1B681846BD4680BC704733
:1006C000147AFF1F80B400AF024B1B681846BD466A
:1006D00080BC7047187AFF1F80B584B000AF786087
:1006E0007B68002B01D10123EDE07B6893F820307B
:1006F000DBB2002B02D1786815F0CEFE7B681B6858
:100700001A687B681B6842F001021A60FFF7B2FEAC
:10071000F86012E0FFF7AEFE0246FB68D31A0A2B20
:100720000BD97B685B6A43F400327B685A627B6852
:10073000052283F820200123C5E07B681B685B68E5
:1007400003F00103002BE5D07B681B681A687B6807
:100750001B6822F002021A60FFF78CFEF86012E0BC
:10076000FFF788FE0246FB68D31A0A2B0BD97B6879
:100770005B6A43F400327B685A627B68052283F827
:10078000202001239FE07B681B685B6803F0020365
:10079000002BE5D17B681B7E012B08D17B681B6891
:1007A0001A687B681B6842F080021A6007E07B6869
:1007B0001B681A687B681B6822F080021A607B68DD
:1007C0005B7E012B08D17B681B681A687B681B68FD
:1007D00042F040021A6007E07B681B681A687B6879
:1007E0001B6822F040021A607B689B7E012B08D1B7
:1007F0007B681B681A687B681B6842F020021A60DD
:1008000007E07B681B681A687B681B6822F020027F
:100810001A607B68DB7E012B08D17B681B681A6835
:100820007B681B6822F010021A6007E07B681B6877
:100830001A687B681B6842F010021A607B681B7F95
:10084000012B08D17B681B681A687B681B6842F023
:1008500008021A6007E07B681B681A687B681B68DF
:1008600022F008021A607B685B7F012B08D17B684D
:100870001B681A687B681B6842F004021A6007E074
:100880007B681B681A687B681B6822F004021A6088
:100890007B689A687B68DB681A437B681B691A432C
:1008A0007B685B6942EA03017B685B685A1E7B6870
:1008B0001B680A43DA617B6800225A627B68012266
:1008C00083F82020002318461037BD4680BD80B530
:1008D00082B000AF78607B68002B01D1012315E066
:1008E000786800F04DF9786800F01DF87B681B68A7
:1008F0001A687B681B6842F400421A607B68002219
:100900005A627B68002283F82020002318460837AB
:10091000BD4680BD80B483B000AF786000BF0C37A7
:10092000BD4680BC704780B483B000AF786000BF24
:100930000C37BD4680BC704780B487B000AF78608C
:1009400039607B681B687B617B6893F82030FB749F
:10095000FB7C012B03D0FB7C022B40F0BE80654B5F
:100960007B617B69D3F8003243F001027B69C3F8F5
:1009700000227B69D3F8003223F47C527B69C3F8F0
:1009800000227B69D3F800223B685B6A1B021A4392
:100990007B69C3F800223B685B6903F01F030122F7
:1009A00002FA03F3FB607B69D3F81C22FB68DB438C
:1009B0001A407B69C3F81C223B68DB69002B23D1FA
:1009C0007B69D3F80C22FB68DB431A407B69C3F8D0
:1009D0000C223B68DB6819043B685B689BB23A6891
:1009E000526919437B69483243F832103B689B686F
:1009F00019043B681B689AB23B685B690A437969D2
:100A00004833DB000B445A603B68DB69012B22D181
:100A10007B69D3F80C22FB681A437B69C3F80C226C
:100A20003B681B6819043B685B689BB23A68526973
:100A300019437B69483243F832103B689B681904BC
:100A40003B68DB689AB23B685B690A437969483363
:100A5000DB000B445A603B689B69002B09D17B6922
:100A6000D3F80422FB68DB431A407B69C3F80422F5
:100A700007E07B69D3F80422FB681A437B69C3F85B
:100A800004223B681B69002B09D17B69D3F814222F
:100A9000FB68DB431A407B69C3F8142207E07B69DB
:100AA000D3F81422FB681A437B69C3F814223B680D
:100AB0001B6A012B07D17B69D3F81C22FB681A4300
:100AC0007B69C3F81C227B69D3F8003223F0010252
:100AD0007B69C3F80022002306E07B685B6A43F46D
:100AE00080227B685A62012318461C37BD4680BCB1
:100AF000704700BF0064004080B584B000AF7860EC
:100B00007B6893F82030DBB2012B2ED17B68022268
:100B100083F820207B681B681A687B681B6822F0BA
:100B200001021A60FFF7A6FCF86012E0FFF7A2FCD2
:100B30000246FB68D31A0A2B0BD97B685B6A43F425
:100B400000327B685A627B68052283F820200123EB
:100B500012E07B681B685B6803F00103002BE5D1A2
:100B60007B6800225A62002306E07B685B6A43F4DC
:100B700000227B685A62012318461037BD4680BDAB
:100B800080B584B000AF78607B6893F82030DBB22A
:100B9000022B33D17B681B681A687B681B6842F0A4
:100BA00001021A60FFF766FCF86012E0FFF762FCD2
:100BB0000246FB68D31A0A2B0BD97B685B6A43F4A5
:100BC00000327B685A627B68052283F8202001236B
:100BD0001BE07B681B685B6803F00103002BE5D01A
:100BE0007B681B681A687B681B6822F002021A6027
:100BF0007B68012283F82020002306E07B685B6A83
:100C000043F480127B685A62012318461037BD46B0
:100C100080BD80B485B000AF78607B6893F82030E9
:100C2000FB73FB7B012B02D0FB7B022B09D17B6882
:100C30001B681A687B681B6842F002021A60002376
:100C400006E07B685B6A43F480227B685A6201237A
:100C500018461437BD4680BC704780B485B000AFDD
:100C600078600023BB607B6893F82030FB73FB7BCC
:100C7000012B02D0FB7B022B1FD17B681B681A68FB
:100C80007B681B6822F002021A60BB680133BB60FC
:100C9000BB68104A934207D97B685B6A43F4003211
:100CA0007B685A6201230FE07B681B685B6803F076
:100CB0000203002BE9D1002306E07B685B6A43F462
:100CC00080227B685A62012318461437BD4680BCD7
:100CD000704700BF40420F0080B485B000AF78601D
:100CE0000023FB607B6893F82030FB72FB7A012BBA
:100CF00002D0FB7A022B08D17B681B685B6803F08B
:100D00000203002B01D00123FB60FB681846143757
:100D1000BD4680BC704780B489B000AFF860B96050
:100D20007A603B60FB6893F82030FB77FB681B68B8
:100D30009B68BB61FB7F012B03D0FB7F022B40F044
:100D4000AD80BB6903F08063002B0AD1BB6903F05F
:100D50000063002B05D1BB6903F08053002B00F02A
:100D60009580BB691B0E03F003037B6101227B6945
:100D70009A403B681A60BB689B68002B0DD1BB682A
:100D80001B685A05BB68DB68F96809681A437B6908
:100D900018331B010B441A600FE0BB685B68DA0074
:100DA000BB689B681A43BB68DB68F96809681A432B
:100DB0007B6918331B010B441A60FB681968BB6818
:100DC0001A697B6918331B010B4404331A60BB6832
:100DD0001B7D012B11D1FB681A687B6918331B013D
:100DE000134404331B68FA68116843F480727B690A
:100DF00018331B010B4404331A607B6807331B78DC
:100E00001A067B6806331B781B041A437B6805337C
:100E10001B781B0213437A68043212781046FA6872
:100E2000116843EA00027B691B010B4403F5C6739A
:100E30001A607B6803331B781A067B6802331B78C1
:100E40001B041A437B6801331B781B0213437A6827
:100E500012781046FA68116843EA00027B691B01A8
:100E60000B4403F5C4731A60FB681A687B69183376
:100E70001B0113441B68FA68116843F001027B6987
:100E800018331B010B441A6000230EE0FB685B6AF9
:100E900043F40012FB685A62012306E0FB685B6AB8
:100EA00043F48022FB685A62012318462437BD466A
:100EB00080BC704780B485B000AF786039607B68D3
:100EC00093F82030FB73FB7B012B02D0FB7B022BC2
:100ED00028D13B6803F00103002B07D07B681B6817
:100EE0009A687B681B6842F080029A603B6803F056
:100EF0000203002B07D07B681B689A687B681B681D
:100F000042F400429A603B6803F00403002B07D0D0
:100F10007B681B689A687B681B6842F400029A60D1
:100F2000002306E07B685B6A43F480227B685A6298
:100F3000012318461437BD4680BC704780B485B085
:100F400000AF78600023FB607B6893F82030FB7271
:100F5000FB7A012B02D0FB7A022B1DD17B681B6828
:100F60009B6803F08063002B02D0FB680133FB60B9
:100F70007B681B689B6803F00063002B02D0FB6852
:100F80000133FB607B681B689B6803F08053002B78
:100F900002D0FB680133FB60FB6818461437BD467E
:100FA00080BC704780B485B000AF786039600023A2
:100FB000FB607B6893F82030FB72FB7A012B02D038
:100FC000FB7A022B0BD17B681B689A683B689B06F7
:100FD0001A403B689B069A4201D00123FB60FB68E4
:100FE00018461437BD4680BC704780B489B000AF46
:100FF000786039600023FB617B6893F82030FB76D2
:10100000FB7E012B02D0FB7E022B1CD13B68FB60D8
:10101000FB6893FAA3F3BB60BB683B613B69002BA1
:1010200001D1202303E03B69B3FA83F3DBB27B6198
:101030007B681A687B6918331B01134404331B68EF
:101040001B0C9BB2FB61FB6918462437BD4680BC74
:10105000704780B487B000AFF860B9607A603B60D9
:10106000FB6893F82030FB75FB7D012B03D0FB7DE3
:10107000022B40F00381BB68002B0ED1FB681B687C
:10108000DB6803F00303002B16D1FB685B6A43F4B3
:101090000012FB685A620123F7E0FB681B681B69BA
:1010A00003F00303002B07D1FB685B6A43F40012D3
:1010B000FB685A620123E8E0FB681A68BB681B33CF
:1010C0001B0113441B6803F004027B689A607B6871
:1010D0009B68002B0CD1FB681A68BB681B331B0193
:1010E00013441B685B0DC3F30A027B681A600BE0B4
:1010F000FB681A68BB681B331B0113441B68DB08C1
:1011000023F060427B685A60FB681A68BB681B3337
:101110001B0113441B6803F002027B68DA60FB6862
:101120001A68BB681B331B01134404331B6803F0AC
:101130000803002B03D07B6808221A610BE0FB68D0
:101140001A68BB681B331B01134404331B6803F08C
:101150000F027B681A61FB681A68BB681B331B01AE
:10116000134404331B681B0ADAB27B689A61FB687C
:101170001A68BB681B331B01134404331B681B0C28
:101180009AB27B685A61FB681A68BB681B011344FA
:1011900003F5DC731B68DAB23B681A70FB681A68E7
:1011A000BB681B01134403F5DC731B681A0A3B6818
:1011B0000133D2B21A70FB681A68BB681B01134472
:1011C00003F5DC731B681A0C3B680233D2B21A7049
:1011D000FB681A68BB681B01134403F5DC731B68CA
:1011E0001A0E3B680333D2B21A70FB681A68BB68E8
:1011F0001B01134403F5DE731A683B680433D2B253
:101200001A70FB681A68BB681B01134403F5DE7390
:101210001B681A0A3B680533D2B21A70FB681A6859
:10122000BB681B01134403F5DE731B681A0C3B6893
:101230000633D2B21A70FB681A68BB681B011344EC
:1012400003F5DE731B681A0E3B680733D2B21A70BF
:10125000BB68002B08D1FB681B68DA68FB681B6859
:1012600042F02002DA6007E0FB681B681A69FB683D
:101270001B6842F020021A61002306E0FB685B6AEB
:1012800043F48022FB685A62012318461C37BD468E
:1012900080BC704780B485B000AF786039600023AF
:1012A000FB607B6893F82030FB72FB7A012B02D045
:1012B000FB7A022B0FD13B68002B06D17B681B68A1
:1012C000DB6803F00303FB6005E07B681B681B69B8
:1012D00003F00303FB60FB6818461437BD4680BC6F
:1012E000704780B485B000AF786039607B6893F850
:1012F0002030FB73FB7B012B02D0FB7B022B09D13F
:101300007B681B6859697B681B683A680A435A61A5
:10131000002306E07B685B6A43F480227B685A62A4
:10132000012318461437BD4680BC704780B485B091
:1013300000AF786039607B6893F82030FB73FB7BEB
:10134000012B02D0FB7B022B0AD17B681B685969F9
:101350003B68DA437B681B680A405A61002306E059
:101360007B685B6A43F480227B685A6201231846DB
:101370001437BD4680BC704780B58AB000AF786036
:1013800000237B627B681B685B693B627B681B6830
:101390005B68FB617B681B689B68BB617B681B6843
:1013A000DB687B617B681B681B693B617B681B6832
:1013B0009B69FB603B6A03F00103002B7CD0BB6997
:1013C00003F00103002B23D07B681B6801229A6085
:1013D000BB6903F00203002B03D078680EF034F9E8
:1013E00016E0BB6903F00403002B04D07B6A43F4CE
:1013F00000637B620CE0BB6903F00803002B04D0A0
:101400007B6A43F480537B6202E0786800F086F9DF
:10141000BB6903F48073002B24D07B681B684FF4F6
:1014200080729A60BB6903F40073002B03D0786864
:101430000EF01AF916E0BB6903F48063002B04D0A8
:101440007B6A43F400537B620CE0BB6903F40063E6
:10145000002B04D07B6A43F480437B6202E078680F
:1014600000F065F9BB6903F48033002B24D07B685E
:101470001B684FF480329A60BB6903F40033002B81
:1014800003D078680EF000F916E0BB6903F48023FE
:10149000002B04D07B6A43F400437B620CE0BB6901
:1014A00003F40023002B04D07B6A43F480337B6277
:1014B00002E0786800F044F93B6A03F00803002B6F
:1014C0000CD07B6903F01003002B07D07B6A43F438
:1014D00000737B627B681B681022DA603B6A03F052
:1014E0000403002B0BD07B6903F00803002B06D00C
:1014F0007B681B680822DA60786800F033F93B6A81
:1015000003F00203002B09D07B681B68DB6803F043
:101510000303002B02D078680EF02EF83B6A03F02C
:101520004003002B0CD03B6903F01003002B07D0C5
:101530007B6A43F480637B627B681B6810221A61BC
:101540003B6A03F02003002B0BD03B6903F0080338
:10155000002B06D07B681B6808221A61786800F0AF
:1015600013F93B6A03F01003002B09D07B681B685A
:101570001B6903F00303002B02D078680EF009F812
:101580003B6A03F40033002B0BD0FB6903F010031C
:10159000002B06D07B681B6810225A60786800F028
:1015A000FCF83B6A03F48033002B0BD0FB6903F09B
:1015B0000803002B06D07B681B6808225A607868F5
:1015C00000F0F4F83B6A03F40043002B7BD0FB6986
:1015D00003F00403002B72D03B6A03F48073002BEA
:1015E00008D0FB6803F00103002B03D07B6A43F0B3
:1015F00001037B623B6A03F40073002B08D0FB6895
:1016000003F00203002B03D07B6A43F002037B62EA
:101610003B6A03F48063002B08D0FB6803F00403EB
:10162000002B03D07B6A43F004037B623B6A03F424
:101630000063002B43D0FB6803F07003002B3ED007
:10164000FB6803F07003602B2BD0602B2ED8502B3F
:1016500022D0502B2AD8402B19D0402B26D8302B03
:1016600010D0302B22D8102B02D0202B05D01DE01B
:101670007B6A43F008037B6219E07B6A43F0100346
:101680007B6214E07B6A43F020037B620FE07B6A9D
:1016900043F040037B620AE07B6A43F080037B6295
:1016A00005E07B6A43F480737B6200E000BF7B68E7
:1016B0001B689A697B681B6822F070029A617B68DC
:1016C0001B6804225A607B6A002B08D07B685A6A28
:1016D0007B6A1A437B685A62786800F070F800BF32
:1016E0002837BD4680BD80B483B000AF786000BFAE
:1016F0000C37BD4680BC704780B483B000AF7860C3
:1017000000BF0C37BD4680BC704780B483B000AFCB
:10171000786000BF0C37BD4680BC704780B483B092
:1017200000AF786000BF0C37BD4680BC704780B406
:1017300083B000AF786000BF0C37BD4680BC7047F7
:1017400080B483B000AF786000BF0C37BD4680BC6A
:10175000704780B483B000AF786000BF0C37BD46DF
:1017600080BC704780B483B000AF786000BF0C3796
:10177000BD4680BC704780B483B000AF786000BFC6
:101780000C37BD4680BC704780B483B000AF786032
:1017900000BF0C37BD4680BC704780B483B000AF3B
:1017A000786000BF0C37BD4680BC704780B483B002
:1017B00000AF786000BF0C37BD4680BC704780B476
:1017C00083B000AF786000BF0C37BD4680BC704767
:1017D00080B485B000AF78607B6893F82030FB73ED
:1017E000FB7B012B02D0FB7B022B12D17B681B6899
:1017F0005B6803F00203002B02D00423FB7308E0B4
:101800007B681B681B6803F00203002B01D00323D5
:10181000FB73FB7B18461437BD4680BC704780B411
:1018200083B000AF78607B685B6A18460C37BD46B2
:1018300080BC704780B485B000AF78600023FB7334
:101840007B6893F82030BB73BB7B012B02D0BB7B42
:10185000022B03D17B6800225A6207E07B685B6A37
:1018600043F480227B685A620123FB73FB7B18469A
:101870001437BD4680BC704780B485B000AF786037
:101880007B6803F00703FB600C4BDB68BB60BA6846
:101890004FF6FF031340BB60FB681A02BB6813439B
:1018A00043F0BF6343F40033BB60044ABB68D360BA
:1018B00000BF1437BD4680BC704700BF00ED00E09C
:1018C00080B400AF044BDB681B0A03F00703184623
:1018D000BD4680BC704700BF00ED00E080B483B01F
:1018E00000AF0346FB7197F90730002B0BDBFB7948
:1018F00003F01F02064997F907305B09012000FA3F
:1019000002F241F8232000BF0C37BD4680BC70476F
:1019100000E100E080B483B000AF0346FB7197F9AB
:101920000730002B12DBFB7903F01F020A4997F9FD
:1019300007305B09012000FA02F2203341F823202E
:10194000BFF34F8F00BFBFF36F8F00BF00BF0C37D7
:10195000BD4680BC704700BF00E100E080B483B0AA
:1019600000AF0346FB7197F90730002B0EDB0A4AE4
:1019700097F907305B09403352F82320FB7903F0D5
:101980001F0322FA03F303F0010300E000231846CB
:101990000C37BD4680BC704700E100E080B483B0E6
:1019A00000AF0346FB7197F90730002B0CDBFB7986
:1019B00003F01F02074997F907305B09012000FA7D
:1019C00002F2403341F8232000BF0C37BD4680BCF3
:1019D000704700BF00E100E080B483B000AF034671
:1019E000FB7197F90730002B0CDBFB7903F01F022A
:1019F000074997F907305B09012000FA02F26033CA
:101A000041F8232000BF0C37BD4680BC704700BFA3
:101A100000E100E080B483B000AF0346FB7197F9AA
:101A20000730002B0EDB0A4A97F907305B09803339
:101A300052F82320FB7903F01F0322FA03F303F08B
:101A4000010300E0002318460C37BD4680BC7047F8
:101A500000E100E080B483B000AF03463960FB7161
:101A600097F90730002B0ADB3B68DAB20C4997F98B
:101A700007301201D2B20B4483F800230AE03B681E
:101A8000DAB20849FB7903F00F03043B1201D2B22A
:101A90000B441A7600BF0C37BD4680BC704700BFB0
:101AA00000E100E000ED00E080B483B000AF034649
:101AB000FB7197F90730002B09DB0C4A97F90730C7
:101AC000134493F80033DBB21B09DBB209E0084A88
:101AD000FB7903F00F03043B13441B7EDBB21B09AD
:101AE000DBB218460C37BD4680BC704700E100E011
:101AF00000ED00E080B489B000AFF860B9607A60B2
:101B0000FB6803F007037B617B69033B042B04D86C
:101B10007B69C3F10703FB6101E00423FB617B697F
:101B20000433062B03D97B69033BBB6101E000232F
:101B3000BB614FF0FF32FB6902FA03F3DA43BB6883
:101B40001A40BB699A404FF0FF31BB6901FA03F3B9
:101B5000D9437B680B40134318462437BD4680BCED
:101B6000704780B489B000AFF860B9607A603B60BC
:101B7000BB6803F007037B617B69033B042B04D83C
:101B80007B69C3F10703FB6101E00423FB617B690F
:101B90000433062B03D97B69033BBB6101E00023BF
:101BA000BB61FA68BB69DA404FF0FF31FB6901FAAB
:101BB00003F3DB431A407B681A604FF0FF32BB69C6
:101BC00002FA03F3DA43FB681A403B681A6000BF6D
:101BD0002437BD4680BC704780B400AFBFF34F8F41
:101BE00000BF064BDB6803F4E0620449044B134377
:101BF000CB60BFF34F8F00BF00BFFDE700ED00E0FB
:101C00000400FA0580B582B000AF78607B68013BC4
:101C1000B3F1807F01D301230FE00A4A7B68013BC7
:101C200053600F214FF0FF30FFF714FF054B0022E8
:101C30009A60044B07221A60002318460837BD46F5
:101C400080BD00BF10E000E080B582B000AF7860DA
:101C50007868FFF711FE00BF0837BD4680BD80B52C
:101C600086B000AF0346B9607A60FB7300237B61E6
:101C7000FFF726FE78617A68B9687869FFF73AFF5E
:101C8000024697F90F3011461846FFF7E3FE00BFF2
:101C90001837BD4680BD80B582B000AF0346FB71EA
:101CA00097F907301846FFF719FE00BF0837BD4601
:101CB00080BD80B582B000AF0346FB7197F9073055
:101CC0001846FFF727FE00BF0837BD4680BD80B528
:101CD00000AFFFF781FF80B582B000AF7860786811
:101CE000FFF790FF034618460837BD4680BD80B415
:101CF00000AFBFF35F8F00BF064B5B6A054A23F45A
:101D000080335362044B00225A6000BFBD4680BC42
:101D1000704700BF00ED00E090ED00E080B483B0BC
:101D200000AF78600A4A7B6843F001035360094BB7
:101D30005B6A084A43F480335362BFF34F8F00BF9E
:101D4000BFF36F8F00BF00BF0C37BD4680BC70472C
:101D500090ED00E000ED00E080B483B000AF78606B
:101D60007B685A781D4B9A607B681B78002B29D0C2
:101D70001A4A7B685B68D3607B681B7B1A077B68A9
:101D8000DB7A1B061A437B689B7ADB041A437B6869
:101D90005B7B9B041A437B689B7B5B041A437B68D9
:101DA000DB7B1B041A437B685B7A1B021A437B684C
:101DB0001B7A5B0013437A6812781146074A0B437B
:101DC000136105E0054B0022DA60044B00221A6122
:101DD00000BF0C37BD4680BC704700BF90ED00E0EF
:101DE00080B400AF40BF20BF00BFBD4680BC70477D
:101DF00080B500AFFFF764FD0346184680BD80B58F
:101E000084B000AFB9607A603B600346FB7397F91A
:101E10000F301846FFF748FE3B687A68B968FFF74D
:101E2000A0FE00BF1037BD4680BD80B582B000AFB8
:101E30000346FB7197F907301846FFF7AFFD00BF67
:101E40000837BD4680BD80B582B000AF0346FB7148
:101E500097F907301846FFF781FD03461846083703
:101E6000BD4680BD80B582B000AF0346FB7197F9D7
:101E700007301846FFF7B0FD00BF0837BD4680BDEC
:101E800080B582B000AF0346FB7197F90730184662
:101E9000FFF7C0FD034618460837BD4680BD80B435
:101EA00083B000AF78607B68042B06D1084B1B68B9
:101EB000074A43F00403136005E0054B1B68044A1E
:101EC00023F00403136000BF0C37BD4680BC70478D
:101ED00010E000E080B500AF00F002F800BF80BD68
:101EE00080B400AF00BFBD4680BC704780B489B0ED
:101EF00000AF7860396000237B6100233B610023E1
:101F0000BB610023FB616BE10122FB6902FA03F371
:101F10007B613B681B687A6913403B613A697B6966
:101F20009A4240F05A813B685B6803F00303012B3F
:101F300005D03B685B6803F00303022B30D17B685C
:101F40009B68BB61FB695B00032202FA03F3DB437E
:101F5000BA691340BB613B68DA68FB695B0002FA4F
:101F600003F3BA691343BB617B68BA699A607B6803
:101F70005B68BB610122FB6902FA03F3DB43BA69C8
:101F80001340BB613B685B681B0903F00102FB69FE
:101F900002FA03F3BA691343BB617B68BA695A60FA
:101FA0003B685B6803F00303032B17D07B68DB6897
:101FB000BB61FB695B00032202FA03F3DB43BA69EE
:101FC0001340BB613B689A68FB695B0002FA03F34C
:101FD000BA691343BB617B68BA69DA603B685B68C6
:101FE00003F00303022B23D1FB69DA087B68083274
:101FF00053F82230BB61FB6903F007039B000F22FB
:1020000002FA03F3DB43BA691340BB613B681A6908
:10201000FB6903F007039B0002FA03F3BA69134359
:10202000BB61FB69DA087B680832B96943F82210A2
:102030007B681B68BB61FB695B00032202FA03F348
:10204000DB43BA691340BB613B685B6803F0030282
:10205000FB695B0002FA03F3BA691343BB617B6857
:10206000BA691A603B685B6803F44033002B00F0E8
:10207000B4800023FB605F4B5B6C5E4A43F480439B
:1020800053645C4B5B6C03F48043FB60FB685A4A0F
:10209000FB699B08023352F82330BB61FB6903F0F4
:1020A00003039B000F2202FA03F3DB43BA691340D8
:1020B000BB617B68514A93422BD07B68504A934264
:1020C00025D07B684F4A93421FD07B684E4A93428B
:1020D00019D07B684D4A934213D07B684C4A934297
:1020E0000DD07B684B4A934207D07B684A4A9342A3
:1020F00001D107230EE008230CE006230AE00523A4
:1021000008E0042306E0032304E0022302E00123A5
:1021100000E00023FA6902F0030292009340BA69DA
:102120001343BB613449FB699B080233BA6941F828
:1021300023203A4B9B68BB613B69DB43BA69134080
:10214000BB613B685B6803F48013002B03D0BA6962
:102150003B691343BB61314ABB6993602F4BDB681A
:10216000BB613B69DB43BA691340BB613B685B6899
:1021700003F40013002B03D0BA693B691343BB611E
:10218000264ABB69D360254B5B68BB613B69DB4377
:10219000BA691340BB613B685B6803F40033002BF2
:1021A00003D0BA693B691343BB611C4ABB695360E6
:1021B0001A4B1B68BB613B69DB43BA691340BB61C7
:1021C0003B685B6803F48033002B03D0BA693B693A
:1021D0001343BB61114ABB691360FB690133FB61A7
:1021E000FB690F2B7FF690AE00BF00BF2437BD46C2
:1021F00080BC7047003802400038014000000240B7
:102200000004024000080240000C0240001002409E
:102210000014024000180240001C0240003C014033
:1022200080B487B000AF7860396000233B61002341
:10223000FB600023BB6000237B61CDE001227B6952
:1022400002FA03F33B613A683B691340FB60FA68AA
:102250003B699A4240F0BD80644A7B699B08023327
:1022600052F82330BB607B6903F003039B000F220D
:1022700002FA03F3BA681340BB607B685C4A93427E
:102280002BD07B685B4A934225D07B685A4A9342A5
:102290001FD07B68594A934219D07B68584A9342B1
:1022A00013D07B68574A93420DD07B68564A9342BD
:1022B00007D07B68554A934201D107230EE00823DB
:1022C0000CE006230AE0052308E0042306E00323CC
:1022D00004E0022302E0012300E000237A6902F017
:1022E000030292009340BA689A4232D1484B1A686E
:1022F000FB68DB43464913400B60454B5A68FB685B
:10230000DB43434913404B60414BDA68FB68DB43D6
:102310003F491340CB603E4B9A68FB68DB433C4926
:1023200013408B607B6903F003039B000F2202FACA
:1023300003F3BB602D4A7B699B08023352F82310DC
:10234000BB68DA4329487B699B080A40023340F89E
:1023500023207B681A687B695B00032101FA03F381
:10236000DB431A407B681A607B69DA087B680832B5
:1023700053F822107B6903F007039B000F2202FA37
:1023800003F3DB437A69D20819407B68083243F8CB
:1023900022107B68DA687B695B00032101FA03F392
:1023A000DB431A407B68DA607B685A6801217B69ED
:1023B00001FA03F3DB431A407B685A607B689A6832
:1023C0007B695B00032101FA03F3DB431A407B685E
:1023D0009A607B6901337B617B690F2B7FF62EAF9F
:1023E00000BF00BF1C37BD4680BC704700380140AD
:1023F000000002400004024000080240000C0240BD
:10240000001002400014024000180240001C02406C
:10241000003C014080B485B000AF78600B467B8003
:102420007B681A697B881340002B02D00123FB7361
:1024300001E00023FB73FB7B18461437BD4680BCCC
:10244000704780B483B000AF78600B467B80134642
:102450007B707B78002B03D07A887B689A6103E0DD
:102460007B881A047B689A6100BF0C37BD4680BC2C
:10247000704780B485B000AF78600B467B807B6886
:102480005B69FB607A88FB6813401A04FB68D943D8
:102490007B880B401A437B689A6100BF1437BD46A6
:1024A00080BC704780B485B000AF78600B467B80FD
:1024B0004FF48033FB607A88FB681343FB60FA6853
:1024C0007B68DA617A887B68DA61FA687B68DA614E
:1024D0007B68DB69FB607B68DB6903F48033002B7E
:1024E00001D0002300E0012318461437BD4680BC0C
:1024F000704780B582B000AF0346FB80084B5A6935
:10250000FB881340002B06D0054AFB885361FB88EB
:10251000184600F007F800BF0837BD4680BD00BF71
:10252000003C014080B483B000AF0346FB8000BF95
:102530000C37BD4680BC704780B400AF00231846FE
:10254000BD4680BC704780B586B000AF78607B68C0
:10255000002B01D1012368E27B681B6803F00103B3
:10256000002B75D0884B9B6803F00C03042B0CD018
:10257000854B9B6803F00C03082B12D1824B5B68E0
:1025800003F48003B3F5800F0BD17F4B1B6803F47A
:102590000033002B5BD07B685B68002B57D1012395
:1025A00043E27B685B68B3F5803F06D1764B1B68DE
:1025B000754A43F4803313601DE07B685B68B3F5B4
:1025C000A02F0CD1704B1B686F4A43F4802313601B
:1025D0006D4B1B686C4A43F4803313600BE06A4B0D
:1025E0001B68694A23F480331360674B1B68664A93
:1025F00023F4802313607B685B68002B13D0FDF706
:1026000039FF386108E0FDF735FF02463B69D31A10
:10261000642B01D9032308E25B4B1B6803F40033EE
:10262000002BF0D014E0FDF725FF386108E0FDF73E
:1026300021FF02463B69D31A642B01D90323F4E13D
:10264000514B1B6803F40033002BF0D100E000BFB6
:102650007B681B6803F00203002B63D04A4B9B6826
:1026600003F00C03002B0BD0474B9B6803F00C03CB
:10267000082B1CD1444B5B6803F48003002B16D15C
:10268000414B1B6803F00203002B05D07B68DB681D
:10269000012B01D00123C8E13B4B1B6823F0F8025A
:1026A0007B681B69DB00384913430B603AE07B68A9
:1026B000DB68002B20D0354B01221A60FDF7DAFED3
:1026C000386108E0FDF7D6FE02463B69D31A022BBB
:1026D00001D90323A9E12C4B1B6803F00203002B53
:1026E000F0D0294B1B6823F0F8027B681B69DB00E4
:1026F000254913430B6015E0244B00221A60FDF7B7
:10270000B9FE386108E0FDF7B5FE02463B69D31A11
:10271000022B01D9032388E11B4B1B6803F0020342
:10272000002BF0D17B681B6803F00803002B37D027
:102730007B685B69002B16D0154B01221A60FDF7F0
:1027400099FE386108E0FDF795FE02463B69D31A11
:10275000022B01D9032368E10B4B5B6F03F00203EB
:10276000002BF0D01CE00A4B00221A60FDF782FE1D
:1027700038610FE0FDF77EFE02463B69D31A022B5B
:1027800008D9032351E100BF00380240000047424E
:10279000800E4742884B5B6F03F00203002BE9D1A8
:1027A0007B681B6803F00403002B00F09780002374
:1027B000FB75814B1B6C03F08053002B0FD1002362
:1027C000BB607D4B1B6C7C4A43F0805313647A4B97
:1027D0001B6C03F08053BB60BB680123FB75774B18
:1027E0001B6803F48073002B18D1744B1B68734A69
:1027F00043F480731360FDF73DFE386108E0FDF798
:1028000039FE02463B69D31A022B01D903230CE19E
:102810006A4B1B6803F48073002BF0D07B689B68C5
:10282000012B06D1644B1B6F634A43F0010313670E
:102830001CE07B689B68052B0CD15F4B1B6F5E4ACD
:1028400043F0040313675C4B1B6F5B4A43F00103C7
:1028500013670BE0584B1B6F574A23F001031367B4
:10286000554B1B6F544A23F0040313677B689B6826
:10287000002B15D0FDF7FEFD38610AE0FDF7FAFDEB
:1028800002463B69D31A41F28832934201D90323AD
:10289000CBE0494B1B6F03F00203002BEED014E09A
:1028A000FDF7E8FD38610AE0FDF7E4FD02463B690B
:1028B000D31A41F28832934201D90323B5E03E4B4B
:1028C0001B6F03F00203002BEED1FB7D012B05D122
:1028D000394B1B6C384A23F0805313647B689B6927
:1028E000002B00F0A180344B9B6803F00C03082BF5
:1028F0005CD07B689B69022B41D1314B00221A606E
:10290000FDF7B8FD386108E0FDF7B4FD02463B690C
:10291000D31A022B01D9032387E0274B1B6803F04E
:102920000073002BF0D17B68DA697B681B6A1A435D
:102930007B685B6A9B011A437B689B6A5B08013B6F
:102940001B041A437B68DB6A1B061B4913434B605D
:102950001B4B01221A60FDF78DFD386108E0FDF781
:1029600089FD02463B69D31A022B01D903235CE09F
:10297000114B1B6803F00073002BF0D054E0104B98
:1029800000221A60FDF776FD386108E0FDF772FD60
:1029900002463B69D31A022B01D9032345E0064BBB
:1029A0001B6803F00073002BF0D13DE07B689B694E
:1029B000012B07D1012338E00038024000700040AD
:1029C000600047421B4B5B68FB607B689B69012B87
:1029D00028D0FB6803F480027B68DB699A4221D12E
:1029E000FB6803F03F027B681B6A9A421AD1FA68BF
:1029F00047F6C07313407A68526A9201934211D12C
:102A0000FB6803F440327B689B6A5B08013B1B0454
:102A10009A4207D1FB6803F070627B68DB6A1B0691
:102A20009A4201D0012300E0002318461837BD4622
:102A300080BD00BF0038024080B584B000AF786030
:102A400039607B68002B01D10123CCE0684B1B6807
:102A500003F007033A689A420CD9654B3A68D2B240
:102A60001A70634B1B6803F007033A689A4201D05F
:102A70000123B8E07B681B6803F00203002B20D021
:102A80007B681B6803F00403002B05D0594B9B683F
:102A9000584A43F4E05393607B681B6803F00803D3
:102AA000002B05D0534B9B68524A43F4604393601C
:102AB000504B9B6823F0F0027B689B684D491343A1
:102AC0008B607B681B6803F00103002B44D07B689C
:102AD0005B68012B07D1474B1B6803F40033002BC5
:102AE00019D101237FE07B685B68022B03D07B68F0
:102AF0005B68032B07D13F4B1B6803F00073002B6F
:102B000009D101236FE03B4B1B6803F00203002B4C
:102B100001D1012367E0374B9B6823F003027B68F8
:102B20005B68344913438B60FDF7A4FCF8600AE04E
:102B3000FDF7A0FC0246FB68D31A41F288329342AB
:102B400001D903234FE02B4B9B6803F00C027B68F9
:102B50005B689B009A42EBD1254B1B6803F007038F
:102B60003A689A420CD2224B3A68D2B21A70204B81
:102B70001B6803F007033A689A4201D0012332E050
:102B80007B681B6803F00403002B08D0194B9B687B
:102B900023F4E0527B68DB68164913438B607B6843
:102BA0001B6803F00803002B09D0124B9B6823F429
:102BB00060427B681B69DB000E4913438B6000F0A9
:102BC000A1F802460B4B9B681B0903F00F030A494F
:102BD000CB5C22FA03F3094A1360094B1B681846C1
:102BE000FDF706FC002318461037BD4680BD00BF28
:102BF000003C024000380240B0760108000000208E
:102C00000400002080B58CB000AFF860B9607A6035
:102C1000FB68002B29D10023BB612B4B1B6B2A4A7D
:102C200043F001031363284B1B6B03F00103BB61EB
:102C3000BB694FF48073FB6102233B620323BB62D9
:102C400000237B620023FB6207F11C0319461F4827
:102C5000FFF74CF91C4B9B6823F0EC62B9687B686A
:102C60000B43194913438B6029E000237B61164B0A
:102C70001B6B154A43F004031363134B1B6B03F0E8
:102C800004037B617B694FF40073FB6102233B62A9
:102C90000323BB6200237B620023FB6207F11C035A
:102CA00019460B48FFF722F9074B9B6823F078423F
:102CB0007B68D900BB680B43034913438B6000BF9B
:102CC0003037BD4680BD00BF0038024000000240E2
:102CD0000008024080B400AF034B01221A6000BF1D
:102CE000BD4680BC704700BF4C00474280B400AF77
:102CF000034B00221A6000BFBD4680BC704700BF76
:102D00004C0047422DE9B04F94B000AF00237B64E4
:102D10000023FB6400233B640023BB64794B9B6866
:102D200003F00C03082B0DD0082B00F2E180002BE0
:102D300002D0042B03D0DBE0734BBB64DBE0734BAE
:102D4000BB64D8E06F4B5B6803F03F037B646D4B63
:102D50005B6803F48003002B63D06A4B5B689B09BC
:102D60000022BB63FA63BB6BC3F308033B6300231E
:102D70007B63D7E90C4522462B464FF000004FF00D
:102D80000001590141EAD261500102460B46214639
:102D9000511A3961294663EB01037B614FF0000250
:102DA0004FF00003D7E904AB59468B01514643EA83
:102DB000916351468A015146B2EB0108594663EBD3
:102DC00001094FF000024FF000034FEAC90343EA44
:102DD00058734FEAC80290469946234618EB0303FE
:102DE000BB602B4649EB0303FB604FF000024FF042
:102DF0000003D7E9024529464B02214643EAD15355
:102E000021464A02104619467B6C0022BB62FA62D8
:102E1000D7E90A2312F094FF02460B461346FB64DF
:102E200058E0384B5B689B09002218461146C0F3F6
:102E300008033B6200237B62D7E9088942464B4680
:102E40004FF000004FF00001590141EAD2615001FA
:102E500002460B464146B2EB010A494663EB010BC1
:102E60004FF000024FF000034FEA8B1343EA9A63DE
:102E70004FEA8A12B2EB0A0463EB0B054FF0000233
:102E80004FF00003EB0043EA5473E20014461D4682
:102E90004346E3183B604B4645EB03037B604FF032
:102EA00000024FF00003D7E9004529468B02214676
:102EB00043EA915321468A02104619467B6C002250
:102EC000BB61FA61D7E9062312F03AFF02460B46CE
:102ED0001346FB640B4B5B681B0C03F003030133CD
:102EE0005B003B64FA6C3B6CB2FBF3F3BB6402E047
:102EF000054BBB6400BFBB6C18465037BD46BDE8F0
:102F0000B08F00BF003802400024F40000127A00A5
:102F100080B400AF024B1B681846BD4680BC7047AA
:102F20000000002080B500AFFFF7F2FF0246054B1E
:102F30009B689B0A03F007030349CB5C22FA03F367
:102F4000184680BD00380240C076010880B500AF49
:102F5000FFF7DEFF0246054B9B685B0B03F00703A0
:102F60000349CB5C22FA03F3184680BD00380240C7
:102F7000C076010880B483B000AF78607B680F2210
:102F80001A60454B1B6803F48023B3F5802F04D1EE
:102F90007B684FF4A0225A600EE03F4B1B6803F49D
:102FA0008033B3F5803F04D17B684FF480325A60A0
:102FB00002E07B6800225A60374B1B6803F0010374
:102FC000012B03D17B680122DA6002E07B680022DA
:102FD000DA60314B1B68DB0803F01F027B681A6163
:102FE0002D4B1B6F03F00403042B03D17B680522D8
:102FF0009A600CE0284B1B6F03F00103012B03D1F7
:103000007B6801229A6002E07B6800229A60224B72
:103010005B6F03F00103012B03D17B6801225A612E
:1030200002E07B6800225A611B4B1B6803F080732F
:10303000B3F1807F03D17B6802229A6102E07B6852
:1030400001229A61144B5B6803F480027B68DA61A9
:10305000114B5B6803F03F027B681A620E4B5B68A2
:103060009B09C3F308027B685A620B4B5B6803F44D
:10307000403303F580335B001A0C7B689A62064B81
:103080005B681B0E03F00F027B68DA6200BF0C372F
:10309000BD4680BC704700BF0038024080B483B09A
:1030A00000AF786039607B680F221A60114B9B6813
:1030B00003F003027B685A600E4B9B6803F0F0023A
:1030C0007B689A600B4B9B6803F4E0527B68DA6084
:1030D000084B9B68DB0803F4E0527B681A61064BDF
:1030E0001B6803F007023B681A6000BF0C37BD463F
:1030F00080BC704700380240003C024080B500AF01
:10310000064BDB6803F08003802B04D100F00AF843
:10311000034B80221A7000BF80BD00BF0038024000
:103120000E38024080B400AF00BFBD4680BC70477F
:1031300080B582B000AF78607B68002B01D101239D
:1031400041E07B6893F83D30DBB2002B06D17B6811
:10315000002283F83C20786813F044F97B6802224F
:1031600083F83D207B681A687B6804331946104653
:1031700005F036F97B68012283F846207B6801223E
:1031800083F83E207B68012283F83F207B68012280
:1031900083F840207B68012283F841207B6801226C
:1031A00083F842207B68012283F843207B68012258
:1031B00083F844207B68012283F845207B68012244
:1031C00083F83D20002318460837BD4680BD80B5F2
:1031D00082B000AF78607B68022283F83D207B6874
:1031E0001B681A6A41F211131340002B0FD17B6840
:1031F0001B681A6A40F244431340002B07D17B68D6
:103200001B681A687B681B6822F001021A607868E4
:1032100000F03AF87B68002283F846207B680022A1
:1032200083F83E207B68002283F83F207B680022E1
:1032300083F840207B68002283F841207B680022CD
:1032400083F842207B68002283F843207B680022B9
:1032500083F844207B68002283F845207B680022A5
:1032600083F83D207B68002283F83C200023184629
:103270000837BD4680BD80B483B000AF786000BF22
:103280000C37BD4680BC704780B483B000AF786017
:1032900000BF0C37BD4680BC704780B485B000AF1E
:1032A00078607B6893F83D30DBB2012B01D00123BD
:1032B00046E07B68022283F83D207B681B68234A36
:1032C000934222D07B681B68B3F1804F1DD07B688E
:1032D0001B681F4A934218D07B681B681D4A9342A3
:1032E00013D07B681B681C4A93420ED07B681B6816
:1032F0001A4A934209D07B681B68194A934204D04A
:103300007B681B68174A934211D17B681B689B68D6
:1033100003F00703FB60FB68062B10D07B681B687B
:103320001A687B681B6842F001021A6007E07B683C
:103330001B681A687B681B6842F001021A60002350
:1033400018461437BD4680BC704700BF00000140DE
:103350000004004000080040000C00400004014050
:10336000004001400018004080B483B000AF786096
:103370007B681B681A6A41F211131340002B0FD1AE
:103380007B681B681A6A40F244431340002B07D144
:103390007B681B681A687B681B6822F001021A6050
:1033A0007B68012283F83D20002318460C37BD4678
:1033B00080BC704780B485B000AF78607B6893F8BC
:1033C0003D30DBB2012B01D001234EE07B680222AD
:1033D00083F83D207B681B68DA687B681B6842F0D5
:1033E0000102DA607B681B68224A934222D07B6824
:1033F0001B68B3F1804F1DD07B681B681E4A934247
:1034000018D07B681B681D4A934213D07B681B68E9
:103410001B4A93420ED07B681B681A4A934209D01C
:103420007B681B68184A934204D07B681B68174A64
:10343000934211D17B681B689B6803F00703FB6014
:10344000FB68062B10D07B681B681A687B681B68BA
:1034500042F001021A6007E07B681B681A687B680B
:103460001B6842F001021A60002318461437BD465B
:1034700080BC70470000014000040040000800408C
:10348000000C0040000401400040014000180040D2
:1034900080B483B000AF78607B681B68DA687B68B3
:1034A0001B6822F00102DA607B681B681A6A41F22D
:1034B00011131340002B0FD17B681B681A6A40F26E
:1034C00044431340002B07D17B681B681A687B6854
:1034D0001B6822F001021A607B68012283F83D20FC
:1034E000002318460C37BD4680BC704780B586B0B7
:1034F00000AFF860B9601346FB80FB6893F83D307D
:10350000DBB2022B01D102237AE0FB6893F83D3055
:10351000DBB2012B25D1BB68002B02D0FB88002B2E
:1035200001D101236CE0FB68022283F83D20FB6897
:103530001B6A354ADA63FB681B6A344A1A64FB6803
:103540001B6A334ADA64FB68186AB968FB681B684F
:103550002C331A46FB880AF0C8FD0346002B04D022
:1035600001E001234CE001234AE0FB681B68DA68B4
:10357000FB681B6842F48072DA60FB681B68254AAE
:10358000934222D0FB681B68B3F1804F1DD0FB68CB
:103590001B68214A934218D0FB681B681F4A93425C
:1035A00013D0FB681B681E4A93420ED0FB681B6851
:1035B0001C4A934209D0FB681B681B4A934204D003
:1035C000FB681B68194A934211D1FB681B689B6812
:1035D00003F007037B617B69062B10D0FB681B6837
:1035E0001A68FB681B6842F001021A6007E0FB687A
:1035F0001B681A68FB681B6842F001021A6000230E
:1036000018461837BD4680BD4D8300087B830008EF
:103610007B800008000001400004004000080040DA
:10362000000C004000040140004001400018004030
:1036300080B582B000AF78607B681B68DA687B6811
:103640001B6822F48072DA607B681B6A18460AF0F5
:1036500014FE7B681B681A6A41F211131340002B99
:103660000FD17B681B681A6A40F244431340002B59
:1036700007D17B681B681A687B681B6822F001020F
:103680001A607B68012283F83D2000231846083722
:10369000BD4680BD80B582B000AF78607B68002BEE
:1036A00001D1012341E07B6893F83D30DBB2002B70
:1036B00006D17B68002283F83C20786800F08DF802
:1036C0007B68022283F83D207B681A687B6804339C
:1036D0001946104604F084FE7B68012283F84620D8
:1036E0007B68012283F83E207B68012283F83F201B
:1036F0007B68012283F840207B68012283F8412007
:103700007B68012283F842207B68012283F84320F2
:103710007B68012283F844207B68012283F84520DE
:103720007B68012283F83D20002318460837BD46F8
:1037300080BD80B582B000AF78607B68022283F8DC
:103740003D207B681B681A6A41F211131340002B5D
:103750000FD17B681B681A6A40F244431340002B68
:1037600007D17B681B681A687B681B6822F001021E
:103770001A60786800F03AF87B68002283F84620E7
:103780007B68002283F83E207B68002283F83F207C
:103790007B68002283F840207B68002283F8412068
:1037A0007B68002283F842207B68002283F8432054
:1037B0007B68002283F844207B68002283F8452040
:1037C0007B68002283F83D207B68002283F83C2040
:1037D000002318460837BD4680BD80B483B000AFD3
:1037E000786000BF0C37BD4680BC704780B483B0A2
:1037F00000AF786000BF0C37BD4680BC704780B515
:1038000084B000AF786039603B68002B09D17B68D9
:1038100093F83E30DBB2012B14BF01230023DBB24F
:1038200022E03B68042B09D17B6893F83F30DBB280
:10383000012B14BF01230023DBB215E03B68082BEA
:1038400009D17B6893F84030DBB2012B14BF012310
:103850000023DBB208E07B6893F84130DBB2012B38
:1038600014BF01230023DBB2002B01D001237CE035
:103870003B68002B04D17B68022283F83E2013E0D2
:103880003B68042B04D17B68022283F83F200BE0C5
:103890003B68082B04D17B68022283F8402003E0B8
:1038A0007B68022283F841207B681B68012239680B
:1038B000184605F038FA7B681B682E4A934204D0FC
:1038C0007B681B682C4A934201D1012300E000234E
:1038D000002B07D07B681B685A6C7B681B6842F41E
:1038E00000425A647B681B68224A934222D07B685C
:1038F0001B68B3F1804F1DD07B681B681F4A934241
:1039000018D07B681B681E4A934213D07B681B68E3
:103910001C4A93420ED07B681B68174A934209D019
:103920007B681B68184A934204D07B681B68174A5F
:10393000934211D17B681B689B6803F00703FB600F
:10394000FB68062B10D07B681B681A687B681B68B5
:1039500042F001021A6007E07B681B681A687B6806
:103960001B6842F001021A60002318461037BD465A
:1039700080BD00BF00000140000401400004004081
:1039800000080040000C00400040014000180040CA
:1039900080B582B000AF786039607B681B68002218
:1039A0003968184605F0BFF97B681B682E4A9342B8
:1039B00004D07B681B682D4A934201D1012300E0AB
:1039C0000023002B17D07B681B681A6A41F2111381
:1039D0001340002B0FD17B681B681A6A40F24443E6
:1039E0001340002B07D17B681B685A6C7B681B68EF
:1039F00022F400425A647B681B681A6A41F2111370
:103A00001340002B0FD17B681B681A6A40F24443B5
:103A10001340002B07D17B681B681A687B681B6802
:103A200022F001021A603B68002B04D17B6801225E
:103A300083F83E2013E03B68042B04D17B6801220D
:103A400083F83F200BE03B68082B04D17B68012200
:103A500083F8402003E07B68012283F841200023A3
:103A600018460837BD4680BD0000014000040140F3
:103A700080B584B000AF786039600023FB733B6889
:103A8000002B09D17B6893F83E30DBB2012B14BFC9
:103A900001230023DBB222E03B68042B09D17B68C1
:103AA00093F83F30DBB2012B14BF01230023DBB2BC
:103AB00015E03B68082B09D17B6893F84030DBB2F6
:103AC000012B14BF01230023DBB208E07B6893F8CD
:103AD0004130DBB2012B14BF01230023DBB2002BEA
:103AE00001D00123B9E03B68002B04D17B6802229E
:103AF00083F83E2013E03B68042B04D17B6802224C
:103B000083F83F200BE03B68082B04D17B6802223E
:103B100083F8402003E07B68022283F841203B6861
:103B20000C2B2AD03B680C2B30D83B68082B1BD0C1
:103B30003B68082B2AD83B68002B03D03B68042B3A
:103B400009D023E07B681B68DA687B681B6842F059
:103B50000202DA601DE07B681B68DA687B681B681C
:103B600042F00402DA6014E07B681B68DA687B6864
:103B70001B6842F00802DA600BE07B681B68DA68B9
:103B80007B681B6842F01002DA6002E00123FB73DD
:103B900000BFFB7B002B5FD17B681B68012239686B
:103BA000184605F0C0F87B681B682E4A934204D083
:103BB0007B681B682C4A934201D1012300E000235B
:103BC000002B07D07B681B685A6C7B681B6842F42B
:103BD00000425A647B681B68224A934222D07B6869
:103BE0001B68B3F1804F1DD07B681B681F4A93424E
:103BF00018D07B681B681E4A934213D07B681B68F1
:103C00001C4A93420ED07B681B68174A934209D026
:103C10007B681B68184A934204D07B681B68174A6C
:103C2000934211D17B681B689B6803F00703BB605C
:103C3000BB68062B10D07B681B681A687B681B6802
:103C400042F001021A6007E07B681B681A687B6813
:103C50001B6842F001021A60FB7B18461037BD4614
:103C600080BD00BF0000014000040140000400408E
:103C700000080040000C00400040014000180040D7
:103C800080B584B000AF786039600023FB733B6877
:103C90000C2B2AD03B680C2B30D83B68082B1BD050
:103CA0003B68082B2AD83B68002B03D03B68042BC9
:103CB00009D023E07B681B68DA687B681B6822F008
:103CC0000202DA601DE07B681B68DA687B681B68AB
:103CD00022F00402DA6014E07B681B68DA687B6813
:103CE0001B6822F00802DA600BE07B681B68DA6868
:103CF0007B681B6822F01002DA6002E00123FB738C
:103D000000BFFB7B002B61D17B681B6800223968F8
:103D1000184605F008F87B681B682F4A934204D0C8
:103D20007B681B682D4A934201D1012300E00023E8
:103D3000002B17D07B681B681A6A41F211131340DD
:103D4000002B0FD17B681B681A6A40F24443134072
:103D5000002B07D17B681B685A6C7B681B6822F4B8
:103D600000425A647B681B681A6A41F211131340BF
:103D7000002B0FD17B681B681A6A40F24443134042
:103D8000002B07D17B681B681A687B681B6822F0D0
:103D900001021A603B68002B04D17B68012283F882
:103DA0003E2013E03B68042B04D17B68012283F89A
:103DB0003F200BE03B68082B04D17B68012283F88D
:103DC000402003E07B68012283F84120FB7B1846FA
:103DD0001037BD4680BD00BF000001400004014017
:103DE00080B586B000AFF860B9607A607B80002350
:103DF000FB75BB68002B09D1FB6893F83E30DBB242
:103E0000022B0CBF01230023DBB222E0BB68042B92
:103E100009D1FB6893F83F30DBB2022B0CBF0123C2
:103E20000023DBB215E0BB68082B09D1FB6893F8CF
:103E30004030DBB2022B0CBF01230023DBB208E0D1
:103E4000FB6893F84130DBB2022B0CBF0123002347
:103E5000DBB2002B01D0022364E1BB68002B09D147
:103E6000FB6893F83E30DBB2012B0CBF012300232B
:103E7000DBB222E0BB68042B09D1FB6893F83F302A
:103E8000DBB2012B0CBF01230023DBB215E0BB68C2
:103E9000082B09D1FB6893F84030DBB2012B0CBF33
:103EA00001230023DBB208E0FB6893F84130DBB26A
:103EB000012B0CBF01230023DBB2002B24D07B6835
:103EC000002B02D07B88002B01D101232AE1BB68A3
:103ED000002B04D1FB68022283F83E2016E0BB6869
:103EE000042B04D1FB68022283F83F200EE0BB685C
:103EF000082B04D1FB68022283F8402006E0FB680F
:103F0000022283F8412001E001230BE1BB680C2B66
:103F10007DD0BB680C2B00F29E80BB68082B52D072
:103F2000BB68082B00F29780BB68002B03D0BB68EE
:103F3000042B24D08FE0FB685B6A7C4ADA63FB6861
:103F40005B6A7B4A1A64FB685B6A7A4ADA64FB68DC
:103F5000586A7968FB681B6834331A467B880AF014
:103F6000C4F80346002B01D00123DBE0FB681B688B
:103F7000DA68FB681B6842F40072DA606EE0FB6886
:103F80009B6A6A4ADA63FB689B6A694A1A64FB683F
:103F90009B6A684ADA64FB68986A7968FB681B6800
:103FA00038331A467B880AF0A0F80346002B01D06C
:103FB0000123B7E0FB681B68DA68FB681B6842F402
:103FC0008062DA604AE0FB68DB6A584ADA63FB68C1
:103FD000DB6A574A1A64FB68DB6A564ADA64FB6894
:103FE000D86A7968FB681B683C331A467B880AF0FC
:103FF0007CF80346002B01D0012393E0FB681B688B
:10400000DA68FB681B6842F40062DA6026E0FB684D
:104010001B6B464ADA63FB681B6B454A1A64FB68F4
:104020001B6B444ADA64FB68186B7968FB681B6891
:1040300040331A467B880AF058F80346002B01D01B
:1040400001236FE0FB681B68DA68FB681B6842F4B9
:104050008052DA6002E00123FB7500BFFB7D002B7C
:104060005FD1FB681B680122B968184604F05BFE4B
:10407000FB681B68304A934204D0FB681B682F4AD8
:10408000934201D1012300E00023002B07D0FB68FD
:104090001B685A6CFB681B6842F400425A64FB6858
:1040A0001B68254A934222D0FB681B68B3F1804FFE
:1040B0001DD0FB681B68224A934218D0FB681B681E
:1040C000204A934213D0FB681B681F4A93420ED0CC
:1040D000FB681B68194A934209D0FB681B681B4A9E
:1040E000934204D0FB681B68194A934211D1FB68C4
:1040F0001B689B6803F007033B613B69062B10D0EC
:10410000FB681B681A68FB681B6842F001021A60B2
:1041100007E0FB681B681A68FB681B6842F0010235
:104120001A60FB7D18461837BD4680BD0D8100081A
:10413000B58100087B8000080000014000040140B8
:104140000004004000080040000C00400040014016
:104150000018004080B584B000AF7860396000235B
:10416000FB733B680C2B39D03B680C2B44D83B6865
:10417000082B25D03B68082B3ED83B68002B03D08A
:104180003B68042B0ED037E07B681B68DA687B68DD
:104190001B6822F40072DA607B685B6A18460AF0DA
:1041A0006CF82CE07B681B68DA687B681B6822F47B
:1041B0008062DA607B689B6A18460AF05EF81EE04F
:1041C0007B681B68DA687B681B6822F40062DA602F
:1041D0007B68DB6A18460AF050F810E07B681B68C1
:1041E000DA687B681B6822F48052DA607B681B6B9C
:1041F00018460AF042F802E00123FB7300BFFB7B84
:10420000002B61D17B681B6800223968184604F0D6
:104210008AFD7B681B682F4A934204D07B681B6829
:104220002D4A934201D1012300E00023002B17D037
:104230007B681B681A6A41F211131340002B0FD1DF
:104240007B681B681A6A40F244431340002B07D175
:104250007B681B685A6C7B681B6822F400425A64B6
:104260007B681B681A6A41F211131340002B0FD1AF
:104270007B681B681A6A40F244431340002B07D145
:104280007B681B681A687B681B6822F001021A6051
:104290003B68002B04D17B68012283F83E2013E0A9
:1042A0003B68042B04D17B68012283F83F200BE09C
:1042B0003B68082B04D17B68012283F8402003E08F
:1042C0007B68012283F84120FB7B18461037BD46EE
:1042D00080BD00BF000001400004014080B582B0F5
:1042E00000AF78607B68002B01D1012341E07B683F
:1042F00093F83D30DBB2002B06D17B68002283F8B7
:104300003C20786800F08DF87B68022283F83D201D
:104310007B681A687B6804331946104604F060F81D
:104320007B68012283F846207B68012283F83E20C7
:104330007B68012283F83F207B68012283F84020BC
:104340007B68012283F841207B68012283F84220A8
:104350007B68012283F843207B68012283F8442094
:104360007B68012283F845207B68012283F83D2089
:10437000002318460837BD4680BD80B582B000AF27
:1043800078607B68022283F83D207B681B681A6A8C
:1043900041F211131340002B0FD17B681B681A6A7E
:1043A00040F244431340002B07D17B681B681A6816
:1043B0007B681B6822F001021A60786800F03AF806
:1043C0007B68002283F846207B68002283F83E2029
:1043D0007B68002283F83F207B68002283F840201E
:1043E0007B68002283F841207B68002283F842200A
:1043F0007B68002283F843207B68002283F84420F6
:104400007B68002283F845207B68002283F83D20EA
:104410007B68002283F83C20002318460837BD46FD
:1044200080BD80B483B000AF786000BF0C37BD465C
:1044300080BC704780B483B000AF786000BF0C3799
:10444000BD4680BC704780B584B000AF78603960ED
:104450003B68002B09D17B6893F83E30DBB2012B1F
:1044600014BF01230023DBB222E03B68042B09D1F7
:104470007B6893F83F30DBB2012B14BF012300238C
:10448000DBB215E03B68082B09D17B6893F840301C
:10449000DBB2012B14BF01230023DBB208E07B68F1
:1044A00093F84130DBB2012B14BF01230023DBB2B0
:1044B000002B01D001237CE03B68002B04D17B68FA
:1044C000022283F83E2013E03B68042B04D17B6872
:1044D000022283F83F200BE03B68082B04D17B6865
:1044E000022283F8402003E07B68022283F8412007
:1044F0007B681B6801223968184604F014FC7B684D
:104500001B682E4A934204D07B681B682C4A934256
:1045100001D1012300E00023002B07D07B681B683A
:104520005A6C7B681B6842F400425A647B681B68C3
:10453000224A934222D07B681B68B3F1804F1DD082
:104540007B681B681F4A934218D07B681B681E4A11
:10455000934213D07B681B681C4A93420ED07B6841
:104560001B68174A934209D07B681B68184A93421C
:1045700004D07B681B68174A934211D17B681B6883
:104580009B6803F00703FB60FB68062B10D07B6879
:104590001B681A687B681B6842F001021A6007E01A
:1045A0007B681B681A687B681B6842F001021A600E
:1045B000002318461037BD4680BD00BF00000140F3
:1045C000000401400004004000080040000C0040CE
:1045D000004001400018004080B582B000AF786014
:1045E00039607B681B6800223968184604F09BFB21
:1045F0007B681B682E4A934204D07B681B682D4A57
:10460000934201D1012300E00023002B17D07B68E7
:104610001B681A6A41F211131340002B0FD17B68FB
:104620001B681A6A40F244431340002B07D17B6891
:104630001B685A6C7B681B6822F400425A647B68D2
:104640001B681A6A41F211131340002B0FD17B68CB
:104650001B681A6A40F244431340002B07D17B6861
:104660001B681A687B681B6822F001021A603B68AD
:10467000002B04D17B68012283F83E2013E03B68C5
:10468000042B04D17B68012283F83F200BE03B68B8
:10469000082B04D17B68012283F8402003E07B686B
:1046A000012283F84120002318460837BD4680BD0B
:1046B000000001400004014080B584B000AF786084
:1046C00039600023FB733B68002B09D17B6893F8AA
:1046D0003E30DBB2012B14BF01230023DBB222E00A
:1046E0003B68042B09D17B6893F83F30DBB2012B88
:1046F00014BF01230023DBB215E03B68082B09D16E
:104700007B6893F84030DBB2012B14BF01230023F8
:10471000DBB208E07B6893F84130DBB2012B14BFB9
:1047200001230023DBB2002B01D00123B9E03B6859
:10473000002B04D17B68022283F83E2013E03B6803
:10474000042B04D17B68022283F83F200BE03B68F6
:10475000082B04D17B68022283F8402003E07B68A9
:10476000022283F841203B680C2B2AD03B680C2B9B
:1047700030D83B68082B1BD03B68082B2AD83B68F5
:10478000002B03D03B68042B09D023E07B681B6817
:10479000DA687B681B6842F00202DA601DE07B6821
:1047A0001B68DA687B681B6842F00402DA6014E078
:1047B0007B681B68DA687B681B6842F00802DA6075
:1047C0000BE07B681B68DA687B681B6842F01002AC
:1047D000DA6002E00123FB7300BFFB7B002B5FD19B
:1047E0007B681B6801223968184604F09CFA7B68D4
:1047F0001B682E4A934204D07B681B682C4A934264
:1048000001D1012300E00023002B07D07B681B6847
:104810005A6C7B681B6842F400425A647B681B68D0
:10482000224A934222D07B681B68B3F1804F1DD08F
:104830007B681B681F4A934218D07B681B681E4A1E
:10484000934213D07B681B681C4A93420ED07B684E
:104850001B68174A934209D07B681B68184A934229
:1048600004D07B681B68174A934211D17B681B6890
:104870009B6803F00703BB60BB68062B10D07B6806
:104880001B681A687B681B6842F001021A6007E027
:104890007B681B681A687B681B6842F001021A601B
:1048A000FB7B18461037BD4680BD00BF00000140AD
:1048B000000401400004004000080040000C0040DB
:1048C000004001400018004080B584B000AF78601F
:1048D00039600023FB733B680C2B2AD03B680C2B00
:1048E00030D83B68082B1BD03B68082B2AD83B6884
:1048F000002B03D03B68042B09D023E07B681B68A6
:10490000DA687B681B6822F00202DA601DE07B68CF
:104910001B68DA687B681B6822F00402DA6014E026
:104920007B681B68DA687B681B6822F00802DA6023
:104930000BE07B681B68DA687B681B6822F010025A
:10494000DA6002E00123FB7300BFFB7B002B61D127
:104950007B681B6800223968184604F0E4F97B681C
:104960001B682F4A934204D07B681B682D4A9342F0
:1049700001D1012300E00023002B17D07B681B68C6
:104980001A6A41F211131340002B0FD17B681B6888
:104990001A6A40F244431340002B07D17B681B681E
:1049A0005A6C7B681B6822F400425A647B681B685F
:1049B0001A6A41F211131340002B0FD17B681B6858
:1049C0001A6A40F244431340002B07D17B681B68EE
:1049D0001A687B681B6822F001021A603B68002B92
:1049E00004D17B68012283F83E2013E03B68042B4E
:1049F00004D17B68012283F83F200BE03B68082B41
:104A000004D17B68012283F8402003E07B68012207
:104A100083F84120FB7B18461037BD4680BD00BFA0
:104A2000000001400004014080B586B000AFF8608E
:104A3000B9607A607B800023FB75BB68002B09D1CD
:104A4000FB6893F83E30DBB2022B0CBF012300233E
:104A5000DBB222E0BB68042B09D1FB6893F83F303E
:104A6000DBB2022B0CBF01230023DBB215E0BB68D5
:104A7000082B09D1FB6893F84030DBB2022B0CBF46
:104A800001230023DBB208E0FB6893F84130DBB27E
:104A9000022B0CBF01230023DBB2002B01D0022329
:104AA00064E1BB68002B09D1FB6893F83E30DBB2B0
:104AB000012B0CBF01230023DBB222E0BB68042BD7
:104AC00009D1FB6893F83F30DBB2012B0CBF012307
:104AD0000023DBB215E0BB68082B09D1FB6893F813
:104AE0004030DBB2012B0CBF01230023DBB208E016
:104AF000FB6893F84130DBB2012B0CBF012300238C
:104B0000DBB2002B24D07B68002B02D07B88002BEB
:104B100001D101232AE1BB68002B04D1FB680222EA
:104B200083F83E2016E0BB68042B04D1FB68022208
:104B300083F83F200EE0BB68082B04D1FB680222FB
:104B400083F8402006E0FB68022283F8412001E060
:104B500001230BE1BB680C2B7DD0BB680C2B00F252
:104B60009E80BB68082B52D0BB68082B00F2978050
:104B7000BB68002B03D0BB68042B24D08FE0FB68FC
:104B80005B6A7C4ADA63FB685B6A7B4A1A64FB688F
:104B90005B6A7A4ADA64FB68586A7968FB681B6862
:104BA00034331A467B8809F0A0FA0346002B01D063
:104BB0000123DBE0FB681B68DA68FB681B6842F4D2
:104BC0000072DA606EE0FB689B6A6A4ADA63FB682F
:104BD0009B6A694A1A64FB689B6A684ADA64FB68E4
:104BE000986A7968FB681B6838331A467B8809F035
:104BF0007CFA0346002B01D00123B7E0FB681B6859
:104C0000DA68FB681B6842F48062DA604AE0FB689D
:104C1000DB6A584ADA63FB68DB6A574A1A64FB6846
:104C2000DB6A564ADA64FB68D86A7968FB681B68F5
:104C30003C331A467B8809F058FA0346002B01D012
:104C4000012393E0FB681B68DA68FB681B6842F489
:104C50000062DA6026E0FB681B6B464ADA63FB6899
:104C60001B6B454A1A64FB681B6B444ADA64FB6899
:104C7000186B7968FB681B6840331A467B8809F01B
:104C800034FA0346002B01D001236FE0FB681B6858
:104C9000DA68FB681B6842F48052DA6002E00123A4
:104CA000FB7500BFFB7D002B5FD1FB681B680122F9
:104CB000B968184604F037F8FB681B68304A93421D
:104CC00004D0FB681B682F4A934201D1012300E006
:104CD0000023002B07D0FB681B685A6CFB681B681D
:104CE00042F400425A64FB681B68254A934222D072
:104CF000FB681B68B3F1804F1DD0FB681B68224A1C
:104D0000934218D0FB681B68204A934213D0FB687B
:104D10001B681F4A93420ED0FB681B68194A9342D6
:104D200009D0FB681B681B4A934204D0FB681B68D0
:104D3000194A934211D1FB681B689B6803F0070373
:104D40003B613B69062B10D0FB681B681A68FB6847
:104D50001B6842F001021A6007E0FB681B681A68D2
:104D6000FB681B6842F001021A60FB7D1846183789
:104D7000BD4680BD0D810008B58100087B8000081C
:104D80000000014000040140000400400008004011
:104D9000000C0040004001400018004080B584B085
:104DA00000AF786039600023FB733B680C2B39D06F
:104DB0003B680C2B44D83B68082B25D03B68082B5C
:104DC0003ED83B68002B03D03B68042B0ED037E065
:104DD0007B681B68DA687B681B6822F40072DA6003
:104DE0007B685B6A184609F048FA2CE07B681B6810
:104DF000DA687B681B6822F48062DA607B689B6AF1
:104E0000184609F03AFA1EE07B681B68DA687B688E
:104E10001B6822F40062DA607B68DB6A184609F0DE
:104E20002CFA10E07B681B68DA687B681B6822F448
:104E30008052DA607B681B6B184609F01EFA02E0AC
:104E40000123FB7300BFFB7B002B61D17B681B68D8
:104E500000223968184603F066FF7B681B682F4AFA
:104E6000934204D07B681B682D4A934201D10123F1
:104E700000E00023002B17D07B681B681A6A41F200
:104E800011131340002B0FD17B681B681A6A40F284
:104E900044431340002B07D17B681B685A6C7B6826
:104EA0001B6822F400425A647B681B681A6A41F24C
:104EB00011131340002B0FD17B681B681A6A40F254
:104EC00044431340002B07D17B681B681A687B683A
:104ED0001B6822F001021A603B68002B04D17B683A
:104EE000012283F83E2013E03B68042B04D17B6849
:104EF000012283F83F200BE03B68082B04D17B683C
:104F0000012283F8402003E07B68012283F84120DE
:104F1000FB7B18461037BD4680BD00BF0000014036
:104F20000004014080B582B000AF78607B68002B40
:104F300001D1012341E07B6893F83D30DBB2002BC7
:104F400006D17B68002283F83C20786800F08DF859
:104F50007B68022283F83D207B681A687B680433F3
:104F60001946104603F03CFA7B68012283F846207C
:104F70007B68012283F83E207B68012283F83F2072
:104F80007B68012283F840207B68012283F841205E
:104F90007B68012283F842207B68012283F843204A
:104FA0007B68012283F844207B68012283F8452036
:104FB0007B68012283F83D20002318460837BD4650
:104FC00080BD80B582B000AF78607B68022283F834
:104FD0003D207B681B681A6A41F211131340002BB5
:104FE0000FD17B681B681A6A40F244431340002BC0
:104FF00007D17B681B681A687B681B6822F0010276
:105000001A60786800F03AF87B68002283F846203E
:105010007B68002283F83E207B68002283F83F20D3
:105020007B68002283F840207B68002283F84120BF
:105030007B68002283F842207B68002283F84320AB
:105040007B68002283F844207B68002283F8452097
:105050007B68002283F83D207B68002283F83C2097
:10506000002318460837BD4680BD80B483B000AF2A
:10507000786000BF0C37BD4680BC704780B483B0F9
:1050800000AF786000BF0C37BD4680BC704780B56C
:1050900084B000AF786039603B68002B04D17B6836
:1050A00093F83E30FB7313E03B68042B04D17B681C
:1050B00093F83F30FB730BE03B68082B04D17B680F
:1050C00093F84030FB7303E07B6893F84130FB7347
:1050D0003B68002B04D17B6893F84230BB7313E02C
:1050E0003B68042B04D17B6893F84330BB730BE01F
:1050F0003B68082B04D17B6893F84430BB7303E012
:105100007B6893F84530BB73FB7B012B02D1BB7BE3
:10511000012B01D0012381E03B68002B04D17B6887
:10512000022283F83E2013E03B68042B04D17B6805
:10513000022283F83F200BE03B68082B04D17B68F8
:10514000022283F8402003E07B68022283F841209A
:105150003B68002B04D17B68022283F8422013E0D5
:105160003B68042B04D17B68022283F843200BE0C8
:105170003B68082B04D17B68022283F8442003E0BB
:105180007B68022283F845207B681B68012239680E
:10519000184603F0C8FD7B681B68224A934222D060
:1051A0007B681B68B3F1804F1DD07B681B681E4A6B
:1051B000934218D07B681B681C4A934213D07B68CB
:1051C0001B681B4A93420ED07B681B68194A9342A6
:1051D00009D07B681B68184A934204D07B681B681F
:1051E000164A934211D17B681B689B6803F0070342
:1051F000BB60BB68062B10D07B681B681A687B6895
:105200001B6842F001021A6007E07B681B681A689D
:105210007B681B6842F001021A60002318461037B1
:10522000BD4680BD00000140000400400008004071
:10523000000C004000040140004001400018004004
:1052400080B582B000AF786039607B681B6800224F
:105250003968184603F067FD7B681B681A6A41F2DB
:1052600011131340002B0FD17B681B681A6A40F2A0
:1052700044431340002B07D17B681B681A687B6886
:105280001B6822F001021A603B68002B04D17B6886
:10529000012283F83E2013E03B68042B04D17B6895
:1052A000012283F83F200BE03B68082B04D17B6888
:1052B000012283F8402003E07B68012283F841202B
:1052C0003B68002B04D17B68012283F8422013E065
:1052D0003B68042B04D17B68012283F843200BE058
:1052E0003B68082B04D17B68012283F8442003E04B
:1052F0007B68012283F84520002318460837BD4605
:1053000080BD80B584B000AF786039600023FB7346
:105310003B68002B04D17B6893F83E30BB7313E0ED
:105320003B68042B04D17B6893F83F30BB730BE0E0
:105330003B68082B04D17B6893F84030BB7303E0D3
:105340007B6893F84130BB733B68002B04D17B68CA
:1053500093F842307B7313E03B68042B04D17B68E5
:1053600093F843307B730BE03B68082B04D17B68D8
:1053700093F844307B7303E07B6893F845307B738C
:10538000BB7B012B02D17B7B012B01D00123BEE033
:105390003B68002B04D17B68022283F83E2013E097
:1053A0003B68042B04D17B68022283F83F200BE08A
:1053B0003B68082B04D17B68022283F8402003E07D
:1053C0007B68022283F841203B68002B04D17B6874
:1053D000022283F8422013E03B68042B04D17B684F
:1053E000022283F843200BE03B68082B04D17B6842
:1053F000022283F8442003E07B68022283F84520E0
:105400003B680C2B2AD03B680C2B30D83B68082B10
:105410001BD03B68082B2AD83B68002B03D03B6885
:10542000042B09D023E07B681B68DA687B681B6863
:1054300042F00202DA601DE07B681B68DA687B6874
:105440001B6842F00402DA6014E07B681B68DA68CB
:105450007B681B6842F00802DA600BE07B681B681F
:10546000DA687B681B6842F01002DA6002E0012310
:10547000FB7300BFFB7B002B48D17B681B680122BC
:105480003968184603F04FFC7B681B68224A934238
:1054900022D07B681B68B3F1804F1DD07B681B68EE
:1054A0001E4A934218D07B681B681D4A934213D052
:1054B0007B681B681B4A93420ED07B681B681A4AA4
:1054C000934209D07B681B68184A934204D07B68DA
:1054D0001B68174A934211D17B681B689B6803F0D5
:1054E0000703BB60BB68062B10D07B681B681A687B
:1054F0007B681B6842F001021A6007E07B681B684A
:105500001A687B681B6842F001021A60FB7B184630
:105510001037BD4680BD00BF0000014000040040C0
:1055200000080040000C0040000401400040014021
:105530000018004080B584B000AF78603960002367
:10554000FB733B680C2B2AD03B680C2B30D83B6894
:10555000082B1BD03B68082B2AD83B68002B03D0B4
:105560003B68042B09D023E07B681B68DA687B6802
:105570001B6822F00202DA601DE07B681B68DA68B3
:105580007B681B6822F00402DA6014E07B681B6809
:10559000DA687B681B6822F00802DA600BE07B683F
:1055A0001B68DA687B681B6822F01002DA6002E090
:1055B0000123FB7300BFFB7B002B56D17B681B686C
:1055C00000223968184603F0AEFB7B681B681A6A34
:1055D00041F211131340002B0FD17B681B681A6A2C
:1055E00040F244431340002B07D17B681B681A68C4
:1055F0007B681B6822F001021A603B68002B04D113
:105600007B68012283F83E2013E03B68042B04D121
:105610007B68012283F83F200BE03B68082B04D114
:105620007B68012283F8402003E07B68012283F835
:1056300041203B68002B04D17B68012283F8422083
:1056400013E03B68042B04D17B68012283F84320DC
:105650000BE03B68082B04D17B68012283F84420CF
:1056600003E07B68012283F84520FB7B1846103756
:10567000BD4680BD80B586B000AFF860B9607A6085
:105680007B800023FB75BB68002B04D1FB6893F87B
:105690003E30BB7513E0BB68042B04D1FB6893F864
:1056A0003F30BB750BE0BB68082B04D1FB6893F857
:1056B0004030BB7503E0FB6893F84130BB75BB68B5
:1056C000002B04D1FB6893F842307B7513E0BB6874
:1056D000042B04D1FB6893F843307B750BE0BB6867
:1056E000082B04D1FB6893F844307B7503E0FB681A
:1056F00093F845307B75BB7D022B02D07B7D022B5E
:1057000001D102233AE1BB7D012B43D17B7D012BEB
:1057100040D17B68002B02D07B88002B01D1012374
:105720002CE1BB68002B04D1FB68022283F83E20E9
:1057300013E0BB68042B04D1FB68022283F83F20EE
:105740000BE0BB68082B04D1FB68022283F84020E1
:1057500003E0FB68022283F84120BB68002B04D1E0
:10576000FB68022283F8422016E0BB68042B04D1B8
:10577000FB68022283F843200EE0BB68082B04D1AB
:10578000FB68022283F8442006E0FB68022283F8CB
:10579000452001E00123F1E0FB681B680122B968A4
:1057A000184603F0C0FABB680C2B7DD0BB680C2BED
:1057B00000F29E80BB68082B52D0BB68082B00F219
:1057C0009780BB68002B03D0BB68042B24D08FE0EC
:1057D000FB685B6A6B4ADA63FB685B6A6A4A1A6455
:1057E000FB685B6A694ADA64FB68586AFB681B6895
:1057F000343319467A687B8808F077FC0346002B1F
:1058000001D00123BAE0FB681B68DA68FB681B68FB
:1058100042F40072DA606EE0FB689B6A594ADA6310
:10582000FB689B6A584A1A64FB689B6A574ADA64A9
:10583000FB68986AFB681B68383319467A687B886E
:1058400008F053FC0346002B01D0012396E0FB68CF
:105850001B68DA68FB681B6842F48062DA604AE021
:10586000FB68DB6A474ADA63FB68DB6A464A1A640C
:10587000FB68DB6A454ADA64FB68D86AFB681B6828
:105880003C3319467A687B8808F02FFC0346002BCE
:1058900001D0012372E0FB681B68DA68FB681B68B3
:1058A00042F40062DA6026E0FB681B6B354ADA637B
:1058B000FB681B6B344A1A64FB681B6B334ADA645F
:1058C000FB68186BFB681B68403319467A687B8855
:1058D00008F00BFC0346002B01D001234EE0FB68CF
:1058E0001B68DA68FB681B6842F48052DA6002E0E9
:1058F0000123FB7500BFFB681B68254A934222D039
:10590000FB681B68B3F1804F1DD0FB681B68214A00
:10591000934218D0FB681B681F4A934213D0FB6860
:105920001B681E4A93420ED0FB681B681C4A9342B8
:1059300009D0FB681B681B4A934204D0FB681B68B4
:10594000194A934211D1FB681B689B6803F0070357
:105950003B613B69062B10D0FB681B681A68FB682B
:105960001B6842F001021A6007E0FB681B681A68B6
:10597000FB681B6842F001021A60FB7D184618376D
:10598000BD4680BD1D820008E58200087B800008BE
:10599000000001400004004000080040000C0040EE
:1059A00000040140004001400018004080B584B070
:1059B00000AF786039600023FB737B681B680022AE
:1059C0003968184603F0AFF93B680C2B39D03B68B7
:1059D0000C2B44D83B68082B25D03B68082B3ED8BD
:1059E0003B68002B03D03B68042B0ED037E07B686C
:1059F0001B68DA687B681B6822F40072DA607B68D7
:105A00005B6A184608F039FC2CE07B681B68DA6892
:105A10007B681B6822F48062DA607B689B6A1846A8
:105A200008F02BFC1EE07B681B68DA687B681B684B
:105A300022F40062DA607B68DB6A184608F01DFC1D
:105A400010E07B681B68DA687B681B6822F4805270
:105A5000DA607B681B6B184608F00FFC02E001233C
:105A6000FB7300BFFB7B002B4FD17B681B681A6A5E
:105A700041F211131340002B0FD17B681B681A6A87
:105A800040F244431340002B07D17B681B681A681F
:105A90007B681B6822F001021A603B68002B04D16E
:105AA0007B68012283F83E2013E03B68042B04D17D
:105AB0007B68012283F83F200BE03B68082B04D170
:105AC0007B68012283F8402003E07B68012283F891
:105AD00041203B68002B04D17B68012283F84220DF
