:020000040800F2
:1000000000000220C1B100089DB100089FB10008A6
:10001000A1B10008A3B10008A5B1000800000000CC
:1000200000000000000000000000000011B2000805
:10003000A7B100080000000011B20008A9B1000833
:1000400011B2000811B2000811B2000811B2000884
:1000500011B2000811B2000811B2000811B2000874
:1000600011B2000811B2000811B2000811B2000864
:1000700011B2000811B2000811B2000811B2000854
:1000800011B2000811B2000811B2000811B2000844
:1000900011B2000811B2000811B2000811B2000834
:1000A00011B2000811B2000811B2000811B2000824
:1000B00011B2000811B2000811B2000811B2000814
:1000C00011B2000811B2000811B2000811B2000804
:1000D00011B2000811B2000811B2000811B20008F4
:1000E00011B2000811B2000811B2000811B20008E4
:1000F00011B2000811B2000811B2000811B20008D4
:1001000011B2000811B2000811B2000811B20008C3
:1001100011B2000811B2000811B20008B1B1000814
:1001200011B2000811B2000811B2000811B20008A3
:1001300011B2000811B2000811B2000811B2000893
:1001400011B2000811B2000811B2000811B2000883
:1001500011B2000811B2000811B2000811B2000873
:1001600011B2000811B2000811B2000811B2000863
:1001700011B2000811B2000811B20008000000001E
:0801800011B2000811B20008E1
:100188000348044B834202D0034B03B1184770471E
:100198000C0000200C000020000000000548064B61
:1001A8001B1AD90F01EBA301491002D0034B03B16D
:1001B800184770470C0000200C00002000000000C9
:1001C80010B5064C237843B9FFF7DAFF044B13B197
:1001D8000448AFF300800123237010BD0C000020F9
:1001E800000000006CB2000808B5044B1BB10449BC
:1001F8000448AFF30080BDE80840CFE700000000E6
:10020800100000206CB2000880B400AF054BD3F892
:100218008830044A43F47003C2F8883000BFBD46F2
:1002280080BC704700ED00E080B487B000AF0023C9
:100238003B6100237B610223FB600023BB60022338
:100248007B60344B9B6803F00C033B613B69082BD4
:1002580011D03B69082B44D83B69002B03D03B697C
:10026800042B04D03DE02C4B2C4A1A603DE02A4B6D
:100278002B4A1A6039E0274B5B689B0D03F001039A
:10028800BB60244B5B6803F03F037B60BB68002BBB
:100298000CD0234A7B68B2FBF3F31E4A52689209DA
:1002A800C2F3080202FB03F37B610BE01B4A7B6885
:1002B800B2FBF3F3174A52689209C2F3080202FB31
:1002C80003F37B61134B5B681B0C03F003030133DF
:1002D8005B00FB607A69FB68B2FBF3F30E4A1360BC
:1002E80003E00D4B0D4A1A6000BF0A4B9B681B09BF
:1002F80003F00F030B4AD35C3B61074B1A683B6959
:1003080022FA03F3044A136000BF1C37BD4680BCC1
:10031800704700BF00380240000000200024F400AD
:1003280000127A0084B2000880B500AF0E4B1B683B
:100338000D4A43F4007313600B4B1B680A4A43F4DD
:1003480080631360084B1B68074A43F4807313608B
:10035800032000F0A1FB0F2000F042F800F034F871
:100368000023184680BD00BF003C024080B500AFA6
:10037800114B124A1A62104B00221A620E4B104A95
:100388005A620D4B00225A620B4B0E4A1A610A4BF5
:1003980000221A61084BC1225A61074B00225A6198
:1003A800054B01229A61044B00229A6100F012F871
:1003B8000023184680BD00BF00380240FFC9FEF682
:1003C80033797704FF11602280B400AF00BFBD46C7
:1003D80080BC704780B400AF00BFBD4680BC70478A
:1003E80080B582B000AF7860124B1A68124B1B7848
:1003F80019464FF47A73B3FBF1F3B2FBF3F31846E3
:1004080000F091FB0346002B01D001230EE07B682E
:100418000F2B0AD8002279684FF0FF3000F047FB15
:10042800064A7B681360002300E00123184608375A
:10043800BD4680BD00000020080000200400002008
:1004480080B400AF054B1B781A46054B1B68134454
:10045800034A136000BFBD4680BC704708000020F7
:100468002800002080B400AF024B1B681846BD4628
:1004780080BC70472800002080B400AF024B1B6886
:100488001846BD4680BC70470400002080B584B083
:1004980000AF0346FB710023FB730E4B1B78FA7900
:1004A8009A4212D00B4B1B78BB730A4AFB79137024
:1004B800094B1B681846FFF793FF0346FB73FB7B4A
:1004C800002B02D0034ABB7B1370FB7B1846103706
:1004D800BD4680BD080000200400002080B400AFA5
:1004E800024B1B781846BD4680BC704708000020A8
:1004F80080B584B000AF7860FFF7B4FFB8607B6860
:10050800FB60FB68B3F1FF3F05D00A4B1B781A4626
:10051800FB681344FB6000BFFFF7A4FF0246BB68FB
:10052800D31AFA689A42F7D800BF00BF1037BD4601
:1005380080BD00BF0800002080B400AF044B1B68DA
:10054800034A23F00203136000BFBD4680BC704716
:1005580010E000E080B400AF044B1B68034A43F08E
:100568000203136000BFBD4680BC704710E000E086
:1005780080B400AF024B1846BD4680BC704700BF30
:100588000002080180B400AF034B1B681B0C18461F
:10059800BD4680BC704700BF002004E080B400AFB7
:1005A800034B1B68C3F30B031846BD4680BC70475A
:1005B800002004E080B400AF044B5B68034A43F0BA
:1005C8000103536000BFBD4680BC7047002004E0B3
:1005D80080B400AF044B5B68034A23F00103536007
:1005E80000BFBD4680BC7047002004E080B400AF67
:1005F800044B5B68034A43F00203536000BFBD46E7
:1006080080BC7047002004E080B400AF044B5B68F6
:10061800034A23F00203536000BFBD4680BC704705
:10062800002004E080B400AF044B5B68034A43F049
:100638000403536000BFBD4680BC7047002004E03F
:1006480080B400AF044B5B68034A23F00403536093
:1006580000BFBD4680BC7047002004E080B400AFF6
:10066800034B01221A6000BFBD4680BC704700BF23
:100678000004274280B400AF034B00221A6000BF79
:10068800BD4680BC704700BF0004274280B400AF5D
:10069800024B1B681846BD4680BC7047107AFF1F86
:1006A80080B400AF024B1B681846BD4680BC70473B
:1006B800147AFF1F80B400AF024B1B681846BD4672
:1006C80080BC7047187AFF1F80B485B000AF78608F
:1006D8007B6803F00703FB600C4BDB68BB60BA6800
:1006E8004FF6FF031340BB60FB681A02BB68134355
:1006F80043F0BF6343F40033BB60044ABB68D36074
:1007080000BF1437BD4680BC704700BF00ED00E055
:1007180080B400AF044BDB681B0A03F007031846DC
:10072800BD4680BC704700BF00ED00E080B483B0D8
:1007380000AF0346FB7197F90730002B0BDBFB7901
:1007480003F01F02064997F907305B09012000FAF8
:1007580002F241F8232000BF0C37BD4680BC704729
:1007680000E100E080B483B000AF0346FB7197F965
:100778000730002B12DBFB7903F01F020A4997F9B7
:1007880007305B09012000FA02F2203341F82320E8
:10079800BFF34F8F00BFBFF36F8F00BF00BF0C3791
:1007A800BD4680BC704700BF00E100E080B483B064
:1007B80000AF0346FB7197F90730002B0EDB0A4A9E
:1007C80097F907305B09403352F82320FB7903F08F
:1007D8001F0322FA03F303F0010300E00023184685
:1007E8000C37BD4680BC704700E100E080B483B0A0
:1007F80000AF0346FB7197F90730002B0CDBFB7940
:1008080003F01F02074997F907305B09012000FA36
:1008180002F2403341F8232000BF0C37BD4680BCAC
:10082800704700BF00E100E080B483B000AF03462A
:10083800FB7197F90730002B0CDBFB7903F01F02E3
:10084800074997F907305B09012000FA02F2603383
:1008580041F8232000BF0C37BD4680BC704700BF5D
:1008680000E100E080B483B000AF0346FB7197F964
:100878000730002B0EDB0A4A97F907305B098033F3
:1008880052F82320FB7903F01F0322FA03F303F045
:10089800010300E0002318460C37BD4680BC7047B2
:1008A80000E100E080B483B000AF03463960FB711B
:1008B80097F90730002B0ADB3B68DAB20C4997F945
:1008C80007301201D2B20B4483F800230AE03B68D8
:1008D800DAB20849FB7903F00F03043B1201D2B2E4
:1008E8000B441A7600BF0C37BD4680BC704700BF6A
:1008F80000E100E000ED00E080B483B000AF034603
:10090800FB7197F90730002B09DB0C4A97F9073080
:10091800134493F80033DBB21B09DBB209E0084A41
:10092800FB7903F00F03043B13441B7EDBB21B0966
:10093800DBB218460C37BD4680BC704700E100E0CA
:1009480000ED00E080B489B000AFF860B9607A606B
:10095800FB6803F007037B617B69033B042B04D826
:100968007B69C3F10703FB6101E00423FB617B6939
:100978000433062B03D97B69033BBB6101E00023E9
:10098800BB614FF0FF32FB6902FA03F3DA43BB683D
:100998001A40BB699A404FF0FF31BB6901FA03F373
:1009A800D9437B680B40134318462437BD4680BCA7
:1009B800704780B489B000AFF860B9607A603B6076
:1009C800BB6803F007037B617B69033B042B04D8F6
:1009D8007B69C3F10703FB6101E00423FB617B69C9
:1009E8000433062B03D97B69033BBB6101E0002379
:1009F800BB61FA68BB69DA404FF0FF31FB6901FA65
:100A080003F3DB431A407B681A604FF0FF32BB697F
:100A180002FA03F3DA43FB681A403B681A6000BF26
:100A28002437BD4680BC704780B400AFBFF34F8FFA
:100A380000BF064BDB6803F4E0620449044B134330
:100A4800CB60BFF34F8F00BF00BFFDE700ED00E0B4
:100A58000400FA0580B582B000AF78607B68013B7E
:100A6800B3F1807F01D301230FE00A4A7B68013B81
:100A780053600F214FF0FF30FFF714FF054B0022A2
:100A88009A60044B07221A60002318460837BD46AF
:100A980080BD00BF10E000E080B582B000AF786094
:100AA8007868FFF711FE00BF0837BD4680BD80B5E6
:100AB80086B000AF0346B9607A60FB7300237B61A0
:100AC800FFF726FE78617A68B9687869FFF73AFF18
:100AD800024697F90F3011461846FFF7E3FE00BFAC
:100AE8001837BD4680BD80B582B000AF0346FB71A4
:100AF80097F907301846FFF719FE00BF0837BD46BB
:100B080080BD80B582B000AF0346FB7197F907300E
:100B18001846FFF727FE00BF0837BD4680BD80B5E1
:100B280000AFFFF781FF80B582B000AF78607868CA
:100B3800FFF790FF034618460837BD4680BD80B4CE
:100B480000AFBFF35F8F00BF064B5B6A054A23F413
:100B580080335362044B00225A6000BFBD4680BCFC
:100B6800704700BF00ED00E090ED00E080B483B076
:100B780000AF78600A4A7B6843F001035360094B71
:100B88005B6A084A43F480335362BFF34F8F00BF58
:100B9800BFF36F8F00BF00BF0C37BD4680BC7047E6
:100BA80090ED00E000ED00E080B483B000AF786025
:100BB8007B685A781D4B9A607B681B78002B29D07C
:100BC8001A4A7B685B68D3607B681B7B1A077B6863
:100BD800DB7A1B061A437B689B7ADB041A437B6823
:100BE8005B7B9B041A437B689B7B5B041A437B6893
:100BF800DB7B1B041A437B685B7A1B021A437B6806
:100C08001B7A5B0013437A6812781146074A0B4334
:100C1800136105E0054B0022DA60044B00221A61DB
:100C280000BF0C37BD4680BC704700BF90ED00E0A8
:100C380080B400AF40BF20BF00BFBD4680BC704736
:100C480080B500AFFFF764FD0346184680BD80B548
:100C580084B000AFB9607A603B600346FB7397F9D4
:100C68000F301846FFF748FE3B687A68B968FFF707
:100C7800A0FE00BF1037BD4680BD80B582B000AF72
:100C88000346FB7197F907301846FFF7AFFD00BF21
:100C98000837BD4680BD80B582B000AF0346FB7102
:100CA80097F907301846FFF781FD034618460837BD
:100CB800BD4680BD80B582B000AF0346FB7197F991
:100CC80007301846FFF7B0FD00BF0837BD4680BDA6
:100CD80080B582B000AF0346FB7197F9073018461C
:100CE800FFF7C0FD034618460837BD4680BD80B4EF
:100CF80083B000AF78607B68042B06D1084B1B6873
:100D0800074A43F00403136005E0054B1B68044AD7
:100D180023F00403136000BF0C37BD4680BC704746
:100D280010E000E080B500AF00F002F800BF80BD21
:100D380080B400AF00BFBD4680BC704780B489B0A6
:100D480000AF7860396000237B6100233B6100239A
:100D5800BB610023FB616BE10122FB6902FA03F32B
:100D68007B613B681B687A6913403B613A697B6920
:100D78009A4240F05A813B685B6803F00303012BF9
:100D880005D03B685B6803F00303022B30D17B6816
:100D98009B68BB61FB695B00032202FA03F3DB4338
:100DA800BA691340BB613B68DA68FB695B0002FA09
:100DB80003F3BA691343BB617B68BA699A607B68BD
:100DC8005B68BB610122FB6902FA03F3DB43BA6982
:100DD8001340BB613B685B681B0903F00102FB69B8
:100DE80002FA03F3BA691343BB617B68BA695A60B4
:100DF8003B685B6803F00303032B17D07B68DB6851
:100E0800BB61FB695B00032202FA03F3DB43BA69A7
:100E18001340BB613B689A68FB695B0002FA03F305
:100E2800BA691343BB617B68BA69DA603B685B687F
:100E380003F00303022B23D1FB69DA087B6808322D
:100E480053F82230BB61FB6903F007039B000F22B4
:100E580002FA03F3DB43BA691340BB613B681A69C2
:100E6800FB6903F007039B0002FA03F3BA69134313
:100E7800BB61FB69DA087B680832B96943F822105C
:100E88007B681B68BB61FB695B00032202FA03F302
:100E9800DB43BA691340BB613B685B6803F003023C
:100EA800FB695B0002FA03F3BA691343BB617B6811
:100EB800BA691A603B685B6803F44033002B00F0A2
:100EC800B4800023FB605F4B5B6C5E4A43F4804355
:100ED80053645C4B5B6C03F48043FB60FB685A4AC9
:100EE800FB699B08023352F82330BB61FB6903F0AE
:100EF80003039B000F2202FA03F3DB43BA69134092
:100F0800BB617B68514A93422BD07B68504A93421D
:100F180025D07B684F4A93421FD07B684E4A934244
:100F280019D07B684D4A934213D07B684C4A934250
:100F38000DD07B684B4A934207D07B684A4A93425C
:100F480001D107230EE008230CE006230AE005235D
:100F580008E0042306E0032304E0022302E001235F
:100F680000E00023FA6902F0030292009340BA6994
:100F78001343BB613449FB699B080233BA6941F8E2
:100F880023203A4B9B68BB613B69DB43BA6913403A
:100F9800BB613B685B6803F48013002B03D0BA691C
:100FA8003B691343BB61314ABB6993602F4BDB68D4
:100FB800BB613B69DB43BA691340BB613B685B6853
:100FC80003F40013002B03D0BA693B691343BB61D8
:100FD800264ABB69D360254B5B68BB613B69DB4331
:100FE800BA691340BB613B685B6803F40033002BAC
:100FF80003D0BA693B691343BB611C4ABB695360A0
:101008001A4B1B68BB613B69DB43BA691340BB6180
:101018003B685B6803F48033002B03D0BA693B69F3
:101028001343BB61114ABB691360FB690133FB6160
:10103800FB690F2B7FF690AE00BF00BF2437BD467B
:1010480080BC704700380240003801400000024070
:101058000004024000080240000C02400010024058
:101068000014024000180240001C0240003C0140ED
:1010780080B487B000AF7860396000233B610023FB
:10108800FB600023BB6000237B61CDE001227B690C
:1010980002FA03F33B613A683B691340FB60FA6864
:1010A8003B699A4240F0BD80644A7B699B080233E1
:1010B80052F82330BB607B6903F003039B000F22C7
:1010C80002FA03F3BA681340BB607B685C4A934238
:1010D8002BD07B685B4A934225D07B685A4A93425F
:1010E8001FD07B68594A934219D07B68584A93426B
:1010F80013D07B68574A93420DD07B68564A934277
:1011080007D07B68554A934201D107230EE0082394
:101118000CE006230AE0052308E0042306E0032385
:1011280004E0022302E0012300E000237A6902F0D0
:10113800030292009340BA689A4232D1484B1A6827
:10114800FB68DB43464913400B60454B5A68FB6814
:10115800DB43434913404B60414BDA68FB68DB4390
:101168003F491340CB603E4B9A68FB68DB433C49E0
:1011780013408B607B6903F003039B000F2202FA84
:1011880003F3BB602D4A7B699B08023352F8231096
:10119800BB68DA4329487B699B080A40023340F858
:1011A80023207B681A687B695B00032101FA03F33B
:1011B800DB431A407B681A607B69DA087B6808326F
:1011C80053F822107B6903F007039B000F2202FAF1
:1011D80003F3DB437A69D20819407B68083243F885
:1011E80022107B68DA687B695B00032101FA03F34C
:1011F800DB431A407B68DA607B685A6801217B69A7
:1012080001FA03F3DB431A407B685A607B689A68EB
:101218007B695B00032101FA03F3DB431A407B6817
:101228009A607B6901337B617B690F2B7FF62EAF58
:1012380000BF00BF1C37BD4680BC70470038014066
:10124800000002400004024000080240000C024076
:10125800001002400014024000180240001C024026
:10126800003C014080B485B000AF78600B467B80BD
:101278007B681A697B881340002B02D00123FB731B
:1012880001E00023FB73FB7B18461437BD4680BC86
:10129800704780B483B000AF78600B467B801346FC
:1012A8007B707B78002B03D07A887B689A6103E097
:1012B8007B881A047B689A6100BF0C37BD4680BCE6
:1012C800704780B485B000AF78600B467B807B6840
:1012D8005B69FB607A88FB6813401A04FB68D94392
:1012E8007B880B401A437B689A6100BF1437BD4660
:1012F80080BC704780B485B000AF78600B467B80B7
:101308004FF48033FB607A88FB681343FB60FA680C
:101318007B68DA617A887B68DA61FA687B68DA6107
:101328007B68DB69FB607B68DB6903F48033002B37
:1013380001D0002300E0012318461437BD4680BCC5
:10134800704780B582B000AF0346FB80084B5A69EE
:10135800FB881340002B06D0054AFB885361FB88A5
:10136800184600F007F800BF0837BD4680BD00BF2B
:10137800003C014080B483B000AF0346FB8000BF4F
:101388000C37BD4680BC704780B400AF00231846B8
:10139800BD4680BC704780B586B000AF78607B687A
:1013A800002B01D1012368E27B681B6803F001036D
:1013B800002B75D0884B9B6803F00C03042B0CD0D2
:1013C800854B9B6803F00C03082B12D1824B5B689A
:1013D80003F48003B3F5800F0BD17F4B1B6803F434
:1013E8000033002B5BD07B685B68002B57D101234F
:1013F80043E27B685B68B3F5803F06D1764B1B6898
:10140800754A43F4803313601DE07B685B68B3F56D
:10141800A02F0CD1704B1B686F4A43F480231360D4
:101428006D4B1B686C4A43F4803313600BE06A4BC6
:101438001B68694A23F480331360674B1B68664A4C
:1014480023F4802313607B685B68002B13D0FFF7BD
:1014580009F8386108E0FFF705F802463B69D31A36
:10146800642B01D9032308E25B4B1B6803F40033A8
:10147800002BF0D014E0FEF7F5FF386108E0FEF726
:10148800F1FF02463B69D31A642B01D90323F4E127
:10149800514B1B6803F40033002BF0D100E000BF70
:1014A8007B681B6803F00203002B63D04A4B9B68E0
:1014B80003F00C03002B0BD0474B9B6803F00C0385
:1014C800082B1CD1444B5B6803F48003002B16D116
:1014D800414B1B6803F00203002B05D07B68DB68D7
:1014E800012B01D00123C8E13B4B1B6823F0F80214
:1014F8007B681B69DB00384913430B603AE07B6863
:10150800DB68002B20D0354B01221A60FEF7AAFFBA
:10151800386108E0FEF7A6FF02463B69D31A022BA2
:1015280001D90323A9E12C4B1B6803F00203002B0C
:10153800F0D0294B1B6823F0F8027B681B69DB009D
:10154800254913430B6015E0244B00221A60FEF76F
:1015580089FF386108E0FEF785FF02463B69D31A28
:10156800022B01D9032388E11B4B1B6803F00203FC
:10157800002BF0D17B681B6803F00803002B37D0E1
:101588007B685B69002B16D0154B01221A60FEF7A9
:1015980069FF386108E0FEF765FF02463B69D31A28
:1015A800022B01D9032368E10B4B5B6F03F00203A5
:1015B800002BF0D01CE00A4B00221A60FEF752FF05
:1015C80038610FE0FEF74EFF02463B69D31A022B43
:1015D80008D9032351E100BF003802400000474208
:1015E800800E4742884B5B6F03F00203002BE9D162
:1015F8007B681B6803F00403002B00F0978000232E
:10160800FB75814B1B6C03F08053002B0FD100231B
:10161800BB607D4B1B6C7C4A43F0805313647A4B50
:101628001B6C03F08053BB60BB680123FB75774BD1
:101638001B6803F48073002B18D1744B1B68734A22
:1016480043F480731360FEF70DFF386108E0FEF77E
:1016580009FF02463B69D31A022B01D903230CE187
:101668006A4B1B6803F48073002BF0D07B689B687F
:10167800012B06D1644B1B6F634A43F001031367C8
:101688001CE07B689B68052B0CD15F4B1B6F5E4A87
:1016980043F0040313675C4B1B6F5B4A43F0010381
:1016A80013670BE0584B1B6F574A23F0010313676E
:1016B800554B1B6F544A23F0040313677B689B68E0
:1016C800002B15D0FEF7CEFE38610AE0FEF7CAFE01
:1016D80002463B69D31A41F28832934201D9032367
:1016E800CBE0494B1B6F03F00203002BEED014E054
:1016F800FEF7B8FE38610AE0FEF7B4FE02463B6921
:10170800D31A41F28832934201D90323B5E03E4B04
:101718001B6F03F00203002BEED1FB7D012B05D1DB
:10172800394B1B6C384A23F0805313647B689B69E0
:10173800002B00F0A180344B9B6803F00C03082BAE
:101748005CD07B689B69022B41D1314B00221A6027
:10175800FEF788FE386108E0FEF784FE02463B6922
:10176800D31A022B01D9032387E0274B1B6803F008
:101778000073002BF0D17B68DA697B681B6A1A4317
:101788007B685B6A9B011A437B689B6A5B08013B29
:101798001B041A437B68DB6A1B061B4913434B6017
:1017A8001B4B01221A60FEF75DFE386108E0FEF768
:1017B80059FE02463B69D31A022B01D903235CE088
:1017C800114B1B6803F00073002BF0D054E0104B52
:1017D80000221A60FEF746FE386108E0FEF742FE76
:1017E80002463B69D31A022B01D9032345E0064B75
:1017F8001B6803F00073002BF0D13DE07B689B6908
:10180800012B07D1012338E0003802400070004066
:10181800600047421B4B5B68FB607B689B69012B40
:1018280028D0FB6803F480027B68DB699A4221D1E7
:10183800FB6803F03F027B681B6A9A421AD1FA6878
:1018480047F6C07313407A68526A9201934211D1E5
:10185800FB6803F440327B689B6A5B08013B1B040E
:101868009A4207D1FB6803F070627B68DB6A1B064B
:101878009A4201D0012300E0002318461837BD46DC
:1018880080BD00BF0038024080B584B000AF7860EA
:1018980039607B68002B01D10123CCE0684B1B68C1
:1018A80003F007033A689A420CD9654B3A68D2B2FA
:1018B8001A70634B1B6803F007033A689A4201D019
:1018C8000123B8E07B681B6803F00203002B20D0DB
:1018D8007B681B6803F00403002B05D0594B9B68F9
:1018E800584A43F4E05393607B681B6803F008038D
:1018F800002B05D0534B9B68524A43F460439360D6
:10190800504B9B6823F0F0027B689B684D4913435A
:101918008B607B681B6803F00103002B44D07B6855
:101928005B68012B07D1474B1B6803F40033002B7E
:1019380019D101237FE07B685B68022B03D07B68A9
:101948005B68032B07D13F4B1B6803F00073002B28
:1019580009D101236FE03B4B1B6803F00203002B06
:1019680001D1012367E0374B9B6823F003027B68B2
:101978005B68344913438B60FEF774FDF8600AE036
:10198800FEF770FD0246FB68D31A41F28832934293
:1019980001D903234FE02B4B9B6803F00C027B68B3
:1019A8005B689B009A42EBD1254B1B6803F0070349
:1019B8003A689A420CD2224B3A68D2B21A70204B3B
:1019C8001B6803F007033A689A4201D0012332E00A
:1019D8007B681B6803F00403002B08D0194B9B6835
:1019E80023F4E0527B68DB68164913438B607B68FD
:1019F8001B6803F00803002B09D0124B9B6823F4E3
:101A080060427B681B69DB000E4913438B6000F062
:101A1800A1F802460B4B9B681B0903F00F030A4908
:101A2800CB5C22FA03F3094A1360094B1B6818467A
:101A3800FEF7D6FC002318461037BD4680BD00BF10
:101A4800003C02400038024084B200080000002038
:101A58000400002080B58CB000AFF860B9607A60EF
:101A6800FB68002B29D10023BB612B4B1B6B2A4A37
:101A780043F001031363284B1B6B03F00103BB61A5
:101A8800BB694FF48073FB6102233B620323BB6293
:101A980000237B620023FB6207F11C0319461F48E1
:101AA800FFF74CF91C4B9B6823F0EC62B9687B6824
:101AB8000B43194913438B6029E000237B61164BC4
:101AC8001B6B154A43F004031363134B1B6B03F0A2
:101AD80004037B617B694FF40073FB6102233B6263
:101AE8000323BB6200237B620023FB6207F11C0314
:101AF80019460B48FFF722F9074B9B6823F07842F9
:101B08007B68D900BB680B43034913438B6000BF54
:101B18003037BD4680BD00BF00380240000002409B
:101B28000008024080B400AF034B01221A6000BFD6
:101B3800BD4680BC704700BF4C00474280B400AF30
:101B4800034B00221A6000BFBD4680BC704700BF2F
:101B58004C0047422DE9B04F94B000AF00237B649E
:101B68000023FB6400233B640023BB64794B9B6820
:101B780003F00C03082B0DD0082B00F2E180002B9A
:101B880002D0042B03D0DBE0734BBB64DBE0734B68
:101B9800BB64D8E06F4B5B6803F03F037B646D4B1D
:101BA8005B6803F48003002B63D06A4B5B689B0976
:101BB8000022BB63FA63BB6BC3F308033B630023D8
:101BC8007B63D7E90C4522462B464FF000004FF0C7
:101BD8000001590141EAD261500102460B462146F3
:101BE800511A3961294663EB01037B614FF000020A
:101BF8004FF00003D7E904AB59468B01514643EA3D
:101C0800916351468A015146B2EB0108594663EB8C
:101C180001094FF000024FF000034FEAC90343EAFD
:101C280058734FEAC80290469946234618EB0303B7
:101C3800BB602B4649EB0303FB604FF000024FF0FB
:101C48000003D7E9024529464B02214643EAD1530E
:101C580021464A02104619467B6C0022BB62FA6292
:101C6800D7E90A2308F0D0FF02460B461346FB6467
:101C780058E0384B5B689B09002218461146C0F3B0
:101C880008033B6200237B62D7E9088942464B463A
:101C98004FF000004FF00001590141EAD2615001B4
:101CA80002460B464146B2EB010A494663EB010B7B
:101CB8004FF000024FF000034FEA8B1343EA9A6398
:101CC8004FEA8A12B2EB0A0463EB0B054FF00002ED
:101CD8004FF00003EB0043EA5473E20014461D463C
:101CE8004346E3183B604B4645EB03037B604FF0EC
:101CF80000024FF00003D7E9004529468B02214630
:101D080043EA915321468A02104619467B6C002209
:101D1800BB61FA61D7E9062308F076FF02460B4655
:101D28001346FB640B4B5B681B0C03F00303013386
:101D38005B003B64FA6C3B6CB2FBF3F3BB6402E000
:101D4800054BBB6400BFBB6C18465037BD46BDE8A9
:101D5800B08F00BF003802400024F40000127A005F
:101D680080B400AF024B1B681846BD4680BC704764
:101D78000000002080B500AFFFF7F2FF0246054BD8
:101D88009B689B0A03F007030349CB5C22FA03F321
:101D9800184680BD0038024094B2000880B500AFF4
:101DA800FFF7DEFF0246054B9B685B0B03F007035A
:101DB8000349CB5C22FA03F3184680BD0038024081
:101DC80094B2000880B483B000AF78607B680F22BB
:101DD8001A60454B1B6803F48023B3F5802F04D1A8
:101DE8007B684FF4A0225A600EE03F4B1B6803F457
:101DF8008033B3F5803F04D17B684FF480325A605A
:101E080002E07B6800225A60374B1B6803F001032D
:101E1800012B03D17B680122DA6002E07B68002293
:101E2800DA60314B1B68DB0803F01F027B681A611C
:101E38002D4B1B6F03F00403042B03D17B68052291
:101E48009A600CE0284B1B6F03F00103012B03D1B0
:101E58007B6801229A6002E07B6800229A60224B2C
:101E68005B6F03F00103012B03D17B6801225A61E8
:101E780002E07B6800225A611B4B1B6803F08073E9
:101E8800B3F1807F03D17B6802229A6102E07B680C
:101E980001229A61144B5B6803F480027B68DA6163
:101EA800114B5B6803F03F027B681A620E4B5B685C
:101EB8009B09C3F308027B685A620B4B5B6803F407
:101EC800403303F580335B001A0C7B689A62064B3B
:101ED8005B681B0E03F00F027B68DA6200BF0C37E9
:101EE800BD4680BC704700BF0038024080B483B054
:101EF80000AF786039607B680F221A60114B9B68CD
:101F080003F003027B685A600E4B9B6803F0F002F3
:101F18007B689A600B4B9B6803F4E0527B68DA603D
:101F2800084B9B68DB0803F4E0527B681A61064B98
:101F38001B6803F007023B681A6000BF0C37BD46F8
:101F480080BC704700380240003C024080B500AFBA
:101F5800064BDB6803F08003802B04D100F00AF8FD
:101F6800034B80221A7000BF80BD00BF00380240BA
:101F78000E38024080B400AF00BFBD4680BC704739
:101F880080B582B000AF78607B68002B01D1012357
:101F980041E07B6893F83D30DBB2002B06D17B68CB
:101FA800002283F83C20786809F0D4F87B68022284
:101FB80083F83D207B681A687B680433194610460D
:101FC80005F036F97B68012283F846207B680122F8
:101FD80083F83E207B68012283F83F207B6801223A
:101FE80083F840207B68012283F841207B68012226
:101FF80083F842207B68012283F843207B68012212
:1020080083F844207B68012283F845207B680122FD
:1020180083F83D20002318460837BD4680BD80B5AB
:1020280082B000AF78607B68022283F83D207B682D
:102038001B681A6A41F211131340002B0FD17B68F9
:102048001B681A6A40F244431340002B07D17B688F
:102058001B681A687B681B6822F001021A6078689E
:1020680000F03AF87B68002283F846207B6800225B
:1020780083F83E207B68002283F83F207B6800229B
:1020880083F840207B68002283F841207B68002287
:1020980083F842207B68002283F843207B68002273
:1020A80083F844207B68002283F845207B6800225F
:1020B80083F83D207B68002283F83C2000231846E3
:1020C8000837BD4680BD80B483B000AF786000BFDC
:1020D8000C37BD4680BC704780B483B000AF7860D1
:1020E80000BF0C37BD4680BC704780B485B000AFD8
:1020F80078607B6893F83D30DBB2012B01D0012377
:1021080046E07B68022283F83D207B681B68234AEF
:10211800934222D07B681B68B3F1804F1DD07B6847
:102128001B681F4A934218D07B681B681D4A93425C
:1021380013D07B681B681C4A93420ED07B681B68CF
:102148001A4A934209D07B681B68194A934204D003
:102158007B681B68174A934211D17B681B689B6890
:1021680003F00703FB60FB68062B10D07B681B6835
:102178001A687B681B6842F001021A6007E07B68F6
:102188001B681A687B681B6842F001021A6000230A
:1021980018461437BD4680BC704700BF0000014098
:1021A8000004004000080040000C0040000401400A
:1021B800004001400018004080B483B000AF786050
:1021C8007B681B681A6A41F211131340002B0FD168
:1021D8007B681B681A6A40F244431340002B07D1FE
:1021E8007B681B681A687B681B6822F001021A600A
:1021F8007B68012283F83D20002318460C37BD4632
:1022080080BC704780B485B000AF78607B6893F875
:102218003D30DBB2012B01D001234EE07B68022266
:1022280083F83D207B681B68DA687B681B6842F08E
:102238000102DA607B681B68224A934222D07B68DD
:102248001B68B3F1804F1DD07B681B681E4A934200
:1022580018D07B681B681D4A934213D07B681B68A3
:102268001B4A93420ED07B681B681A4A934209D0D6
:102278007B681B68184A934204D07B681B68174A1E
:10228800934211D17B681B689B6803F00703FB60CE
:10229800FB68062B10D07B681B681A687B681B6874
:1022A80042F001021A6007E07B681B681A687B68C5
:1022B8001B6842F001021A60002318461437BD4615
:1022C80080BC704700000140000400400008004046
:1022D800000C00400004014000400140001800408C
:1022E80080B483B000AF78607B681B68DA687B686D
:1022F8001B6822F00102DA607B681B681A6A41F2E7
:1023080011131340002B0FD17B681B681A6A40F227
:1023180044431340002B07D17B681B681A687B680D
:102328001B6822F001021A607B68012283F83D20B5
:10233800002318460C37BD4680BC704780B586B070
:1023480000AFF860B9601346FB80FB6893F83D3036
:10235800DBB2022B01D102237AE0FB6893F83D300F
:10236800DBB2012B25D1BB68002B02D0FB88002BE8
:1023780001D101236CE0FB68022283F83D20FB6851
:102388001B6A354ADA63FB681B6A344A1A64FB68BD
:102398001B6A334ADA64FB68186AB968FB681B6809
:1023A8002C331A46FB8807F01AFF0346002B04D08B
:1023B80001E001234CE001234AE0FB681B68DA686E
:1023C800FB681B6842F48072DA60FB681B68254A68
:1023D800934222D0FB681B68B3F1804F1DD0FB6885
:1023E8001B68214A934218D0FB681B681F4A934216
:1023F80013D0FB681B681E4A93420ED0FB681B680B
:102408001C4A934209D0FB681B681B4A934204D0BC
:10241800FB681B68194A934211D1FB681B689B68CB
:1024280003F007037B617B69062B10D0FB681B68F0
:102438001A68FB681B6842F001021A6007E0FB6833
:102448001B681A68FB681B6842F001021A600023C7
:1024580018461837BD4680BDA5710008D37100081D
:10246800D36E00080000014000040040000800404E
:10247800000C0040000401400040014000180040EA
:1024880080B582B000AF78607B681B68DA687B68CB
:102498001B6822F48072DA607B681B6A184607F0B2
:1024A80066FF7B681B681A6A41F211131340002B00
:1024B8000FD17B681B681A6A40F244431340002B13
:1024C80007D17B681B681A687B681B6822F00102C9
:1024D8001A607B68012283F83D20002318460837DC
:1024E800BD4680BD80B582B000AF78607B68002BA8
:1024F80001D1012341E07B6893F83D30DBB2002B2A
:1025080006D17B68002283F83C20786800F08DF8BB
:102518007B68022283F83D207B681A687B68043355
:102528001946104604F084FE7B68012283F8462091
:102538007B68012283F83E207B68012283F83F20D4
:102548007B68012283F840207B68012283F84120C0
:102558007B68012283F842207B68012283F84320AC
:102568007B68012283F844207B68012283F8452098
:102578007B68012283F83D20002318460837BD46B2
:1025880080BD80B582B000AF78607B68022283F896
:102598003D207B681B681A6A41F211131340002B17
:1025A8000FD17B681B681A6A40F244431340002B22
:1025B80007D17B681B681A687B681B6822F00102D8
:1025C8001A60786800F03AF87B68002283F84620A1
:1025D8007B68002283F83E207B68002283F83F2036
:1025E8007B68002283F840207B68002283F8412022
:1025F8007B68002283F842207B68002283F843200E
:102608007B68002283F844207B68002283F84520F9
:102618007B68002283F83D207B68002283F83C20F9
:10262800002318460837BD4680BD80B483B000AF8C
:10263800786000BF0C37BD4680BC704780B483B05B
:1026480000AF786000BF0C37BD4680BC704780B5CE
:1026580084B000AF786039603B68002B09D17B6893
:1026680093F83E30DBB2012B14BF01230023DBB209
:1026780022E03B68042B09D17B6893F83F30DBB23A
:10268800012B14BF01230023DBB215E03B68082BA4
:1026980009D17B6893F84030DBB2012B14BF0123CA
:1026A8000023DBB208E07B6893F84130DBB2012BF2
:1026B80014BF01230023DBB2002B01D001237CE0EF
:1026C8003B68002B04D17B68022283F83E2013E08C
:1026D8003B68042B04D17B68022283F83F200BE07F
:1026E8003B68082B04D17B68022283F8402003E072
:1026F8007B68022283F841207B681B6801223968C5
:10270800184605F038FA7B681B682E4A934204D0B5
:102718007B681B682C4A934201D1012300E0002307
:10272800002B07D07B681B685A6C7B681B6842F4D7
:1027380000425A647B681B68224A934222D07B6815
:102748001B68B3F1804F1DD07B681B681F4A9342FA
:1027580018D07B681B681E4A934213D07B681B689D
:102768001C4A93420ED07B681B68174A934209D0D3
:102778007B681B68184A934204D07B681B68174A19
:10278800934211D17B681B689B6803F00703FB60C9
:10279800FB68062B10D07B681B681A687B681B686F
:1027A80042F001021A6007E07B681B681A687B68C0
:1027B8001B6842F001021A60002318461037BD4614
:1027C80080BD00BF0000014000040140000400403B
:1027D80000080040000C0040004001400018004084
:1027E80080B582B000AF786039607B681B680022D2
:1027F8003968184605F0BFF97B681B682E4A934272
:1028080004D07B681B682D4A934201D1012300E064
:102818000023002B17D07B681B681A6A41F211133A
:102828001340002B0FD17B681B681A6A40F244439F
:102838001340002B07D17B681B685A6C7B681B68A8
:1028480022F400425A647B681B681A6A41F2111329
:102858001340002B0FD17B681B681A6A40F244436F
:102868001340002B07D17B681B681A687B681B68BC
:1028780022F001021A603B68002B04D17B68012218
:1028880083F83E2013E03B68042B04D17B680122C7
:1028980083F83F200BE03B68082B04D17B680122BA
:1028A80083F8402003E07B68012283F8412000235D
:1028B80018460837BD4680BD0000014000040140AD
:1028C80080B584B000AF786039600023FB733B6843
:1028D800002B09D17B6893F83E30DBB2012B14BF83
:1028E80001230023DBB222E03B68042B09D17B687B
:1028F80093F83F30DBB2012B14BF01230023DBB276
:1029080015E03B68082B09D17B6893F84030DBB2AF
:10291800012B14BF01230023DBB208E07B6893F886
:102928004130DBB2012B14BF01230023DBB2002BA3
:1029380001D00123B9E03B68002B04D17B68022257
:1029480083F83E2013E03B68042B04D17B68022205
:1029580083F83F200BE03B68082B04D17B680222F8
:1029680083F8402003E07B68022283F841203B681B
:102978000C2B2AD03B680C2B30D83B68082B1BD07B
:102988003B68082B2AD83B68002B03D03B68042BF4
:1029980009D023E07B681B68DA687B681B6842F013
:1029A8000202DA601DE07B681B68DA687B681B68D6
:1029B80042F00402DA6014E07B681B68DA687B681E
:1029C8001B6842F00802DA600BE07B681B68DA6873
:1029D8007B681B6842F01002DA6002E00123FB7397
:1029E80000BFFB7B002B5FD17B681B680122396825
:1029F800184605F0C0F87B681B682E4A934204D03D
:102A08007B681B682C4A934201D1012300E0002314
:102A1800002B07D07B681B685A6C7B681B6842F4E4
:102A280000425A647B681B68224A934222D07B6822
:102A38001B68B3F1804F1DD07B681B681F4A934207
:102A480018D07B681B681E4A934213D07B681B68AA
:102A58001C4A93420ED07B681B68174A934209D0E0
:102A68007B681B68184A934204D07B681B68174A26
:102A7800934211D17B681B689B6803F00703BB6016
:102A8800BB68062B10D07B681B681A687B681B68BC
:102A980042F001021A6007E07B681B681A687B68CD
:102AA8001B6842F001021A60FB7B18461037BD46CE
:102AB80080BD00BF00000140000401400004004048
:102AC80000080040000C0040004001400018004091
:102AD80080B584B000AF786039600023FB733B6831
:102AE8000C2B2AD03B680C2B30D83B68082B1BD00A
:102AF8003B68082B2AD83B68002B03D03B68042B83
:102B080009D023E07B681B68DA687B681B6822F0C1
:102B18000202DA601DE07B681B68DA687B681B6864
:102B280022F00402DA6014E07B681B68DA687B68CC
:102B38001B6822F00802DA600BE07B681B68DA6821
:102B48007B681B6822F01002DA6002E00123FB7345
:102B580000BFFB7B002B61D17B681B6800223968B2
:102B6800184605F008F87B681B682F4A934204D082
:102B78007B681B682D4A934201D1012300E00023A2
:102B8800002B17D07B681B681A6A41F21113134097
:102B9800002B0FD17B681B681A6A40F2444313402C
:102BA800002B07D17B681B685A6C7B681B6822F472
:102BB80000425A647B681B681A6A41F21113134079
:102BC800002B0FD17B681B681A6A40F244431340FC
:102BD800002B07D17B681B681A687B681B6822F08A
:102BE80001021A603B68002B04D17B68012283F83C
:102BF8003E2013E03B68042B04D17B68012283F854
:102C08003F200BE03B68082B04D17B68012283F846
:102C1800402003E07B68012283F84120FB7B1846B3
:102C28001037BD4680BD00BF0000014000040140D0
:102C380080B586B000AFF860B9607A607B80002309
:102C4800FB75BB68002B09D1FB6893F83E30DBB2FB
:102C5800022B0CBF01230023DBB222E0BB68042B4C
:102C680009D1FB6893F83F30DBB2022B0CBF01237C
:102C78000023DBB215E0BB68082B09D1FB6893F889
:102C88004030DBB2022B0CBF01230023DBB208E08B
:102C9800FB6893F84130DBB2022B0CBF0123002301
:102CA800DBB2002B01D0022364E1BB68002B09D101
:102CB800FB6893F83E30DBB2012B0CBF01230023E5
:102CC800DBB222E0BB68042B09D1FB6893F83F30E4
:102CD800DBB2012B0CBF01230023DBB215E0BB687C
:102CE800082B09D1FB6893F84030DBB2012B0CBFED
:102CF80001230023DBB208E0FB6893F84130DBB224
:102D0800012B0CBF01230023DBB2002B24D07B68EE
:102D1800002B02D07B88002B01D101232AE1BB685C
:102D2800002B04D1FB68022283F83E2016E0BB6822
:102D3800042B04D1FB68022283F83F200EE0BB6815
:102D4800082B04D1FB68022283F8402006E0FB68C8
:102D5800022283F8412001E001230BE1BB680C2B20
:102D68007DD0BB680C2B00F29E80BB68082B52D02C
:102D7800BB68082B00F29780BB68002B03D0BB68A8
:102D8800042B24D08FE0FB685B6A7C4ADA63FB681B
:102D98005B6A7B4A1A64FB685B6A7A4ADA64FB6896
:102DA800586A7968FB681B6834331A467B8807F0D1
:102DB80016FA0346002B01D00123DBE0FB681B68F1
:102DC800DA68FB681B6842F40072DA606EE0FB6840
:102DD8009B6A6A4ADA63FB689B6A694A1A64FB68F9
:102DE8009B6A684ADA64FB68986A7968FB681B68BA
:102DF80038331A467B8807F0F2F90346002B01D0D6
:102E08000123B7E0FB681B68DA68FB681B6842F4BB
:102E18008062DA604AE0FB68DB6A584ADA63FB687A
:102E2800DB6A574A1A64FB68DB6A564ADA64FB684D
:102E3800D86A7968FB681B683C331A467B8807F0B8
:102E4800CEF90346002B01D0012393E0FB681B68F1
:102E5800DA68FB681B6842F40062DA6026E0FB6807
:102E68001B6B464ADA63FB681B6B454A1A64FB68AE
:102E78001B6B444ADA64FB68186B7968FB681B684B
:102E880040331A467B8807F0AAF90346002B01D085
:102E980001236FE0FB681B68DA68FB681B6842F473
:102EA8008052DA6002E00123FB7500BFFB7D002B36
:102EB8005FD1FB681B680122B968184604F05BFE05
:102EC800FB681B68304A934204D0FB681B682F4A92
:102ED800934201D1012300E00023002B07D0FB68B7
:102EE8001B685A6CFB681B6842F400425A64FB6812
:102EF8001B68254A934222D0FB681B68B3F1804FB8
:102F08001DD0FB681B68224A934218D0FB681B68D7
:102F1800204A934213D0FB681B681F4A93420ED085
:102F2800FB681B68194A934209D0FB681B681B4A57
:102F3800934204D0FB681B68194A934211D1FB687D
:102F48001B689B6803F007033B613B69062B10D0A5
:102F5800FB681B681A68FB681B6842F001021A606C
:102F680007E0FB681B681A68FB681B6842F00102EF
:102F78001A60FB7D18461837BD4680BD656F00088E
:102F88000D700008D36E00080000014000040140E5
:102F98000004004000080040000C004000400140D0
:102FA8000018004080B584B000AF78603960002315
:102FB800FB733B680C2B39D03B680C2B44D83B681F
:102FC800082B25D03B68082B3ED83B68002B03D044
:102FD8003B68042B0ED037E07B681B68DA687B6897
:102FE8001B6822F40072DA607B685B6A184607F097
:102FF800BEF92CE07B681B68DA687B681B6822F4E2
:103008008062DA607B689B6A184607F0B0F91EE0B8
:103018007B681B68DA687B681B6822F40062DA60E8
:103028007B68DB6A184607F0A2F910E07B681B682A
:10303800DA687B681B6822F48052DA607B681B6B55
:10304800184607F094F902E00123FB7300BFFB7BED
:10305800002B61D17B681B6800223968184604F090
:103068008AFD7B681B682F4A934204D07B681B68E3
:103078002D4A934201D1012300E00023002B17D0F1
:103088007B681B681A6A41F211131340002B0FD199
:103098007B681B681A6A40F244431340002B07D12F
:1030A8007B681B685A6C7B681B6822F400425A6470
:1030B8007B681B681A6A41F211131340002B0FD169
:1030C8007B681B681A6A40F244431340002B07D1FF
:1030D8007B681B681A687B681B6822F001021A600B
:1030E8003B68002B04D17B68012283F83E2013E063
:1030F8003B68042B04D17B68012283F83F200BE056
:103108003B68082B04D17B68012283F8402003E048
:103118007B68012283F84120FB7B18461037BD46A7
:1031280080BD00BF000001400004014080B582B0AE
:1031380000AF78607B68002B01D1012341E07B68F8
:1031480093F83D30DBB2002B06D17B68002283F870
:103158003C20786800F08DF87B68022283F83D20D7
:103168007B681A687B6804331946104604F060F8D7
:103178007B68012283F846207B68012283F83E2081
:103188007B68012283F83F207B68012283F8402076
:103198007B68012283F841207B68012283F8422062
:1031A8007B68012283F843207B68012283F844204E
:1031B8007B68012283F845207B68012283F83D2043
:1031C800002318460837BD4680BD80B582B000AFE1
:1031D80078607B68022283F83D207B681B681A6A46
:1031E80041F211131340002B0FD17B681B681A6A38
:1031F80040F244431340002B07D17B681B681A68D0
:103208007B681B6822F001021A60786800F03AF8BF
:103218007B68002283F846207B68002283F83E20E2
:103228007B68002283F83F207B68002283F84020D7
:103238007B68002283F841207B68002283F84220C3
:103248007B68002283F843207B68002283F84420AF
:103258007B68002283F845207B68002283F83D20A4
:103268007B68002283F83C20002318460837BD46B7
:1032780080BD80B483B000AF786000BF0C37BD4616
:1032880080BC704780B483B000AF786000BF0C3753
:10329800BD4680BC704780B584B000AF78603960A7
:1032A8003B68002B09D17B6893F83E30DBB2012BD9
:1032B80014BF01230023DBB222E03B68042B09D1B1
:1032C8007B6893F83F30DBB2012B14BF0123002346
:1032D800DBB215E03B68082B09D17B6893F84030D6
:1032E800DBB2012B14BF01230023DBB208E07B68AB
:1032F80093F84130DBB2012B14BF01230023DBB26A
:10330800002B01D001237CE03B68002B04D17B68B3
:10331800022283F83E2013E03B68042B04D17B682B
:10332800022283F83F200BE03B68082B04D17B681E
:10333800022283F8402003E07B68022283F84120C0
:103348007B681B6801223968184604F014FC7B6806
:103358001B682E4A934204D07B681B682C4A934210
:1033680001D1012300E00023002B07D07B681B68F4
:103378005A6C7B681B6842F400425A647B681B687D
:10338800224A934222D07B681B68B3F1804F1DD03C
:103398007B681B681F4A934218D07B681B681E4ACB
:1033A800934213D07B681B681C4A93420ED07B68FB
:1033B8001B68174A934209D07B681B68184A9342D6
:1033C80004D07B681B68174A934211D17B681B683D
:1033D8009B6803F00703FB60FB68062B10D07B6833
:1033E8001B681A687B681B6842F001021A6007E0D4
:1033F8007B681B681A687B681B6842F001021A60C8
:10340800002318461037BD4680BD00BF00000140AC
:10341800000401400004004000080040000C004087
:10342800004001400018004080B582B000AF7860CD
:1034380039607B681B6800223968184604F09BFBDA
:103448007B681B682E4A934204D07B681B682D4A10
:10345800934201D1012300E00023002B17D07B68A1
:103468001B681A6A41F211131340002B0FD17B68B5
:103478001B681A6A40F244431340002B07D17B684B
:103488001B685A6C7B681B6822F400425A647B688C
:103498001B681A6A41F211131340002B0FD17B6885
:1034A8001B681A6A40F244431340002B07D17B681B
:1034B8001B681A687B681B6822F001021A603B6867
:1034C800002B04D17B68012283F83E2013E03B687F
:1034D800042B04D17B68012283F83F200BE03B6872
:1034E800082B04D17B68012283F8402003E07B6825
:1034F800012283F84120002318460837BD4680BDC5
:10350800000001400004014080B584B000AF78603D
:1035180039600023FB733B68002B09D17B6893F863
:103528003E30DBB2012B14BF01230023DBB222E0C3
:103538003B68042B09D17B6893F83F30DBB2012B41
:1035480014BF01230023DBB215E03B68082B09D127
:103558007B6893F84030DBB2012B14BF01230023B2
:10356800DBB208E07B6893F84130DBB2012B14BF73
:1035780001230023DBB2002B01D00123B9E03B6813
:10358800002B04D17B68022283F83E2013E03B68BD
:10359800042B04D17B68022283F83F200BE03B68B0
:1035A800082B04D17B68022283F8402003E07B6863
:1035B800022283F841203B680C2B2AD03B680C2B55
:1035C80030D83B68082B1BD03B68082B2AD83B68AF
:1035D800002B03D03B68042B09D023E07B681B68D1
:1035E800DA687B681B6842F00202DA601DE07B68DB
:1035F8001B68DA687B681B6842F00402DA6014E032
:103608007B681B68DA687B681B6842F00802DA602E
:103618000BE07B681B68DA687B681B6842F0100265
:10362800DA6002E00123FB7300BFFB7B002B5FD154
:103638007B681B6801223968184604F09CFA7B688D
:103648001B682E4A934204D07B681B682C4A93421D
:1036580001D1012300E00023002B07D07B681B6801
:103668005A6C7B681B6842F400425A647B681B688A
:10367800224A934222D07B681B68B3F1804F1DD049
:103688007B681B681F4A934218D07B681B681E4AD8
:10369800934213D07B681B681C4A93420ED07B6808
:1036A8001B68174A934209D07B681B68184A9342E3
:1036B80004D07B681B68174A934211D17B681B684A
:1036C8009B6803F00703BB60BB68062B10D07B68C0
:1036D8001B681A687B681B6842F001021A6007E0E1
:1036E8007B681B681A687B681B6842F001021A60D5
:1036F800FB7B18461037BD4680BD00BF0000014067
:10370800000401400004004000080040000C004094
:10371800004001400018004080B584B000AF7860D8
:1037280039600023FB733B680C2B2AD03B680C2BB9
:1037380030D83B68082B1BD03B68082B2AD83B683D
:10374800002B03D03B68042B09D023E07B681B685F
:10375800DA687B681B6822F00202DA601DE07B6889
:103768001B68DA687B681B6822F00402DA6014E0E0
:103778007B681B68DA687B681B6822F00802DA60DD
:103788000BE07B681B68DA687B681B6822F0100214
:10379800DA6002E00123FB7300BFFB7B002B61D1E1
:1037A8007B681B6800223968184604F0E4F97B68D6
:1037B8001B682F4A934204D07B681B682D4A9342AA
:1037C80001D1012300E00023002B17D07B681B6880
:1037D8001A6A41F211131340002B0FD17B681B6842
:1037E8001A6A40F244431340002B07D17B681B68D8
:1037F8005A6C7B681B6822F400425A647B681B6819
:103808001A6A41F211131340002B0FD17B681B6811
:103818001A6A40F244431340002B07D17B681B68A7
:103828001A687B681B6822F001021A603B68002B4B
:1038380004D17B68012283F83E2013E03B68042B07
:1038480004D17B68012283F83F200BE03B68082BFA
:1038580004D17B68012283F8402003E07B680122C1
:1038680083F84120FB7B18461037BD4680BD00BF5A
:10387800000001400004014080B586B000AFF86048
:10388800B9607A607B800023FB75BB68002B09D187
:10389800FB6893F83E30DBB2022B0CBF01230023F8
:1038A800DBB222E0BB68042B09D1FB6893F83F30F8
:1038B800DBB2022B0CBF01230023DBB215E0BB688F
:1038C800082B09D1FB6893F84030DBB2022B0CBF00
:1038D80001230023DBB208E0FB6893F84130DBB238
:1038E800022B0CBF01230023DBB2002B01D00223E3
:1038F80064E1BB68002B09D1FB6893F83E30DBB26A
:10390800012B0CBF01230023DBB222E0BB68042B90
:1039180009D1FB6893F83F30DBB2012B0CBF0123C0
:103928000023DBB215E0BB68082B09D1FB6893F8CC
:103938004030DBB2012B0CBF01230023DBB208E0CF
:10394800FB6893F84130DBB2012B0CBF0123002345
:10395800DBB2002B24D07B68002B02D07B88002BA5
:1039680001D101232AE1BB68002B04D1FB680222A4
:1039780083F83E2016E0BB68042B04D1FB680222C2
:1039880083F83F200EE0BB68082B04D1FB680222B5
:1039980083F8402006E0FB68022283F8412001E01A
:1039A80001230BE1BB680C2B7DD0BB680C2B00F20C
:1039B8009E80BB68082B52D0BB68082B00F297800A
:1039C800BB68002B03D0BB68042B24D08FE0FB68B6
:1039D8005B6A7C4ADA63FB685B6A7B4A1A64FB6849
:1039E8005B6A7A4ADA64FB68586A7968FB681B681C
:1039F80034331A467B8806F0F2FB0346002B01D0CD
:103A08000123DBE0FB681B68DA68FB681B6842F48B
:103A18000072DA606EE0FB689B6A6A4ADA63FB68E8
:103A28009B6A694A1A64FB689B6A684ADA64FB689D
:103A3800986A7968FB681B6838331A467B8806F0F1
:103A4800CEFB0346002B01D00123B7E0FB681B68BF
:103A5800DA68FB681B6842F48062DA604AE0FB6857
:103A6800DB6A584ADA63FB68DB6A574A1A64FB6800
:103A7800DB6A564ADA64FB68D86A7968FB681B68AF
:103A88003C331A467B8806F0AAFB0346002B01D07C
:103A9800012393E0FB681B68DA68FB681B6842F443
:103AA8000062DA6026E0FB681B6B464ADA63FB6853
:103AB8001B6B454A1A64FB681B6B444ADA64FB6853
:103AC800186B7968FB681B6840331A467B8806F0D8
:103AD80086FB0346002B01D001236FE0FB681B68BF
:103AE800DA68FB681B6842F48052DA6002E001235E
:103AF800FB7500BFFB7D002B5FD1FB681B680122B3
:103B0800B968184604F037F8FB681B68304A9342D6
:103B180004D0FB681B682F4A934201D1012300E0BF
:103B28000023002B07D0FB681B685A6CFB681B68D6
:103B380042F400425A64FB681B68254A934222D02B
:103B4800FB681B68B3F1804F1DD0FB681B68224AD5
:103B5800934218D0FB681B68204A934213D0FB6835
:103B68001B681F4A93420ED0FB681B68194A934290
:103B780009D0FB681B681B4A934204D0FB681B688A
:103B8800194A934211D1FB681B689B6803F007032D
:103B98003B613B69062B10D0FB681B681A68FB6801
:103BA8001B6842F001021A6007E0FB681B681A688C
:103BB800FB681B6842F001021A60FB7D1846183743
:103BC800BD4680BD656F00080D700008D36E000803
:103BD80000000140000401400004004000080040CB
:103BE800000C0040004001400018004080B584B03F
:103BF80000AF786039600023FB733B680C2B39D029
:103C08003B680C2B44D83B68082B25D03B68082B15
:103C18003ED83B68002B03D03B68042B0ED037E01E
:103C28007B681B68DA687B681B6822F40072DA60BC
:103C38007B685B6A184606F09AFB2CE07B681B6879
:103C4800DA687B681B6822F48062DA607B689B6AAA
:103C5800184606F08CFB1EE07B681B68DA687B68F8
:103C68001B6822F40062DA607B68DB6A184606F09B
:103C78007EFB10E07B681B68DA687B681B6822F4AF
:103C88008052DA607B681B6B184606F070FB02E016
:103C98000123FB7300BFFB7B002B61D17B681B6892
:103CA80000223968184603F066FF7B681B682F4AB4
:103CB800934204D07B681B682D4A934201D10123AB
:103CC80000E00023002B17D07B681B681A6A41F2BA
:103CD80011131340002B0FD17B681B681A6A40F23E
:103CE80044431340002B07D17B681B685A6C7B68E0
:103CF8001B6822F400425A647B681B681A6A41F206
:103D080011131340002B0FD17B681B681A6A40F20D
:103D180044431340002B07D17B681B681A687B68F3
:103D28001B6822F001021A603B68002B04D17B68F3
:103D3800012283F83E2013E03B68042B04D17B6802
:103D4800012283F83F200BE03B68082B04D17B68F5
:103D5800012283F8402003E07B68012283F8412098
:103D6800FB7B18461037BD4680BD00BF00000140F0
:103D78000004014080B582B000AF78607B68002BFA
:103D880001D1012341E07B6893F83D30DBB2002B81
:103D980006D17B68002283F83C20786800F08DF813
:103DA8007B68022283F83D207B681A687B680433AD
:103DB8001946104603F03CFA7B68012283F8462036
:103DC8007B68012283F83E207B68012283F83F202C
:103DD8007B68012283F840207B68012283F8412018
:103DE8007B68012283F842207B68012283F8432004
:103DF8007B68012283F844207B68012283F84520F0
:103E08007B68012283F83D20002318460837BD4609
:103E180080BD80B582B000AF78607B68022283F8ED
:103E28003D207B681B681A6A41F211131340002B6E
:103E38000FD17B681B681A6A40F244431340002B79
:103E480007D17B681B681A687B681B6822F001022F
:103E58001A60786800F03AF87B68002283F84620F8
:103E68007B68002283F83E207B68002283F83F208D
:103E78007B68002283F840207B68002283F8412079
:103E88007B68002283F842207B68002283F8432065
:103E98007B68002283F844207B68002283F8452051
:103EA8007B68002283F83D207B68002283F83C2051
:103EB800002318460837BD4680BD80B483B000AFE4
:103EC800786000BF0C37BD4680BC704780B483B0B3
:103ED80000AF786000BF0C37BD4680BC704780B526
:103EE80084B000AF786039603B68002B04D17B68F0
:103EF80093F83E30FB7313E03B68042B04D17B68D6
:103F080093F83F30FB730BE03B68082B04D17B68C8
:103F180093F84030FB7303E07B6893F84130FB7300
:103F28003B68002B04D17B6893F84230BB7313E0E5
:103F38003B68042B04D17B6893F84330BB730BE0D8
:103F48003B68082B04D17B6893F84430BB7303E0CB
:103F58007B6893F84530BB73FB7B012B02D1BB7B9D
:103F6800012B01D0012381E03B68002B04D17B6841
:103F7800022283F83E2013E03B68042B04D17B68BF
:103F8800022283F83F200BE03B68082B04D17B68B2
:103F9800022283F8402003E07B68022283F8412054
:103FA8003B68002B04D17B68022283F8422013E08F
:103FB8003B68042B04D17B68022283F843200BE082
:103FC8003B68082B04D17B68022283F8442003E075
:103FD8007B68022283F845207B681B6801223968C8
:103FE800184603F0C8FD7B681B68224A934222D01A
:103FF8007B681B68B3F1804F1DD07B681B681E4A25
:10400800934218D07B681B681C4A934213D07B6884
:104018001B681B4A93420ED07B681B68194A93425F
:1040280009D07B681B68184A934204D07B681B68D8
:10403800164A934211D17B681B689B6803F00703FB
:10404800BB60BB68062B10D07B681B681A687B684E
:104058001B6842F001021A6007E07B681B681A6857
:104068007B681B6842F001021A600023184610376B
:10407800BD4680BD0000014000040040000800402B
:10408800000C0040000401400040014000180040BE
:1040980080B582B000AF786039607B681B68002209
:1040A8003968184603F067FD7B681B681A6A41F295
:1040B80011131340002B0FD17B681B681A6A40F25A
:1040C80044431340002B07D17B681B681A687B6840
:1040D8001B6822F001021A603B68002B04D17B6840
:1040E800012283F83E2013E03B68042B04D17B684F
:1040F800012283F83F200BE03B68082B04D17B6842
:10410800012283F8402003E07B68012283F84120E4
:104118003B68002B04D17B68012283F8422013E01E
:104128003B68042B04D17B68012283F843200BE011
:104138003B68082B04D17B68012283F8442003E004
:104148007B68012283F84520002318460837BD46BE
:1041580080BD80B584B000AF786039600023FB7300
:104168003B68002B04D17B6893F83E30BB7313E0A7
:104178003B68042B04D17B6893F83F30BB730BE09A
:104188003B68082B04D17B6893F84030BB7303E08D
:104198007B6893F84130BB733B68002B04D17B6884
:1041A80093F842307B7313E03B68042B04D17B689F
:1041B80093F843307B730BE03B68082B04D17B6892
:1041C80093F844307B7303E07B6893F845307B7346
:1041D800BB7B012B02D17B7B012B01D00123BEE0ED
:1041E8003B68002B04D17B68022283F83E2013E051
:1041F8003B68042B04D17B68022283F83F200BE044
:104208003B68082B04D17B68022283F8402003E036
:104218007B68022283F841203B68002B04D17B682D
:10422800022283F8422013E03B68042B04D17B6808
:10423800022283F843200BE03B68082B04D17B68FB
:10424800022283F8442003E07B68022283F8452099
:104258003B680C2B2AD03B680C2B30D83B68082BCA
:104268001BD03B68082B2AD83B68002B03D03B683F
:10427800042B09D023E07B681B68DA687B681B681D
:1042880042F00202DA601DE07B681B68DA687B682E
:104298001B6842F00402DA6014E07B681B68DA6885
:1042A8007B681B6842F00802DA600BE07B681B68D9
:1042B800DA687B681B6842F01002DA6002E00123CA
:1042C800FB7300BFFB7B002B48D17B681B68012276
:1042D8003968184603F04FFC7B681B68224A9342F2
:1042E80022D07B681B68B3F1804F1DD07B681B68A8
:1042F8001E4A934218D07B681B681D4A934213D00C
:104308007B681B681B4A93420ED07B681B681A4A5D
:10431800934209D07B681B68184A934204D07B6893
:104328001B68174A934211D17B681B689B6803F08E
:104338000703BB60BB68062B10D07B681B681A6834
:104348007B681B6842F001021A6007E07B681B6803
:104358001A687B681B6842F001021A60FB7B1846EA
:104368001037BD4680BD00BF00000140000400407A
:1043780000080040000C00400004014000400140DB
:104388000018004080B584B000AF78603960002321
:10439800FB733B680C2B2AD03B680C2B30D83B684E
:1043A800082B1BD03B68082B2AD83B68002B03D06E
:1043B8003B68042B09D023E07B681B68DA687B68BC
:1043C8001B6822F00202DA601DE07B681B68DA686D
:1043D8007B681B6822F00402DA6014E07B681B68C3
:1043E800DA687B681B6822F00802DA600BE07B68F9
:1043F8001B68DA687B681B6822F01002DA6002E04A
:104408000123FB7300BFFB7B002B56D17B681B6825
:1044180000223968184603F0AEFB7B681B681A6AED
:1044280041F211131340002B0FD17B681B681A6AE5
:1044380040F244431340002B07D17B681B681A687D
:104448007B681B6822F001021A603B68002B04D1CC
:104458007B68012283F83E2013E03B68042B04D1DB
:104468007B68012283F83F200BE03B68082B04D1CE
:104478007B68012283F8402003E07B68012283F8EF
:1044880041203B68002B04D17B68012283F842203D
:1044980013E03B68042B04D17B68012283F8432096
:1044A8000BE03B68082B04D17B68012283F8442089
:1044B80003E07B68012283F84520FB7B1846103710
:1044C800BD4680BD80B586B000AFF860B9607A603F
:1044D8007B800023FB75BB68002B04D1FB6893F835
:1044E8003E30BB7513E0BB68042B04D1FB6893F81E
:1044F8003F30BB750BE0BB68082B04D1FB6893F811
:104508004030BB7503E0FB6893F84130BB75BB686E
:10451800002B04D1FB6893F842307B7513E0BB682D
:10452800042B04D1FB6893F843307B750BE0BB6820
:10453800082B04D1FB6893F844307B7503E0FB68D3
:1045480093F845307B75BB7D022B02D07B7D022B17
:1045580001D102233AE1BB7D012B43D17B7D012BA5
:1045680040D17B68002B02D07B88002B01D101232E
:104578002CE1BB68002B04D1FB68022283F83E20A3
:1045880013E0BB68042B04D1FB68022283F83F20A8
:104598000BE0BB68082B04D1FB68022283F840209B
:1045A80003E0FB68022283F84120BB68002B04D19A
:1045B800FB68022283F8422016E0BB68042B04D172
:1045C800FB68022283F843200EE0BB68082B04D165
:1045D800FB68022283F8442006E0FB68022283F885
:1045E800452001E00123F1E0FB681B680122B9685E
:1045F800184603F0C0FABB680C2B7DD0BB680C2BA7
:1046080000F29E80BB68082B52D0BB68082B00F2D2
:104618009780BB68002B03D0BB68042B24D08FE0A5
:10462800FB685B6A6B4ADA63FB685B6A6A4A1A640E
:10463800FB685B6A694ADA64FB68586AFB681B684E
:10464800343319467A687B8805F0C9FD0346002B88
:1046580001D00123BAE0FB681B68DA68FB681B68B5
:1046680042F40072DA606EE0FB689B6A594ADA63CA
:10467800FB689B6A584A1A64FB689B6A574ADA6463
:10468800FB68986AFB681B68383319467A687B8828
:1046980005F0A5FD0346002B01D0012396E0FB6839
:1046A8001B68DA68FB681B6842F48062DA604AE0DB
:1046B800FB68DB6A474ADA63FB68DB6A464A1A64C6
:1046C800FB68DB6A454ADA64FB68D86AFB681B68E2
:1046D8003C3319467A687B8805F081FD0346002B38
:1046E80001D0012372E0FB681B68DA68FB681B686D
:1046F80042F40062DA6026E0FB681B6B354ADA6335
:10470800FB681B6B344A1A64FB681B6B334ADA6418
:10471800FB68186BFB681B68403319467A687B880E
:1047280005F05DFD0346002B01D001234EE0FB6838
:104738001B68DA68FB681B6842F48052DA6002E0A2
:104748000123FB7500BFFB681B68254A934222D0F2
:10475800FB681B68B3F1804F1DD0FB681B68214ABA
:10476800934218D0FB681B681F4A934213D0FB681A
:104778001B681E4A93420ED0FB681B681C4A934272
:1047880009D0FB681B681B4A934204D0FB681B686E
:10479800194A934211D1FB681B689B6803F0070311
:1047A8003B613B69062B10D0FB681B681A68FB68E5
:1047B8001B6842F001021A6007E0FB681B681A6870
:1047C800FB681B6842F001021A60FB7D1846183727
:1047D800BD4680BD757000083D710008D36E0008A5
:1047E800000001400004004000080040000C0040A8
:1047F80000040140004001400018004080B584B02A
:1048080000AF786039600023FB737B681B68002267
:104818003968184603F0AFF93B680C2B39D03B6870
:104828000C2B44D83B68082B25D03B68082B3ED876
:104838003B68002B03D03B68042B0ED037E07B6825
:104848001B68DA687B681B6822F40072DA607B6890
:104858005B6A184605F08BFD2CE07B681B68DA68FC
:104868007B681B6822F48062DA607B689B6A184662
:1048780005F07DFD1EE07B681B68DA687B681B68B5
:1048880022F40062DA607B68DB6A184605F06FFD87
:1048980010E07B681B68DA687B681B6822F480522A
:1048A800DA607B681B6B184605F061FD02E00123A6
:1048B800FB7300BFFB7B002B4FD17B681B681A6A18
:1048C80041F211131340002B0FD17B681B681A6A41
:1048D80040F244431340002B07D17B681B681A68D9
:1048E8007B681B6822F001021A603B68002B04D128
:1048F8007B68012283F83E2013E03B68042B04D137
:104908007B68012283F83F200BE03B68082B04D129
:104918007B68012283F8402003E07B68012283F84A
:1049280041203B68002B04D17B68012283F8422098
:1049380013E03B68042B04D17B68012283F84320F1
:104948000BE03B68082B04D17B68012283F84420E4
:1049580003E07B68012283F84520FB7B184610376B
:10496800BD4680BD80B582B000AF786039607B6895
:10497800002B01D1012341E07B6893F83D30DBB285
:10498800002B06D17B68002283F83C20786800F071
:104998007DF87B68022283F83D207B681A687B6873
:1049A80004331946104602F043FC7B681B681A68FA
:1049B8007B681B6822F008021A607B681B6819680C
:1049C8007B681B683A680A431A607B68012283F88F
:1049D80046207B68012283F83E207B68012283F809
:1049E8003F207B68012283F842207B68012283F8FC
:1049F80043207B68012283F83D20002318460837AE
:104A0800BD4680BD80B582B000AF78607B68022269
:104A180083F83D207B681B681A6A41F21113134022
:104A2800002B0FD17B681B681A6A40F2444313407D
:104A3800002B07D17B681B681A687B681B6822F00B
:104A480001021A60786800F02AF87B68002283F86F
:104A580046207B68002283F83E207B68002283F88A
:104A68003F207B68002283F842207B68002283F87D
:104A780043207B68002283F83D207B68002283F86E
:104A88003C20002318460837BD4680BD80B483B05B
:104A980000AF786000BF0C37BD4680BC704780B45B
:104AA80083B000AF786000BF0C37BD4680BC70474C
:104AB80080B584B000AF786039607B6893F83E3089
:104AC800FB737B6893F83F30BB737B6893F8423085
:104AD8007B737B6893F843303B73FB7B012B08D1D6
:104AE800BB7B012B05D17B7B012B02D13B7B012BAF
:104AF80001D0012335E07B68022283F83E207B68E1
:104B0800022283F83F207B68022283F842207B68D8
:104B1800022283F843207B681B6801220021184683
:104B280003F029F87B681B6801220421184603F06A
:104B380022F87B681B680D4A934204D07B681B6887
:104B48000B4A934201D1012300E00023002B07D038
:104B58007B681B685A6C7B681B6842F400425A6485
:104B6800002318461037BD4680BD00BF0000014035
:104B78000004014080B582B000AF786039607B687E
:104B88001B6800220021184602F0F5FF7B681B68AD
:104B980000220421184602F0EEFF7B681B68294AB0
:104BA800934204D07B681B68274A934201D10123B2
:104BB80000E00023002B17D07B681B681A6A41F2BB
:104BC80011131340002B0FD17B681B681A6A40F23F
:104BD80044431340002B07D17B681B685A6C7B68E1
:104BE8001B6822F400425A647B681B681A6A41F207
:104BF80011131340002B0FD17B681B681A6A40F20F
:104C080044431340002B07D17B681B681A687B68F4
:104C18001B6822F001021A607B68012283F83E209B
:104C28007B68012283F83F207B68012283F84220B9
:104C38007B68012283F84320002318460837BD46C5
:104C480080BD00BF000001400004014080B584B071
:104C580000AF786039607B6893F83E30FB737B68FF
:104C680093F83F30BB737B6893F842307B737B6863
:104C780093F843303B73FB7B012B08D1BB7B012BA3
:104C880005D17B7B012B02D13B7B012B01D001237A
:104C980045E07B68022283F83E207B68022283F885
:104CA8003F207B68022283F842207B68022283F837
:104CB80043207B681B68DA687B681B6842F0020245
:104CC800DA607B681B68DA687B681B6842F004025C
:104CD800DA607B681B6801220021184602F04BFF4E
:104CE8007B681B6801220421184602F044FF7B6898
:104CF8001B680D4A934204D07B681B680B4A934299
:104D080001D1012300E00023002B07D07B681B683A
:104D18005A6C7B681B6842F400425A6400231846A8
:104D28001037BD4680BD00BF0000014000040140AF
:104D380080B582B000AF786039607B681B68DA683C
:104D48007B681B6822F00202DA607B681B68DA68FD
:104D58007B681B6822F00402DA607B681B6800220B
:104D68000021184602F007FF7B681B680022042117
:104D7800184602F000FF7B681B68294A934204D05A
:104D88007B681B68274A934201D1012300E0002376
:104D9800002B17D07B681B681A6A41F21113134065
:104DA800002B0FD17B681B681A6A40F244431340FA
:104DB800002B07D17B681B685A6C7B681B6822F440
:104DC80000425A647B681B681A6A41F21113134047
:104DD800002B0FD17B681B681A6A40F244431340CA
:104DE800002B07D17B681B681A687B681B6822F058
:104DF80001021A607B68012283F83E207B68012249
:104E080083F83F207B68012283F842207B680122D7
:104E180083F84320002318460837BD4680BD00BFED
:104E2800000001400004014080B586B000AF786002
:104E380039607B68002B01D1012397E07B6893F8E8
:104E48003D30DBB2002B06D17B68002283F83C2082
:104E5800786800F0D3F87B68022283F83D207B68ED
:104E68001B689B687A68126823F4804323F0070361
:104E780093607B681A687B6804331946104602F011
:104E8800D7F97B681B689B687B617B681B689B699B
:104E98003B617B681B681B6AFB603B681B687A691F
:104EA80013437B613B6923F4407323F003033B61A5
:104EB8003B689A683B689B691B0213433A69134332
:104EC8003B613B6923F4406323F00C033B613B697E
:104ED80023F4704323F0F0033B613B68DA683B68D6
:104EE800DB691B0213433A6913433B613B681B6947
:104EF8001A013B681B6A1B0313433A6913433B615E
:104F0800FB6823F02203FB60FB6823F08803FB6047
:104F18003B685A683B685B691B011343FA68134393
:104F2800FB607B681B687A699A607B681B683A69D2
:104F38009A617B681B68FA681A627B68012283F8A9
:104F480046207B68012283F83E207B68012283F893
:104F58003F207B68012283F842207B68012283F886
:104F680043207B68012283F83D2000231846183728
:104F7800BD4680BD80B582B000AF78607B680222F4
:104F880083F83D207B681B681A6A41F211131340AD
:104F9800002B0FD17B681B681A6A40F24443134008
:104FA800002B07D17B681B681A687B681B6822F096
:104FB80001021A60786800F02AF87B68002283F8FA
:104FC80046207B68002283F83E207B68002283F815
:104FD8003F207B68002283F842207B68002283F808
:104FE80043207B68002283F83D207B68002283F8F9
:104FF8003C20002318460837BD4680BD80B483B0E6
:1050080000AF786000BF0C37BD4680BC704780B4E5
:1050180083B000AF786000BF0C37BD4680BC7047D6
:1050280080B584B000AF786039607B6893F83E3013
:10503800FB737B6893F83F30BB737B6893F842300F
:105048007B737B6893F843303B733B68002B10D12C
:10505800FB7B012B02D17B7B012B01D0012369E073
:105068007B68022283F83E207B68022283F8422074
:1050780031E03B68042B10D1BB7B012B02D13B7B79
:10508800012B01D0012355E07B68022283F83F20E1
:105098007B68022283F843201DE0FB7B012B08D1AB
:1050A800BB7B012B05D17B7B012B02D13B7B012BE9
:1050B80001D001233EE07B68022283F83E207B6812
:1050C800022283F83F207B68022283F842207B6813
:1050D800022283F843203B68002B03D03B68042B53
:1050E80008D00FE07B681B6801220021184602F0F7
:1050F80042FD16E07B681B6801220421184602F075
:105108003AFD0EE07B681B6801220021184602F078
:1051180032FD7B681B6801220421184602F02BFD32
:1051280000BF7B681B681A687B681B6842F0010235
:105138001A60002318461037BD4680BD80B582B07E
:1051480000AF786039603B68002B03D03B68042BC4
:1051580008D00FE07B681B6800220021184602F087
:105168000AFD16E07B681B6800220421184602F03D
:1051780002FD0EE07B681B6800220021184602F041
:10518800FAFC7B681B6800220421184602F0F3FC35
:1051980000BF7B681B681A6A41F211131340002B89
:1051A8000FD17B681B681A6A40F244431340002BF6
:1051B80007D17B681B681A687B681B6822F00102AC
:1051C8001A603B68002B02D03B68042B38D13B683F
:1051D800002B04D17B68012283F83E2013E03B6852
:1051E800042B04D17B68012283F83F200BE03B6845
:1051F800082B04D17B68012283F8402003E07B68F8
:10520800012283F841203B68002B04D17B680122EE
:1052180083F8422024E03B68042B04D17B680122F8
:1052280083F843201CE03B68082B04D17B680122EB
:1052380083F8442014E07B68012283F845200FE0BE
:105248007B68012283F83E207B68012283F83F2097
:105258007B68012283F842207B68012283F843207F
:10526800002318460837BD4680BD80B584B000AF1E
:10527800786039607B6893F83E30FB737B6893F8FD
:105288003F30BB737B6893F842307B737B6893F83D
:1052980043303B733B68002B10D1FB7B012B02D1C1
:1052A8007B7B012B01D0012389E07B68022283F8F4
:1052B8003E207B68022283F8422031E03B68042BC1
:1052C80010D1BB7B012B02D13B7B012B01D00123E9
:1052D80075E07B68022283F83F207B68022283F80E
:1052E80043201DE0FB7B012B08D1BB7B012B05D1A3
:1052F8007B7B012B02D13B7B012B01D001235EE09C
:105308007B68022283F83E207B68022283F83F20D4
:105318007B68022283F842207B68022283F84320BC
:105328003B68002B03D03B68042B10D01FE07B6840
:105338001B6801220021184602F01DFC7B681B68CF
:10534800DA687B681B6842F00202DA602EE07B684C
:105358001B6801220421184602F00DFC7B681B68BB
:10536800DA687B681B6842F00402DA601EE07B683A
:105378001B6801220021184602F0FDFB7B681B68B0
:1053880001220421184602F0F6FB7B681B68DA68E4
:105398007B681B6842F00202DA607B681B68DA6887
:1053A8007B681B6842F00402DA6000BF7B681B68F8
:1053B8001A687B681B6842F001021A6000231846CD
:1053C8001037BD4680BD80B582B000AF78603960C7
:1053D8003B68002B0FD17B681B6800220021184610
:1053E80002F0C9FB7B681B68DA687B681B6822F0DF
:1053F8000202DA6030E03B68042B0FD17B681B683F
:1054080000220421184602F0B6FB7B681B68DA68A4
:105418007B681B6822F00402DA601DE07B681B6869
:1054280000220021184602F0A6FB7B681B680022B8
:105438000421184602F09FFB7B681B68DA687B68CA
:105448001B6822F00202DA607B681B68DA687B68F6
:105458001B6822F00402DA607B681B681A6A41F252
:1054680011131340002B0FD17B681B681A6A40F296
:1054780044431340002B07D17B681B681A687B687C
:105488001B6822F001021A603B68002B02D03B68BF
:10549800042B38D13B68002B04D17B68012283F8A8
:1054A8003E2013E03B68042B04D17B68012283F87B
:1054B8003F200BE03B68082B04D17B68012283F86E
:1054C800402003E07B68012283F841203B68002BE1
:1054D80004D17B68012283F8422024E03B68042B36
:1054E80004D17B68012283F843201CE03B68082B29
:1054F80004D17B68012283F8442014E07B680122F0
:1055080083F845200FE07B68012283F83E207B6802
:10551800012283F83F207B68012283F842207B68C0
:10552800012283F84320002318460837BD4680BD72
:1055380080B586B000AFF860B9607A603B60FB6800
:1055480093F83E30FB75FB6893F83F30BB75FB68FA
:1055580093F842307B75FB6893F843303B75BB6822
:10556800002B20D1FB7D022B02D07B7D022B01D1A9
:1055780002233FE1FB7D012B13D17B7D012B10D151
:105588007B68002B02D03B8C002B01D1012331E139
:10559800FB68022283F83E20FB68022283F842203F
:1055A8005DE0012326E1BB68042B20D1BB7D022BE3
:1055B80002D03B7D022B01D102231BE1BB7D012BD5
:1055C80013D13B7D012B10D13B68002B02D03B8CC3
:1055D800002B01D101230DE1FB68022283F83F2053
:1055E800FB68022283F8432039E0012302E1FB7DB6
:1055F800022B08D0BB7D022B05D07B7D022B02D06D
:105608003B7D022B01D10223F4E0FB7D012B24D149
:10561800BB7D012B21D17B7D012B1ED13B7D012B35
:105628001BD17B68002B05D03B68002B02D03B8C3C
:10563800002B01D10123DDE0FB68022283F83E2024
:10564800FB68022283F83F20FB68022283F842208D
:10565800FB68022283F8432001E00123CAE0BB680B
:10566800002B03D0BB68042B33D065E0FB685B6A72
:10567800624ADA63FB685B6A614A1A64FB685B6AC0
:10568800604ADA64FB68586AFB681B683433194659
:105698007A683B8C04F0A3FD0346002B01D001235C
:1056A800A8E0FB681B68DA68FB681B6842F40072B4
:1056B800DA60FB681B6801220021184602F05BFAD9
:1056C800FB681B681A68FB681B6842F001021A60D5
:1056D8008FE0FB689B6A494ADA63FB689B6A484A21
:1056E8001A64FB689B6A474ADA64FB68986AFB6835
:1056F8001B68383319463A683B8C04F070FD034642
:10570800002B01D0012375E0FB681B68DA68FB6891
:105718001B6842F48062DA60FB681B68012204217E
:10572800184602F028FAFB681B681A68FB681B68B1
:1057380042F001021A605CE0FB685B6A2F4ADA6398
:10574800FB685B6A2E4A1A64FB685B6A2D4ADA6456
:10575800FB68586AFB681B68343319467A683B8CC7
:1057680004F03DFD0346002B01D0012342E0FB6815
:105778009B6A224ADA63FB689B6A214A1A64FB68BF
:105788009B6A204ADA64FB68986AFB681B683833AE
:1057980019463A683B8C04F022FD0346002B01D0E1
:1057A800012327E0FB681B68DA68FB681B6842F482
:1057B8000072DA60FB681B68DA68FB681B6842F4F1
:1057C8008062DA60FB681B6801220021184602F03B
:1057D800D2F9FB681B6801220421184602F0CBF9B4
:1057E800FB681B681A68FB681B6842F001021A60B4
:1057F80000BF002318461837BD4680BD75700008E5
:105808003D710008D36E000880B582B000AF7860A3
:1058180039603B68002B14D17B681B68002200218B
:10582800184602F0A8F97B681B68DA687B681B6871
:1058380022F40072DA607B685B6A184604F097FD10
:105848003FE03B68042B14D17B681B6800220421CD
:10585800184602F090F97B681B68DA687B681B6859
:1058680022F48062DA607B689B6A184604F07FFD48
:1058780027E07B681B6800220021184602F07BF9AC
:105888007B681B6800220421184602F074F97B68C3
:105898001B68DA687B681B6822F40072DA607B6830
:1058A8001B68DA687B681B6822F48062DA607B68B0
:1058B8005B6A184604F05BFD7B689B6A184604F037
:1058C80056FD7B681B681A6A41F211131340002BBE
:1058D8000FD17B681B681A6A40F244431340002BBF
:1058E80007D17B681B681A687B681B6822F0010275
:1058F8001A603B68002B02D03B68042B38D13B6808
:10590800002B04D17B68012283F83E2013E03B681A
:10591800042B04D17B68012283F83F200BE03B680D
:10592800082B04D17B68012283F8402003E07B68C0
:10593800012283F841203B68002B04D17B680122B7
:1059480083F8422024E03B68042B04D17B680122C1
:1059580083F843201CE03B68082B04D17B680122B4
:1059680083F8442014E07B68012283F845200FE087
:105978007B68012283F83E207B68012283F83F2060
:105988007B68012283F842207B68012283F8432048
:10599800002318460837BD4680BD80B584B000AFE7
:1059A80078607B681B68DB68FB607B681B681B6929
:1059B800BB60BB6803F00203002B20D0FB6803F038
:1059C8000203002B1BD07B681B686FF002021A6170
:1059D8007B6801221A777B681B689B6903F00303C5
:1059E800002B03D0786801F0A4F905E0786801F08D
:1059F80097F9786801F0AFF97B6800221A77BB68DD
:105A080003F00403002B20D0FB6803F00403002BF1
:105A18001BD07B681B686FF004021A617B68022246
:105A28001A777B681B689B6903F44073002B03D0CB
:105A3800786801F07EF905E0786801F071F9786816
:105A480001F089F97B6800221A77BB6803F0080324
:105A5800002B20D0FB6803F00803002B1BD07B68C9
:105A68001B686FF008021A617B6804221A777B684A
:105A78001B68DB6903F00303002B03D0786801F08F
:105A880058F905E0786801F04BF9786801F063F996
:105A98007B6800221A77BB6803F01003002B20D024
:105AA800FB6803F01003002B1BD07B681B686FF0AA
:105AB80010021A617B6808221A777B681B68DB6909
:105AC80003F44073002B03D0786801F032F905E045
